{
	"data": {
		"bytecode": {
			"linkReferences": {},
			"object": "608060405234801561000f575f5ffd5b506040516125b53803806125b5833981810160405281019061003191906101d7565b805f73ffffffffffffffffffffffffffffffffffffffff168173ffffffffffffffffffffffffffffffffffffffff16036100a2575f6040517f1e4fbdf70000000000000000000000000000000000000000000000000000000081526004016100999190610211565b60405180910390fd5b6100b1816100b860201b60201c565b505061022a565b5f5f5f9054906101000a900473ffffffffffffffffffffffffffffffffffffffff169050815f5f6101000a81548173ffffffffffffffffffffffffffffffffffffffff021916908373ffffffffffffffffffffffffffffffffffffffff1602179055508173ffffffffffffffffffffffffffffffffffffffff168173ffffffffffffffffffffffffffffffffffffffff167f8be0079c531659141344cd1fd0a4f28419497f9722a3daafe3b4186f6b6457e060405160405180910390a35050565b5f5ffd5b5f73ffffffffffffffffffffffffffffffffffffffff82169050919050565b5f6101a68261017d565b9050919050565b6101b68161019c565b81146101c0575f5ffd5b50565b5f815190506101d1816101ad565b92915050565b5f602082840312156101ec576101eb610179565b5b5f6101f9848285016101c3565b91505092915050565b61020b8161019c565b82525050565b5f6020820190506102245f830184610202565b92915050565b61237e806102375f395ff3fe608060405234801561000f575f5ffd5b50600436106100a7575f3560e01c806398e4920e1161006f57806398e4920e1461016e578063995d1c041461019e5780639f9d903a146101ce578063cf347e17146101ec578063f2fde38b14610208578063fabe5a1414610224576100a7565b80630b791430146100ab57806323f2a73f146100e65780636d1884e014610116578063715018a6146101465780638da5cb5b14610150575b5f5ffd5b6100c560048036038101906100c091906113da565b610240565b6040516100dd9c9b9a99989796959493929190611532565b60405180910390f35b61010060048036038101906100fb9190611629565b610484565b60405161010d9190611667565b60405180910390f35b610130600480360381019061012b91906113da565b6104e6565b60405161013d9190611831565b60405180910390f35b61014e6107bb565b005b6101586107ce565b6040516101659190611851565b60405180910390f35b61018860048036038101906101839190611629565b6107f5565b6040516101959190611667565b60405180910390f35b6101b860048036038101906101b39190611a14565b61092c565b6040516101c59190611b2c565b60405180910390f35b6101d6610cdb565b6040516101e39190611b2c565b60405180910390f35b61020660048036038101906102019190611b6f565b610ce1565b005b610222600480360381019061021d9190611bbf565b610f7a565b005b61023e60048036038101906102399190611bea565b610ffe565b005b6002602052805f5260405f205f91509050805f01549080600101805461026590611c55565b80601f016020809104026020016040519081016040528092919081815260200182805461029190611c55565b80156102dc5780601f106102b3576101008083540402835291602001916102dc565b820191905f5260205f20905b8154815290600101906020018083116102bf57829003601f168201915b5050505050908060020154908060030180546102f790611c55565b80601f016020809104026020016040519081016040528092919081815260200182805461032390611c55565b801561036e5780601f106103455761010080835404028352916020019161036e565b820191905f5260205f20905b81548152906001019060200180831161035157829003601f168201915b505050505090806004015490806005015f9054906101000a900460ff16908060060154908060070180546103a190611c55565b80601f01602080910402602001604051908101604052809291908181526020018280546103cd90611c55565b80156104185780601f106103ef57610100808354040283529160200191610418565b820191905f5260205f20905b8154815290600101906020018083116103fb57829003601f168201915b505050505090806008015f9054906101000a900473ffffffffffffffffffffffffffffffffffffffff16908060080160149054906101000a900460ff16908060080160159054906101000a900461ffff16908060080160179054906101000a900463ffffffff1690508c565b5f60035f8481526020019081526020015f205f8373ffffffffffffffffffffffffffffffffffffffff1673ffffffffffffffffffffffffffffffffffffffff1681526020019081526020015f205f9054906101000a900460ff16905092915050565b6104ee611319565b60025f8381526020019081526020015f20604051806101800160405290815f820154815260200160018201805461052490611c55565b80601f016020809104026020016040519081016040528092919081815260200182805461055090611c55565b801561059b5780601f106105725761010080835404028352916020019161059b565b820191905f5260205f20905b81548152906001019060200180831161057e57829003601f168201915b50505050508152602001600282015481526020016003820180546105be90611c55565b80601f01602080910402602001604051908101604052809291908181526020018280546105ea90611c55565b80156106355780601f1061060c57610100808354040283529160200191610635565b820191905f5260205f20905b81548152906001019060200180831161061857829003601f168201915b5050505050815260200160048201548152602001600582015f9054906101000a900460ff1660ff1660ff1681526020016006820154815260200160078201805461067e90611c55565b80601f01602080910402602001604051908101604052809291908181526020018280546106aa90611c55565b80156106f55780601f106106cc576101008083540402835291602001916106f5565b820191905f5260205f20905b8154815290600101906020018083116106d857829003601f168201915b50505050508152602001600882015f9054906101000a900473ffffffffffffffffffffffffffffffffffffffff1673ffffffffffffffffffffffffffffffffffffffff1673ffffffffffffffffffffffffffffffffffffffff1681526020016008820160149054906101000a900460ff161515151581526020016008820160159054906101000a900461ffff1661ffff1661ffff1681526020016008820160179054906101000a900463ffffffff1663ffffffff1663ffffffff16815250509050919050565b6107c36111ca565b6107cc5f611251565b565b5f5f5f9054906101000a900473ffffffffffffffffffffffffffffffffffffffff16905090565b5f5f60025f8581526020019081526020015f2090505f73ffffffffffffffffffffffffffffffffffffffff16816008015f9054906101000a900473ffffffffffffffffffffffffffffffffffffffff1673ffffffffffffffffffffffffffffffffffffffff1603610869575f915050610926565b806008015f9054906101000a900473ffffffffffffffffffffffffffffffffffffffff1673ffffffffffffffffffffffffffffffffffffffff168373ffffffffffffffffffffffffffffffffffffffff16036108c9576001915050610926565b60035f8581526020019081526020015f205f8473ffffffffffffffffffffffffffffffffffffffff1673ffffffffffffffffffffffffffffffffffffffff1681526020019081526020015f205f9054906101000a900460ff169150505b92915050565b5f5f8a5111610970576040517f08c379a000000000000000000000000000000000000000000000000000000000815260040161096790611ccf565b60405180910390fd5b5f87116109b2576040517f08c379a00000000000000000000000000000000000000000000000000000000081526004016109a990611d37565b60405180910390fd5b5f85116109f4576040517f08c379a00000000000000000000000000000000000000000000000000000000081526004016109eb90611d9f565b60405180910390fd5b60648660ff161015610a3b576040517f08c379a0000000000000000000000000000000000000000000000000000000008152600401610a3290611e07565b60405180910390fd5b5f8361ffff161115610a8f57848361ffff161115610a8e576040517f08c379a0000000000000000000000000000000000000000000000000000000008152600401610a8590611e6f565b60405180910390fd5b5b60015f815480929190610aa190611eba565b9190505590506040518061018001604052808281526020018b81526020018a81526020018981526020018881526020018760ff1681526020018681526020018581526020013373ffffffffffffffffffffffffffffffffffffffff1681526020016001151581526020018461ffff1681526020018363ffffffff1681525060025f8381526020019081526020015f205f820151815f01556020820151816001019081610b4d91906120a1565b50604082015181600201556060820151816003019081610b6d91906120a1565b506080820151816004015560a0820151816005015f6101000a81548160ff021916908360ff16021790555060c0820151816006015560e0820151816007019081610bb791906120a1565b50610100820151816008015f6101000a81548173ffffffffffffffffffffffffffffffffffffffff021916908373ffffffffffffffffffffffffffffffffffffffff1602179055506101208201518160080160146101000a81548160ff0219169083151502179055506101408201518160080160156101000a81548161ffff021916908361ffff1602179055506101608201518160080160176101000a81548163ffffffff021916908363ffffffff1602179055509050503373ffffffffffffffffffffffffffffffffffffffff16817f57f21a1e75a2d022c09416c3a55598195fd4317433daa05289d8c4deb5abd6098c8c8c8c8c8c8c8c8c604051610cc699989796959493929190612170565b60405180910390a39998505050505050505050565b60015481565b5f60025f8581526020019081526020015f2090505f73ffffffffffffffffffffffffffffffffffffffff16816008015f9054906101000a900473ffffffffffffffffffffffffffffffffffffffff1673ffffffffffffffffffffffffffffffffffffffff1603610d86576040517f08c379a0000000000000000000000000000000000000000000000000000000008152600401610d7d9061225a565b60405180910390fd5b806008015f9054906101000a900473ffffffffffffffffffffffffffffffffffffffff1673ffffffffffffffffffffffffffffffffffffffff163373ffffffffffffffffffffffffffffffffffffffff161480610e155750610de66107ce565b73ffffffffffffffffffffffffffffffffffffffff163373ffffffffffffffffffffffffffffffffffffffff16145b610e54576040517f08c379a0000000000000000000000000000000000000000000000000000000008152600401610e4b906122c2565b60405180910390fd5b5f73ffffffffffffffffffffffffffffffffffffffff168373ffffffffffffffffffffffffffffffffffffffff1603610ec2576040517f08c379a0000000000000000000000000000000000000000000000000000000008152600401610eb99061232a565b60405180910390fd5b8160035f8681526020019081526020015f205f8573ffffffffffffffffffffffffffffffffffffffff1673ffffffffffffffffffffffffffffffffffffffff1681526020019081526020015f205f6101000a81548160ff0219169083151502179055508273ffffffffffffffffffffffffffffffffffffffff16847f1b9b7b3c38bdd9a9a83813bf3535f7f7844fcb7ec27ddec0370893b799fe26ef84604051610f6c9190611667565b60405180910390a350505050565b610f826111ca565b5f73ffffffffffffffffffffffffffffffffffffffff168173ffffffffffffffffffffffffffffffffffffffff1603610ff2575f6040517f1e4fbdf7000000000000000000000000000000000000000000000000000000008152600401610fe99190611851565b60405180910390fd5b610ffb81611251565b50565b5f60025f8481526020019081526020015f2090505f73ffffffffffffffffffffffffffffffffffffffff16816008015f9054906101000a900473ffffffffffffffffffffffffffffffffffffffff1673ffffffffffffffffffffffffffffffffffffffff16036110a3576040517f08c379a000000000000000000000000000000000000000000000000000000000815260040161109a9061225a565b60405180910390fd5b806008015f9054906101000a900473ffffffffffffffffffffffffffffffffffffffff1673ffffffffffffffffffffffffffffffffffffffff163373ffffffffffffffffffffffffffffffffffffffff16148061113257506111036107ce565b73ffffffffffffffffffffffffffffffffffffffff163373ffffffffffffffffffffffffffffffffffffffff16145b611171576040517f08c379a0000000000000000000000000000000000000000000000000000000008152600401611168906122c2565b60405180910390fd5b818160080160146101000a81548160ff021916908315150217905550827f69a1d308f60ea7e097a1ac547a3a0776b9c2e05d34084ce48e044df8f45e7cb2836040516111bd9190611667565b60405180910390a2505050565b6111d2611312565b73ffffffffffffffffffffffffffffffffffffffff166111f06107ce565b73ffffffffffffffffffffffffffffffffffffffff161461124f57611213611312565b6040517f118cdaa70000000000000000000000000000000000000000000000000000000081526004016112469190611851565b60405180910390fd5b565b5f5f5f9054906101000a900473ffffffffffffffffffffffffffffffffffffffff169050815f5f6101000a81548173ffffffffffffffffffffffffffffffffffffffff021916908373ffffffffffffffffffffffffffffffffffffffff1602179055508173ffffffffffffffffffffffffffffffffffffffff168173ffffffffffffffffffffffffffffffffffffffff167f8be0079c531659141344cd1fd0a4f28419497f9722a3daafe3b4186f6b6457e060405160405180910390a35050565b5f33905090565b6040518061018001604052805f8152602001606081526020015f8152602001606081526020015f81526020015f60ff1681526020015f8152602001606081526020015f73ffffffffffffffffffffffffffffffffffffffff1681526020015f151581526020015f61ffff1681526020015f63ffffffff1681525090565b5f604051905090565b5f5ffd5b5f5ffd5b5f819050919050565b6113b9816113a7565b81146113c3575f5ffd5b50565b5f813590506113d4816113b0565b92915050565b5f602082840312156113ef576113ee61139f565b5b5f6113fc848285016113c6565b91505092915050565b61140e816113a7565b82525050565b5f81519050919050565b5f82825260208201905092915050565b8281835e5f83830152505050565b5f601f19601f8301169050919050565b5f61145682611414565b611460818561141e565b935061147081856020860161142e565b6114798161143c565b840191505092915050565b5f60ff82169050919050565b61149981611484565b82525050565b5f73ffffffffffffffffffffffffffffffffffffffff82169050919050565b5f6114c88261149f565b9050919050565b6114d8816114be565b82525050565b5f8115159050919050565b6114f2816114de565b82525050565b5f61ffff82169050919050565b61150e816114f8565b82525050565b5f63ffffffff82169050919050565b61152c81611514565b82525050565b5f610180820190506115465f83018f611405565b8181036020830152611558818e61144c565b9050611567604083018d611405565b8181036060830152611579818c61144c565b9050611588608083018b611405565b61159560a083018a611490565b6115a260c0830189611405565b81810360e08301526115b4818861144c565b90506115c46101008301876114cf565b6115d26101208301866114e9565b6115e0610140830185611505565b6115ee610160830184611523565b9d9c50505050505050505050505050565b611608816114be565b8114611612575f5ffd5b50565b5f81359050611623816115ff565b92915050565b5f5f6040838503121561163f5761163e61139f565b5b5f61164c858286016113c6565b925050602061165d85828601611615565b9150509250929050565b5f60208201905061167a5f8301846114e9565b92915050565b611689816113a7565b82525050565b5f82825260208201905092915050565b5f6116a982611414565b6116b3818561168f565b93506116c381856020860161142e565b6116cc8161143c565b840191505092915050565b6116e081611484565b82525050565b6116ef816114be565b82525050565b6116fe816114de565b82525050565b61170d816114f8565b82525050565b61171c81611514565b82525050565b5f61018083015f8301516117385f860182611680565b5060208301518482036020860152611750828261169f565b91505060408301516117656040860182611680565b506060830151848203606086015261177d828261169f565b91505060808301516117926080860182611680565b5060a08301516117a560a08601826116d7565b5060c08301516117b860c0860182611680565b5060e083015184820360e08601526117d0828261169f565b9150506101008301516117e76101008601826116e6565b506101208301516117fc6101208601826116f5565b50610140830151611811610140860182611704565b50610160830151611826610160860182611713565b508091505092915050565b5f6020820190508181035f8301526118498184611722565b905092915050565b5f6020820190506118645f8301846114cf565b92915050565b5f5ffd5b5f5ffd5b7f4e487b71000000000000000000000000000000000000000000000000000000005f52604160045260245ffd5b6118a88261143c565b810181811067ffffffffffffffff821117156118c7576118c6611872565b5b80604052505050565b5f6118d9611396565b90506118e5828261189f565b919050565b5f67ffffffffffffffff82111561190457611903611872565b5b61190d8261143c565b9050602081019050919050565b828183375f83830152505050565b5f61193a611935846118ea565b6118d0565b9050828152602081018484840111156119565761195561186e565b5b61196184828561191a565b509392505050565b5f82601f83011261197d5761197c61186a565b5b813561198d848260208601611928565b91505092915050565b61199f81611484565b81146119a9575f5ffd5b50565b5f813590506119ba81611996565b92915050565b6119c9816114f8565b81146119d3575f5ffd5b50565b5f813590506119e4816119c0565b92915050565b6119f381611514565b81146119fd575f5ffd5b50565b5f81359050611a0e816119ea565b92915050565b5f5f5f5f5f5f5f5f5f6101208a8c031215611a3257611a3161139f565b5b5f8a013567ffffffffffffffff811115611a4f57611a4e6113a3565b5b611a5b8c828d01611969565b9950506020611a6c8c828d016113c6565b98505060408a013567ffffffffffffffff811115611a8d57611a8c6113a3565b5b611a998c828d01611969565b9750506060611aaa8c828d016113c6565b9650506080611abb8c828d016119ac565b95505060a0611acc8c828d016113c6565b94505060c08a013567ffffffffffffffff811115611aed57611aec6113a3565b5b611af98c828d01611969565b93505060e0611b0a8c828d016119d6565b925050610100611b1c8c828d01611a00565b9150509295985092959850929598565b5f602082019050611b3f5f830184611405565b92915050565b611b4e816114de565b8114611b58575f5ffd5b50565b5f81359050611b6981611b45565b92915050565b5f5f5f60608486031215611b8657611b8561139f565b5b5f611b93868287016113c6565b9350506020611ba486828701611615565b9250506040611bb586828701611b5b565b9150509250925092565b5f60208284031215611bd457611bd361139f565b5b5f611be184828501611615565b91505092915050565b5f5f60408385031215611c0057611bff61139f565b5b5f611c0d858286016113c6565b9250506020611c1e85828601611b5b565b9150509250929050565b7f4e487b71000000000000000000000000000000000000000000000000000000005f52602260045260245ffd5b5f6002820490506001821680611c6c57607f821691505b602082108103611c7f57611c7e611c28565b5b50919050565b7f4e6f6d627265206f626c696761746f72696f00000000000000000000000000005f82015250565b5f611cb960128361141e565b9150611cc482611c85565b602082019050919050565b5f6020820190508181035f830152611ce681611cad565b9050919050565b7f50726563696f2062617365203e203000000000000000000000000000000000005f82015250565b5f611d21600f8361141e565b9150611d2c82611ced565b602082019050919050565b5f6020820190508181035f830152611d4e81611d15565b9050919050565b7f546f74616c207469636b657473203e20300000000000000000000000000000005f82015250565b5f611d8960118361141e565b9150611d9482611d55565b602082019050919050565b5f6020820190508181035f830152611db681611d7d565b9050919050565b7f466163746f7220646520726576656e7461206d696e696d6f20313030250000005f82015250565b5f611df1601d8361141e565b9150611dfc82611dbd565b602082019050919050565b5f6020820190508181035f830152611e1e81611de5565b9050919050565b7f4c696d69746520706f722063617274657261203e20746f74616c0000000000005f82015250565b5f611e59601a8361141e565b9150611e6482611e25565b602082019050919050565b5f6020820190508181035f830152611e8681611e4d565b9050919050565b7f4e487b71000000000000000000000000000000000000000000000000000000005f52601160045260245ffd5b5f611ec4826113a7565b91507fffffffffffffffffffffffffffffffffffffffffffffffffffffffffffffffff8203611ef657611ef5611e8d565b5b600182019050919050565b5f819050815f5260205f209050919050565b5f6020601f8301049050919050565b5f82821b905092915050565b5f60088302611f5d7fffffffffffffffffffffffffffffffffffffffffffffffffffffffffffffffff82611f22565b611f678683611f22565b95508019841693508086168417925050509392505050565b5f819050919050565b5f611fa2611f9d611f98846113a7565b611f7f565b6113a7565b9050919050565b5f819050919050565b611fbb83611f88565b611fcf611fc782611fa9565b848454611f2e565b825550505050565b5f5f905090565b611fe6611fd7565b611ff1818484611fb2565b505050565b5b81811015612014576120095f82611fde565b600181019050611ff7565b5050565b601f8211156120595761202a81611f01565b61203384611f13565b81016020851015612042578190505b61205661204e85611f13565b830182611ff6565b50505b505050565b5f82821c905092915050565b5f6120795f198460080261205e565b1980831691505092915050565b5f612091838361206a565b9150826002028217905092915050565b6120aa82611414565b67ffffffffffffffff8111156120c3576120c2611872565b5b6120cd8254611c55565b6120d8828285612018565b5f60209050601f831160018114612109575f84156120f7578287015190505b6121018582612086565b865550612168565b601f19841661211786611f01565b5f5b8281101561213e57848901518255600182019150602085019450602081019050612119565b8683101561215b5784890151612157601f89168261206a565b8355505b6001600288020188555050505b505050505050565b5f610120820190508181035f830152612189818c61144c565b9050612198602083018b611405565b81810360408301526121aa818a61144c565b90506121b96060830189611405565b6121c66080830188611490565b6121d360a0830187611405565b81810360c08301526121e5818661144c565b90506121f460e0830185611505565b612202610100830184611523565b9a9950505050505050505050565b7f4576656e746f20696e6578697374656e746500000000000000000000000000005f82015250565b5f61224460128361141e565b915061224f82612210565b602082019050919050565b5f6020820190508181035f83015261227181612238565b9050919050565b7f536f6c6f206f7267616e697a65722075206f776e6572000000000000000000005f82015250565b5f6122ac60168361141e565b91506122b782612278565b602082019050919050565b5f6020820190508181035f8301526122d9816122a0565b9050919050565b7f56616c696461646f72206e6f2076616c69646f000000000000000000000000005f82015250565b5f61231460138361141e565b915061231f826122e0565b602082019050919050565b5f6020820190508181035f83015261234181612308565b905091905056fea26469706673582212206a0ca354e1ece1ed6592642298888125f11ddc337e3b27c4b1a64b30c85013ce64736f6c634300081e0033",
			"opcodes": "PUSH1 0x80 PUSH1 0x40 MSTORE CALLVALUE DUP1 ISZERO PUSH2 0xF JUMPI PUSH0 PUSH0 REVERT JUMPDEST POP PUSH1 0x40 MLOAD PUSH2 0x25B5 CODESIZE SUB DUP1 PUSH2 0x25B5 DUP4 CODECOPY DUP2 DUP2 ADD PUSH1 0x40 MSTORE DUP2 ADD SWAP1 PUSH2 0x31 SWAP2 SWAP1 PUSH2 0x1D7 JUMP JUMPDEST DUP1 PUSH0 PUSH20 0xFFFFFFFFFFFFFFFFFFFFFFFFFFFFFFFFFFFFFFFF AND DUP2 PUSH20 0xFFFFFFFFFFFFFFFFFFFFFFFFFFFFFFFFFFFFFFFF AND SUB PUSH2 0xA2 JUMPI PUSH0 PUSH1 0x40 MLOAD PUSH32 0x1E4FBDF700000000000000000000000000000000000000000000000000000000 DUP2 MSTORE PUSH1 0x4 ADD PUSH2 0x99 SWAP2 SWAP1 PUSH2 0x211 JUMP JUMPDEST PUSH1 0x40 MLOAD DUP1 SWAP2 SUB SWAP1 REVERT JUMPDEST PUSH2 0xB1 DUP2 PUSH2 0xB8 PUSH1 0x20 SHL PUSH1 0x20 SHR JUMP JUMPDEST POP POP PUSH2 0x22A JUMP JUMPDEST PUSH0 PUSH0 PUSH0 SWAP1 SLOAD SWAP1 PUSH2 0x100 EXP SWAP1 DIV PUSH20 0xFFFFFFFFFFFFFFFFFFFFFFFFFFFFFFFFFFFFFFFF AND SWAP1 POP DUP2 PUSH0 PUSH0 PUSH2 0x100 EXP DUP2 SLOAD DUP2 PUSH20 0xFFFFFFFFFFFFFFFFFFFFFFFFFFFFFFFFFFFFFFFF MUL NOT AND SWAP1 DUP4 PUSH20 0xFFFFFFFFFFFFFFFFFFFFFFFFFFFFFFFFFFFFFFFF AND MUL OR SWAP1 SSTORE POP DUP2 PUSH20 0xFFFFFFFFFFFFFFFFFFFFFFFFFFFFFFFFFFFFFFFF AND DUP2 PUSH20 0xFFFFFFFFFFFFFFFFFFFFFFFFFFFFFFFFFFFFFFFF AND PUSH32 0x8BE0079C531659141344CD1FD0A4F28419497F9722A3DAAFE3B4186F6B6457E0 PUSH1 0x40 MLOAD PUSH1 0x40 MLOAD DUP1 SWAP2 SUB SWAP1 LOG3 POP POP JUMP JUMPDEST PUSH0 PUSH0 REVERT JUMPDEST PUSH0 PUSH20 0xFFFFFFFFFFFFFFFFFFFFFFFFFFFFFFFFFFFFFFFF DUP3 AND SWAP1 POP SWAP2 SWAP1 POP JUMP JUMPDEST PUSH0 PUSH2 0x1A6 DUP3 PUSH2 0x17D JUMP JUMPDEST SWAP1 POP SWAP2 SWAP1 POP JUMP JUMPDEST PUSH2 0x1B6 DUP2 PUSH2 0x19C JUMP JUMPDEST DUP2 EQ PUSH2 0x1C0 JUMPI PUSH0 PUSH0 REVERT JUMPDEST POP JUMP JUMPDEST PUSH0 DUP2 MLOAD SWAP1 POP PUSH2 0x1D1 DUP2 PUSH2 0x1AD JUMP JUMPDEST SWAP3 SWAP2 POP POP JUMP JUMPDEST PUSH0 PUSH1 0x20 DUP3 DUP5 SUB SLT ISZERO PUSH2 0x1EC JUMPI PUSH2 0x1EB PUSH2 0x179 JUMP JUMPDEST JUMPDEST PUSH0 PUSH2 0x1F9 DUP5 DUP3 DUP6 ADD PUSH2 0x1C3 JUMP JUMPDEST SWAP2 POP POP SWAP3 SWAP2 POP POP JUMP JUMPDEST PUSH2 0x20B DUP2 PUSH2 0x19C JUMP JUMPDEST DUP3 MSTORE POP POP JUMP JUMPDEST PUSH0 PUSH1 0x20 DUP3 ADD SWAP1 POP PUSH2 0x224 PUSH0 DUP4 ADD DUP5 PUSH2 0x202 JUMP JUMPDEST SWAP3 SWAP2 POP POP JUMP JUMPDEST PUSH2 0x237E DUP1 PUSH2 0x237 PUSH0 CODECOPY PUSH0 RETURN INVALID PUSH1 0x80 PUSH1 0x40 MSTORE CALLVALUE DUP1 ISZERO PUSH2 0xF JUMPI PUSH0 PUSH0 REVERT JUMPDEST POP PUSH1 0x4 CALLDATASIZE LT PUSH2 0xA7 JUMPI PUSH0 CALLDATALOAD PUSH1 0xE0 SHR DUP1 PUSH4 0x98E4920E GT PUSH2 0x6F JUMPI DUP1 PUSH4 0x98E4920E EQ PUSH2 0x16E JUMPI DUP1 PUSH4 0x995D1C04 EQ PUSH2 0x19E JUMPI DUP1 PUSH4 0x9F9D903A EQ PUSH2 0x1CE JUMPI DUP1 PUSH4 0xCF347E17 EQ PUSH2 0x1EC JUMPI DUP1 PUSH4 0xF2FDE38B EQ PUSH2 0x208 JUMPI DUP1 PUSH4 0xFABE5A14 EQ PUSH2 0x224 JUMPI PUSH2 0xA7 JUMP JUMPDEST DUP1 PUSH4 0xB791430 EQ PUSH2 0xAB JUMPI DUP1 PUSH4 0x23F2A73F EQ PUSH2 0xE6 JUMPI DUP1 PUSH4 0x6D1884E0 EQ PUSH2 0x116 JUMPI DUP1 PUSH4 0x715018A6 EQ PUSH2 0x146 JUMPI DUP1 PUSH4 0x8DA5CB5B EQ PUSH2 0x150 JUMPI JUMPDEST PUSH0 PUSH0 REVERT JUMPDEST PUSH2 0xC5 PUSH1 0x4 DUP1 CALLDATASIZE SUB DUP2 ADD SWAP1 PUSH2 0xC0 SWAP2 SWAP1 PUSH2 0x13DA JUMP JUMPDEST PUSH2 0x240 JUMP JUMPDEST PUSH1 0x40 MLOAD PUSH2 0xDD SWAP13 SWAP12 SWAP11 SWAP10 SWAP9 SWAP8 SWAP7 SWAP6 SWAP5 SWAP4 SWAP3 SWAP2 SWAP1 PUSH2 0x1532 JUMP JUMPDEST PUSH1 0x40 MLOAD DUP1 SWAP2 SUB SWAP1 RETURN JUMPDEST PUSH2 0x100 PUSH1 0x4 DUP1 CALLDATASIZE SUB DUP2 ADD SWAP1 PUSH2 0xFB SWAP2 SWAP1 PUSH2 0x1629 JUMP JUMPDEST PUSH2 0x484 JUMP JUMPDEST PUSH1 0x40 MLOAD PUSH2 0x10D SWAP2 SWAP1 PUSH2 0x1667 JUMP JUMPDEST PUSH1 0x40 MLOAD DUP1 SWAP2 SUB SWAP1 RETURN JUMPDEST PUSH2 0x130 PUSH1 0x4 DUP1 CALLDATASIZE SUB DUP2 ADD SWAP1 PUSH2 0x12B SWAP2 SWAP1 PUSH2 0x13DA JUMP JUMPDEST PUSH2 0x4E6 JUMP JUMPDEST PUSH1 0x40 MLOAD PUSH2 0x13D SWAP2 SWAP1 PUSH2 0x1831 JUMP JUMPDEST PUSH1 0x40 MLOAD DUP1 SWAP2 SUB SWAP1 RETURN JUMPDEST PUSH2 0x14E PUSH2 0x7BB JUMP JUMPDEST STOP JUMPDEST PUSH2 0x158 PUSH2 0x7CE JUMP JUMPDEST PUSH1 0x40 MLOAD PUSH2 0x165 SWAP2 SWAP1 PUSH2 0x1851 JUMP JUMPDEST PUSH1 0x40 MLOAD DUP1 SWAP2 SUB SWAP1 RETURN JUMPDEST PUSH2 0x188 PUSH1 0x4 DUP1 CALLDATASIZE SUB DUP2 ADD SWAP1 PUSH2 0x183 SWAP2 SWAP1 PUSH2 0x1629 JUMP JUMPDEST PUSH2 0x7F5 JUMP JUMPDEST PUSH1 0x40 MLOAD PUSH2 0x195 SWAP2 SWAP1 PUSH2 0x1667 JUMP JUMPDEST PUSH1 0x40 MLOAD DUP1 SWAP2 SUB SWAP1 RETURN JUMPDEST PUSH2 0x1B8 PUSH1 0x4 DUP1 CALLDATASIZE SUB DUP2 ADD SWAP1 PUSH2 0x1B3 SWAP2 SWAP1 PUSH2 0x1A14 JUMP JUMPDEST PUSH2 0x92C JUMP JUMPDEST PUSH1 0x40 MLOAD PUSH2 0x1C5 SWAP2 SWAP1 PUSH2 0x1B2C JUMP JUMPDEST PUSH1 0x40 MLOAD DUP1 SWAP2 SUB SWAP1 RETURN JUMPDEST PUSH2 0x1D6 PUSH2 0xCDB JUMP JUMPDEST PUSH1 0x40 MLOAD PUSH2 0x1E3 SWAP2 SWAP1 PUSH2 0x1B2C JUMP JUMPDEST PUSH1 0x40 MLOAD DUP1 SWAP2 SUB SWAP1 RETURN JUMPDEST PUSH2 0x206 PUSH1 0x4 DUP1 CALLDATASIZE SUB DUP2 ADD SWAP1 PUSH2 0x201 SWAP2 SWAP1 PUSH2 0x1B6F JUMP JUMPDEST PUSH2 0xCE1 JUMP JUMPDEST STOP JUMPDEST PUSH2 0x222 PUSH1 0x4 DUP1 CALLDATASIZE SUB DUP2 ADD SWAP1 PUSH2 0x21D SWAP2 SWAP1 PUSH2 0x1BBF JUMP JUMPDEST PUSH2 0xF7A JUMP JUMPDEST STOP JUMPDEST PUSH2 0x23E PUSH1 0x4 DUP1 CALLDATASIZE SUB DUP2 ADD SWAP1 PUSH2 0x239 SWAP2 SWAP1 PUSH2 0x1BEA JUMP JUMPDEST PUSH2 0xFFE JUMP JUMPDEST STOP JUMPDEST PUSH1 0x2 PUSH1 0x20 MSTORE DUP1 PUSH0 MSTORE PUSH1 0x40 PUSH0 KECCAK256 PUSH0 SWAP2 POP SWAP1 POP DUP1 PUSH0 ADD SLOAD SWAP1 DUP1 PUSH1 0x1 ADD DUP1 SLOAD PUSH2 0x265 SWAP1 PUSH2 0x1C55 JUMP JUMPDEST DUP1 PUSH1 0x1F ADD PUSH1 0x20 DUP1 SWAP2 DIV MUL PUSH1 0x20 ADD PUSH1 0x40 MLOAD SWAP1 DUP2 ADD PUSH1 0x40 MSTORE DUP1 SWAP3 SWAP2 SWAP1 DUP2 DUP2 MSTORE PUSH1 0x20 ADD DUP3 DUP1 SLOAD PUSH2 0x291 SWAP1 PUSH2 0x1C55 JUMP JUMPDEST DUP1 ISZERO PUSH2 0x2DC JUMPI DUP1 PUSH1 0x1F LT PUSH2 0x2B3 JUMPI PUSH2 0x100 DUP1 DUP4 SLOAD DIV MUL DUP4 MSTORE SWAP2 PUSH1 0x20 ADD SWAP2 PUSH2 0x2DC JUMP JUMPDEST DUP3 ADD SWAP2 SWAP1 PUSH0 MSTORE PUSH1 0x20 PUSH0 KECCAK256 SWAP1 JUMPDEST DUP2 SLOAD DUP2 MSTORE SWAP1 PUSH1 0x1 ADD SWAP1 PUSH1 0x20 ADD DUP1 DUP4 GT PUSH2 0x2BF JUMPI DUP3 SWAP1 SUB PUSH1 0x1F AND DUP3 ADD SWAP2 JUMPDEST POP POP POP POP POP SWAP1 DUP1 PUSH1 0x2 ADD SLOAD SWAP1 DUP1 PUSH1 0x3 ADD DUP1 SLOAD PUSH2 0x2F7 SWAP1 PUSH2 0x1C55 JUMP JUMPDEST DUP1 PUSH1 0x1F ADD PUSH1 0x20 DUP1 SWAP2 DIV MUL PUSH1 0x20 ADD PUSH1 0x40 MLOAD SWAP1 DUP2 ADD PUSH1 0x40 MSTORE DUP1 SWAP3 SWAP2 SWAP1 DUP2 DUP2 MSTORE PUSH1 0x20 ADD DUP3 DUP1 SLOAD PUSH2 0x323 SWAP1 PUSH2 0x1C55 JUMP JUMPDEST DUP1 ISZERO PUSH2 0x36E JUMPI DUP1 PUSH1 0x1F LT PUSH2 0x345 JUMPI PUSH2 0x100 DUP1 DUP4 SLOAD DIV MUL DUP4 MSTORE SWAP2 PUSH1 0x20 ADD SWAP2 PUSH2 0x36E JUMP JUMPDEST DUP3 ADD SWAP2 SWAP1 PUSH0 MSTORE PUSH1 0x20 PUSH0 KECCAK256 SWAP1 JUMPDEST DUP2 SLOAD DUP2 MSTORE SWAP1 PUSH1 0x1 ADD SWAP1 PUSH1 0x20 ADD DUP1 DUP4 GT PUSH2 0x351 JUMPI DUP3 SWAP1 SUB PUSH1 0x1F AND DUP3 ADD SWAP2 JUMPDEST POP POP POP POP POP SWAP1 DUP1 PUSH1 0x4 ADD SLOAD SWAP1 DUP1 PUSH1 0x5 ADD PUSH0 SWAP1 SLOAD SWAP1 PUSH2 0x100 EXP SWAP1 DIV PUSH1 0xFF AND SWAP1 DUP1 PUSH1 0x6 ADD SLOAD SWAP1 DUP1 PUSH1 0x7 ADD DUP1 SLOAD PUSH2 0x3A1 SWAP1 PUSH2 0x1C55 JUMP JUMPDEST DUP1 PUSH1 0x1F ADD PUSH1 0x20 DUP1 SWAP2 DIV MUL PUSH1 0x20 ADD PUSH1 0x40 MLOAD SWAP1 DUP2 ADD PUSH1 0x40 MSTORE DUP1 SWAP3 SWAP2 SWAP1 DUP2 DUP2 MSTORE PUSH1 0x20 ADD DUP3 DUP1 SLOAD PUSH2 0x3CD SWAP1 PUSH2 0x1C55 JUMP JUMPDEST DUP1 ISZERO PUSH2 0x418 JUMPI DUP1 PUSH1 0x1F LT PUSH2 0x3EF JUMPI PUSH2 0x100 DUP1 DUP4 SLOAD DIV MUL DUP4 MSTORE SWAP2 PUSH1 0x20 ADD SWAP2 PUSH2 0x418 JUMP JUMPDEST DUP3 ADD SWAP2 SWAP1 PUSH0 MSTORE PUSH1 0x20 PUSH0 KECCAK256 SWAP1 JUMPDEST DUP2 SLOAD DUP2 MSTORE SWAP1 PUSH1 0x1 ADD SWAP1 PUSH1 0x20 ADD DUP1 DUP4 GT PUSH2 0x3FB JUMPI DUP3 SWAP1 SUB PUSH1 0x1F AND DUP3 ADD SWAP2 JUMPDEST POP POP POP POP POP SWAP1 DUP1 PUSH1 0x8 ADD PUSH0 SWAP1 SLOAD SWAP1 PUSH2 0x100 EXP SWAP1 DIV PUSH20 0xFFFFFFFFFFFFFFFFFFFFFFFFFFFFFFFFFFFFFFFF AND SWAP1 DUP1 PUSH1 0x8 ADD PUSH1 0x14 SWAP1 SLOAD SWAP1 PUSH2 0x100 EXP SWAP1 DIV PUSH1 0xFF AND SWAP1 DUP1 PUSH1 0x8 ADD PUSH1 0x15 SWAP1 SLOAD SWAP1 PUSH2 0x100 EXP SWAP1 DIV PUSH2 0xFFFF AND SWAP1 DUP1 PUSH1 0x8 ADD PUSH1 0x17 SWAP1 SLOAD SWAP1 PUSH2 0x100 EXP SWAP1 DIV PUSH4 0xFFFFFFFF AND SWAP1 POP DUP13 JUMP JUMPDEST PUSH0 PUSH1 0x3 PUSH0 DUP5 DUP2 MSTORE PUSH1 0x20 ADD SWAP1 DUP2 MSTORE PUSH1 0x20 ADD PUSH0 KECCAK256 PUSH0 DUP4 PUSH20 0xFFFFFFFFFFFFFFFFFFFFFFFFFFFFFFFFFFFFFFFF AND PUSH20 0xFFFFFFFFFFFFFFFFFFFFFFFFFFFFFFFFFFFFFFFF AND DUP2 MSTORE PUSH1 0x20 ADD SWAP1 DUP2 MSTORE PUSH1 0x20 ADD PUSH0 KECCAK256 PUSH0 SWAP1 SLOAD SWAP1 PUSH2 0x100 EXP SWAP1 DIV PUSH1 0xFF AND SWAP1 POP SWAP3 SWAP2 POP POP JUMP JUMPDEST PUSH2 0x4EE PUSH2 0x1319 JUMP JUMPDEST PUSH1 0x2 PUSH0 DUP4 DUP2 MSTORE PUSH1 0x20 ADD SWAP1 DUP2 MSTORE PUSH1 0x20 ADD PUSH0 KECCAK256 PUSH1 0x40 MLOAD DUP1 PUSH2 0x180 ADD PUSH1 0x40 MSTORE SWAP1 DUP2 PUSH0 DUP3 ADD SLOAD DUP2 MSTORE PUSH1 0x20 ADD PUSH1 0x1 DUP3 ADD DUP1 SLOAD PUSH2 0x524 SWAP1 PUSH2 0x1C55 JUMP JUMPDEST DUP1 PUSH1 0x1F ADD PUSH1 0x20 DUP1 SWAP2 DIV MUL PUSH1 0x20 ADD PUSH1 0x40 MLOAD SWAP1 DUP2 ADD PUSH1 0x40 MSTORE DUP1 SWAP3 SWAP2 SWAP1 DUP2 DUP2 MSTORE PUSH1 0x20 ADD DUP3 DUP1 SLOAD PUSH2 0x550 SWAP1 PUSH2 0x1C55 JUMP JUMPDEST DUP1 ISZERO PUSH2 0x59B JUMPI DUP1 PUSH1 0x1F LT PUSH2 0x572 JUMPI PUSH2 0x100 DUP1 DUP4 SLOAD DIV MUL DUP4 MSTORE SWAP2 PUSH1 0x20 ADD SWAP2 PUSH2 0x59B JUMP JUMPDEST DUP3 ADD SWAP2 SWAP1 PUSH0 MSTORE PUSH1 0x20 PUSH0 KECCAK256 SWAP1 JUMPDEST DUP2 SLOAD DUP2 MSTORE SWAP1 PUSH1 0x1 ADD SWAP1 PUSH1 0x20 ADD DUP1 DUP4 GT PUSH2 0x57E JUMPI DUP3 SWAP1 SUB PUSH1 0x1F AND DUP3 ADD SWAP2 JUMPDEST POP POP POP POP POP DUP2 MSTORE PUSH1 0x20 ADD PUSH1 0x2 DUP3 ADD SLOAD DUP2 MSTORE PUSH1 0x20 ADD PUSH1 0x3 DUP3 ADD DUP1 SLOAD PUSH2 0x5BE SWAP1 PUSH2 0x1C55 JUMP JUMPDEST DUP1 PUSH1 0x1F ADD PUSH1 0x20 DUP1 SWAP2 DIV MUL PUSH1 0x20 ADD PUSH1 0x40 MLOAD SWAP1 DUP2 ADD PUSH1 0x40 MSTORE DUP1 SWAP3 SWAP2 SWAP1 DUP2 DUP2 MSTORE PUSH1 0x20 ADD DUP3 DUP1 SLOAD PUSH2 0x5EA SWAP1 PUSH2 0x1C55 JUMP JUMPDEST DUP1 ISZERO PUSH2 0x635 JUMPI DUP1 PUSH1 0x1F LT PUSH2 0x60C JUMPI PUSH2 0x100 DUP1 DUP4 SLOAD DIV MUL DUP4 MSTORE SWAP2 PUSH1 0x20 ADD SWAP2 PUSH2 0x635 JUMP JUMPDEST DUP3 ADD SWAP2 SWAP1 PUSH0 MSTORE PUSH1 0x20 PUSH0 KECCAK256 SWAP1 JUMPDEST DUP2 SLOAD DUP2 MSTORE SWAP1 PUSH1 0x1 ADD SWAP1 PUSH1 0x20 ADD DUP1 DUP4 GT PUSH2 0x618 JUMPI DUP3 SWAP1 SUB PUSH1 0x1F AND DUP3 ADD SWAP2 JUMPDEST POP POP POP POP POP DUP2 MSTORE PUSH1 0x20 ADD PUSH1 0x4 DUP3 ADD SLOAD DUP2 MSTORE PUSH1 0x20 ADD PUSH1 0x5 DUP3 ADD PUSH0 SWAP1 SLOAD SWAP1 PUSH2 0x100 EXP SWAP1 DIV PUSH1 0xFF AND PUSH1 0xFF AND PUSH1 0xFF AND DUP2 MSTORE PUSH1 0x20 ADD PUSH1 0x6 DUP3 ADD SLOAD DUP2 MSTORE PUSH1 0x20 ADD PUSH1 0x7 DUP3 ADD DUP1 SLOAD PUSH2 0x67E SWAP1 PUSH2 0x1C55 JUMP JUMPDEST DUP1 PUSH1 0x1F ADD PUSH1 0x20 DUP1 SWAP2 DIV MUL PUSH1 0x20 ADD PUSH1 0x40 MLOAD SWAP1 DUP2 ADD PUSH1 0x40 MSTORE DUP1 SWAP3 SWAP2 SWAP1 DUP2 DUP2 MSTORE PUSH1 0x20 ADD DUP3 DUP1 SLOAD PUSH2 0x6AA SWAP1 PUSH2 0x1C55 JUMP JUMPDEST DUP1 ISZERO PUSH2 0x6F5 JUMPI DUP1 PUSH1 0x1F LT PUSH2 0x6CC JUMPI PUSH2 0x100 DUP1 DUP4 SLOAD DIV MUL DUP4 MSTORE SWAP2 PUSH1 0x20 ADD SWAP2 PUSH2 0x6F5 JUMP JUMPDEST DUP3 ADD SWAP2 SWAP1 PUSH0 MSTORE PUSH1 0x20 PUSH0 KECCAK256 SWAP1 JUMPDEST DUP2 SLOAD DUP2 MSTORE SWAP1 PUSH1 0x1 ADD SWAP1 PUSH1 0x20 ADD DUP1 DUP4 GT PUSH2 0x6D8 JUMPI DUP3 SWAP1 SUB PUSH1 0x1F AND DUP3 ADD SWAP2 JUMPDEST POP POP POP POP POP DUP2 MSTORE PUSH1 0x20 ADD PUSH1 0x8 DUP3 ADD PUSH0 SWAP1 SLOAD SWAP1 PUSH2 0x100 EXP SWAP1 DIV PUSH20 0xFFFFFFFFFFFFFFFFFFFFFFFFFFFFFFFFFFFFFFFF AND PUSH20 0xFFFFFFFFFFFFFFFFFFFFFFFFFFFFFFFFFFFFFFFF AND PUSH20 0xFFFFFFFFFFFFFFFFFFFFFFFFFFFFFFFFFFFFFFFF AND DUP2 MSTORE PUSH1 0x20 ADD PUSH1 0x8 DUP3 ADD PUSH1 0x14 SWAP1 SLOAD SWAP1 PUSH2 0x100 EXP SWAP1 DIV PUSH1 0xFF AND ISZERO ISZERO ISZERO ISZERO DUP2 MSTORE PUSH1 0x20 ADD PUSH1 0x8 DUP3 ADD PUSH1 0x15 SWAP1 SLOAD SWAP1 PUSH2 0x100 EXP SWAP1 DIV PUSH2 0xFFFF AND PUSH2 0xFFFF AND PUSH2 0xFFFF AND DUP2 MSTORE PUSH1 0x20 ADD PUSH1 0x8 DUP3 ADD PUSH1 0x17 SWAP1 SLOAD SWAP1 PUSH2 0x100 EXP SWAP1 DIV PUSH4 0xFFFFFFFF AND PUSH4 0xFFFFFFFF AND PUSH4 0xFFFFFFFF AND DUP2 MSTORE POP POP SWAP1 POP SWAP2 SWAP1 POP JUMP JUMPDEST PUSH2 0x7C3 PUSH2 0x11CA JUMP JUMPDEST PUSH2 0x7CC PUSH0 PUSH2 0x1251 JUMP JUMPDEST JUMP JUMPDEST PUSH0 PUSH0 PUSH0 SWAP1 SLOAD SWAP1 PUSH2 0x100 EXP SWAP1 DIV PUSH20 0xFFFFFFFFFFFFFFFFFFFFFFFFFFFFFFFFFFFFFFFF AND SWAP1 POP SWAP1 JUMP JUMPDEST PUSH0 PUSH0 PUSH1 0x2 PUSH0 DUP6 DUP2 MSTORE PUSH1 0x20 ADD SWAP1 DUP2 MSTORE PUSH1 0x20 ADD PUSH0 KECCAK256 SWAP1 POP PUSH0 PUSH20 0xFFFFFFFFFFFFFFFFFFFFFFFFFFFFFFFFFFFFFFFF AND DUP2 PUSH1 0x8 ADD PUSH0 SWAP1 SLOAD SWAP1 PUSH2 0x100 EXP SWAP1 DIV PUSH20 0xFFFFFFFFFFFFFFFFFFFFFFFFFFFFFFFFFFFFFFFF AND PUSH20 0xFFFFFFFFFFFFFFFFFFFFFFFFFFFFFFFFFFFFFFFF AND SUB PUSH2 0x869 JUMPI PUSH0 SWAP2 POP POP PUSH2 0x926 JUMP JUMPDEST DUP1 PUSH1 0x8 ADD PUSH0 SWAP1 SLOAD SWAP1 PUSH2 0x100 EXP SWAP1 DIV PUSH20 0xFFFFFFFFFFFFFFFFFFFFFFFFFFFFFFFFFFFFFFFF AND PUSH20 0xFFFFFFFFFFFFFFFFFFFFFFFFFFFFFFFFFFFFFFFF AND DUP4 PUSH20 0xFFFFFFFFFFFFFFFFFFFFFFFFFFFFFFFFFFFFFFFF AND SUB PUSH2 0x8C9 JUMPI PUSH1 0x1 SWAP2 POP POP PUSH2 0x926 JUMP JUMPDEST PUSH1 0x3 PUSH0 DUP6 DUP2 MSTORE PUSH1 0x20 ADD SWAP1 DUP2 MSTORE PUSH1 0x20 ADD PUSH0 KECCAK256 PUSH0 DUP5 PUSH20 0xFFFFFFFFFFFFFFFFFFFFFFFFFFFFFFFFFFFFFFFF AND PUSH20 0xFFFFFFFFFFFFFFFFFFFFFFFFFFFFFFFFFFFFFFFF AND DUP2 MSTORE PUSH1 0x20 ADD SWAP1 DUP2 MSTORE PUSH1 0x20 ADD PUSH0 KECCAK256 PUSH0 SWAP1 SLOAD SWAP1 PUSH2 0x100 EXP SWAP1 DIV PUSH1 0xFF AND SWAP2 POP POP JUMPDEST SWAP3 SWAP2 POP POP JUMP JUMPDEST PUSH0 PUSH0 DUP11 MLOAD GT PUSH2 0x970 JUMPI PUSH1 0x40 MLOAD PUSH32 0x8C379A000000000000000000000000000000000000000000000000000000000 DUP2 MSTORE PUSH1 0x4 ADD PUSH2 0x967 SWAP1 PUSH2 0x1CCF JUMP JUMPDEST PUSH1 0x40 MLOAD DUP1 SWAP2 SUB SWAP1 REVERT JUMPDEST PUSH0 DUP8 GT PUSH2 0x9B2 JUMPI PUSH1 0x40 MLOAD PUSH32 0x8C379A000000000000000000000000000000000000000000000000000000000 DUP2 MSTORE PUSH1 0x4 ADD PUSH2 0x9A9 SWAP1 PUSH2 0x1D37 JUMP JUMPDEST PUSH1 0x40 MLOAD DUP1 SWAP2 SUB SWAP1 REVERT JUMPDEST PUSH0 DUP6 GT PUSH2 0x9F4 JUMPI PUSH1 0x40 MLOAD PUSH32 0x8C379A000000000000000000000000000000000000000000000000000000000 DUP2 MSTORE PUSH1 0x4 ADD PUSH2 0x9EB SWAP1 PUSH2 0x1D9F JUMP JUMPDEST PUSH1 0x40 MLOAD DUP1 SWAP2 SUB SWAP1 REVERT JUMPDEST PUSH1 0x64 DUP7 PUSH1 0xFF AND LT ISZERO PUSH2 0xA3B JUMPI PUSH1 0x40 MLOAD PUSH32 0x8C379A000000000000000000000000000000000000000000000000000000000 DUP2 MSTORE PUSH1 0x4 ADD PUSH2 0xA32 SWAP1 PUSH2 0x1E07 JUMP JUMPDEST PUSH1 0x40 MLOAD DUP1 SWAP2 SUB SWAP1 REVERT JUMPDEST PUSH0 DUP4 PUSH2 0xFFFF AND GT ISZERO PUSH2 0xA8F JUMPI DUP5 DUP4 PUSH2 0xFFFF AND GT ISZERO PUSH2 0xA8E JUMPI PUSH1 0x40 MLOAD PUSH32 0x8C379A000000000000000000000000000000000000000000000000000000000 DUP2 MSTORE PUSH1 0x4 ADD PUSH2 0xA85 SWAP1 PUSH2 0x1E6F JUMP JUMPDEST PUSH1 0x40 MLOAD DUP1 SWAP2 SUB SWAP1 REVERT JUMPDEST JUMPDEST PUSH1 0x1 PUSH0 DUP2 SLOAD DUP1 SWAP3 SWAP2 SWAP1 PUSH2 0xAA1 SWAP1 PUSH2 0x1EBA JUMP JUMPDEST SWAP2 SWAP1 POP SSTORE SWAP1 POP PUSH1 0x40 MLOAD DUP1 PUSH2 0x180 ADD PUSH1 0x40 MSTORE DUP1 DUP3 DUP2 MSTORE PUSH1 0x20 ADD DUP12 DUP2 MSTORE PUSH1 0x20 ADD DUP11 DUP2 MSTORE PUSH1 0x20 ADD DUP10 DUP2 MSTORE PUSH1 0x20 ADD DUP9 DUP2 MSTORE PUSH1 0x20 ADD DUP8 PUSH1 0xFF AND DUP2 MSTORE PUSH1 0x20 ADD DUP7 DUP2 MSTORE PUSH1 0x20 ADD DUP6 DUP2 MSTORE PUSH1 0x20 ADD CALLER PUSH20 0xFFFFFFFFFFFFFFFFFFFFFFFFFFFFFFFFFFFFFFFF AND DUP2 MSTORE PUSH1 0x20 ADD PUSH1 0x1 ISZERO ISZERO DUP2 MSTORE PUSH1 0x20 ADD DUP5 PUSH2 0xFFFF AND DUP2 MSTORE PUSH1 0x20 ADD DUP4 PUSH4 0xFFFFFFFF AND DUP2 MSTORE POP PUSH1 0x2 PUSH0 DUP4 DUP2 MSTORE PUSH1 0x20 ADD SWAP1 DUP2 MSTORE PUSH1 0x20 ADD PUSH0 KECCAK256 PUSH0 DUP3 ADD MLOAD DUP2 PUSH0 ADD SSTORE PUSH1 0x20 DUP3 ADD MLOAD DUP2 PUSH1 0x1 ADD SWAP1 DUP2 PUSH2 0xB4D SWAP2 SWAP1 PUSH2 0x20A1 JUMP JUMPDEST POP PUSH1 0x40 DUP3 ADD MLOAD DUP2 PUSH1 0x2 ADD SSTORE PUSH1 0x60 DUP3 ADD MLOAD DUP2 PUSH1 0x3 ADD SWAP1 DUP2 PUSH2 0xB6D SWAP2 SWAP1 PUSH2 0x20A1 JUMP JUMPDEST POP PUSH1 0x80 DUP3 ADD MLOAD DUP2 PUSH1 0x4 ADD SSTORE PUSH1 0xA0 DUP3 ADD MLOAD DUP2 PUSH1 0x5 ADD PUSH0 PUSH2 0x100 EXP DUP2 SLOAD DUP2 PUSH1 0xFF MUL NOT AND SWAP1 DUP4 PUSH1 0xFF AND MUL OR SWAP1 SSTORE POP PUSH1 0xC0 DUP3 ADD MLOAD DUP2 PUSH1 0x6 ADD SSTORE PUSH1 0xE0 DUP3 ADD MLOAD DUP2 PUSH1 0x7 ADD SWAP1 DUP2 PUSH2 0xBB7 SWAP2 SWAP1 PUSH2 0x20A1 JUMP JUMPDEST POP PUSH2 0x100 DUP3 ADD MLOAD DUP2 PUSH1 0x8 ADD PUSH0 PUSH2 0x100 EXP DUP2 SLOAD DUP2 PUSH20 0xFFFFFFFFFFFFFFFFFFFFFFFFFFFFFFFFFFFFFFFF MUL NOT AND SWAP1 DUP4 PUSH20 0xFFFFFFFFFFFFFFFFFFFFFFFFFFFFFFFFFFFFFFFF AND MUL OR SWAP1 SSTORE POP PUSH2 0x120 DUP3 ADD MLOAD DUP2 PUSH1 0x8 ADD PUSH1 0x14 PUSH2 0x100 EXP DUP2 SLOAD DUP2 PUSH1 0xFF MUL NOT AND SWAP1 DUP4 ISZERO ISZERO MUL OR SWAP1 SSTORE POP PUSH2 0x140 DUP3 ADD MLOAD DUP2 PUSH1 0x8 ADD PUSH1 0x15 PUSH2 0x100 EXP DUP2 SLOAD DUP2 PUSH2 0xFFFF MUL NOT AND SWAP1 DUP4 PUSH2 0xFFFF AND MUL OR SWAP1 SSTORE POP PUSH2 0x160 DUP3 ADD MLOAD DUP2 PUSH1 0x8 ADD PUSH1 0x17 PUSH2 0x100 EXP DUP2 SLOAD DUP2 PUSH4 0xFFFFFFFF MUL NOT AND SWAP1 DUP4 PUSH4 0xFFFFFFFF AND MUL OR SWAP1 SSTORE POP SWAP1 POP POP CALLER PUSH20 0xFFFFFFFFFFFFFFFFFFFFFFFFFFFFFFFFFFFFFFFF AND DUP2 PUSH32 0x57F21A1E75A2D022C09416C3A55598195FD4317433DAA05289D8C4DEB5ABD609 DUP13 DUP13 DUP13 DUP13 DUP13 DUP13 DUP13 DUP13 DUP13 PUSH1 0x40 MLOAD PUSH2 0xCC6 SWAP10 SWAP9 SWAP8 SWAP7 SWAP6 SWAP5 SWAP4 SWAP3 SWAP2 SWAP1 PUSH2 0x2170 JUMP JUMPDEST PUSH1 0x40 MLOAD DUP1 SWAP2 SUB SWAP1 LOG3 SWAP10 SWAP9 POP POP POP POP POP POP POP POP POP JUMP JUMPDEST PUSH1 0x1 SLOAD DUP2 JUMP JUMPDEST PUSH0 PUSH1 0x2 PUSH0 DUP6 DUP2 MSTORE PUSH1 0x20 ADD SWAP1 DUP2 MSTORE PUSH1 0x20 ADD PUSH0 KECCAK256 SWAP1 POP PUSH0 PUSH20 0xFFFFFFFFFFFFFFFFFFFFFFFFFFFFFFFFFFFFFFFF AND DUP2 PUSH1 0x8 ADD PUSH0 SWAP1 SLOAD SWAP1 PUSH2 0x100 EXP SWAP1 DIV PUSH20 0xFFFFFFFFFFFFFFFFFFFFFFFFFFFFFFFFFFFFFFFF AND PUSH20 0xFFFFFFFFFFFFFFFFFFFFFFFFFFFFFFFFFFFFFFFF AND SUB PUSH2 0xD86 JUMPI PUSH1 0x40 MLOAD PUSH32 0x8C379A000000000000000000000000000000000000000000000000000000000 DUP2 MSTORE PUSH1 0x4 ADD PUSH2 0xD7D SWAP1 PUSH2 0x225A JUMP JUMPDEST PUSH1 0x40 MLOAD DUP1 SWAP2 SUB SWAP1 REVERT JUMPDEST DUP1 PUSH1 0x8 ADD PUSH0 SWAP1 SLOAD SWAP1 PUSH2 0x100 EXP SWAP1 DIV PUSH20 0xFFFFFFFFFFFFFFFFFFFFFFFFFFFFFFFFFFFFFFFF AND PUSH20 0xFFFFFFFFFFFFFFFFFFFFFFFFFFFFFFFFFFFFFFFF AND CALLER PUSH20 0xFFFFFFFFFFFFFFFFFFFFFFFFFFFFFFFFFFFFFFFF AND EQ DUP1 PUSH2 0xE15 JUMPI POP PUSH2 0xDE6 PUSH2 0x7CE JUMP JUMPDEST PUSH20 0xFFFFFFFFFFFFFFFFFFFFFFFFFFFFFFFFFFFFFFFF AND CALLER PUSH20 0xFFFFFFFFFFFFFFFFFFFFFFFFFFFFFFFFFFFFFFFF AND EQ JUMPDEST PUSH2 0xE54 JUMPI PUSH1 0x40 MLOAD PUSH32 0x8C379A000000000000000000000000000000000000000000000000000000000 DUP2 MSTORE PUSH1 0x4 ADD PUSH2 0xE4B SWAP1 PUSH2 0x22C2 JUMP JUMPDEST PUSH1 0x40 MLOAD DUP1 SWAP2 SUB SWAP1 REVERT JUMPDEST PUSH0 PUSH20 0xFFFFFFFFFFFFFFFFFFFFFFFFFFFFFFFFFFFFFFFF AND DUP4 PUSH20 0xFFFFFFFFFFFFFFFFFFFFFFFFFFFFFFFFFFFFFFFF AND SUB PUSH2 0xEC2 JUMPI PUSH1 0x40 MLOAD PUSH32 0x8C379A000000000000000000000000000000000000000000000000000000000 DUP2 MSTORE PUSH1 0x4 ADD PUSH2 0xEB9 SWAP1 PUSH2 0x232A JUMP JUMPDEST PUSH1 0x40 MLOAD DUP1 SWAP2 SUB SWAP1 REVERT JUMPDEST DUP2 PUSH1 0x3 PUSH0 DUP7 DUP2 MSTORE PUSH1 0x20 ADD SWAP1 DUP2 MSTORE PUSH1 0x20 ADD PUSH0 KECCAK256 PUSH0 DUP6 PUSH20 0xFFFFFFFFFFFFFFFFFFFFFFFFFFFFFFFFFFFFFFFF AND PUSH20 0xFFFFFFFFFFFFFFFFFFFFFFFFFFFFFFFFFFFFFFFF AND DUP2 MSTORE PUSH1 0x20 ADD SWAP1 DUP2 MSTORE PUSH1 0x20 ADD PUSH0 KECCAK256 PUSH0 PUSH2 0x100 EXP DUP2 SLOAD DUP2 PUSH1 0xFF MUL NOT AND SWAP1 DUP4 ISZERO ISZERO MUL OR SWAP1 SSTORE POP DUP3 PUSH20 0xFFFFFFFFFFFFFFFFFFFFFFFFFFFFFFFFFFFFFFFF AND DUP5 PUSH32 0x1B9B7B3C38BDD9A9A83813BF3535F7F7844FCB7EC27DDEC0370893B799FE26EF DUP5 PUSH1 0x40 MLOAD PUSH2 0xF6C SWAP2 SWAP1 PUSH2 0x1667 JUMP JUMPDEST PUSH1 0x40 MLOAD DUP1 SWAP2 SUB SWAP1 LOG3 POP POP POP POP JUMP JUMPDEST PUSH2 0xF82 PUSH2 0x11CA JUMP JUMPDEST PUSH0 PUSH20 0xFFFFFFFFFFFFFFFFFFFFFFFFFFFFFFFFFFFFFFFF AND DUP2 PUSH20 0xFFFFFFFFFFFFFFFFFFFFFFFFFFFFFFFFFFFFFFFF AND SUB PUSH2 0xFF2 JUMPI PUSH0 PUSH1 0x40 MLOAD PUSH32 0x1E4FBDF700000000000000000000000000000000000000000000000000000000 DUP2 MSTORE PUSH1 0x4 ADD PUSH2 0xFE9 SWAP2 SWAP1 PUSH2 0x1851 JUMP JUMPDEST PUSH1 0x40 MLOAD DUP1 SWAP2 SUB SWAP1 REVERT JUMPDEST PUSH2 0xFFB DUP2 PUSH2 0x1251 JUMP JUMPDEST POP JUMP JUMPDEST PUSH0 PUSH1 0x2 PUSH0 DUP5 DUP2 MSTORE PUSH1 0x20 ADD SWAP1 DUP2 MSTORE PUSH1 0x20 ADD PUSH0 KECCAK256 SWAP1 POP PUSH0 PUSH20 0xFFFFFFFFFFFFFFFFFFFFFFFFFFFFFFFFFFFFFFFF AND DUP2 PUSH1 0x8 ADD PUSH0 SWAP1 SLOAD SWAP1 PUSH2 0x100 EXP SWAP1 DIV PUSH20 0xFFFFFFFFFFFFFFFFFFFFFFFFFFFFFFFFFFFFFFFF AND PUSH20 0xFFFFFFFFFFFFFFFFFFFFFFFFFFFFFFFFFFFFFFFF AND SUB PUSH2 0x10A3 JUMPI PUSH1 0x40 MLOAD PUSH32 0x8C379A000000000000000000000000000000000000000000000000000000000 DUP2 MSTORE PUSH1 0x4 ADD PUSH2 0x109A SWAP1 PUSH2 0x225A JUMP JUMPDEST PUSH1 0x40 MLOAD DUP1 SWAP2 SUB SWAP1 REVERT JUMPDEST DUP1 PUSH1 0x8 ADD PUSH0 SWAP1 SLOAD SWAP1 PUSH2 0x100 EXP SWAP1 DIV PUSH20 0xFFFFFFFFFFFFFFFFFFFFFFFFFFFFFFFFFFFFFFFF AND PUSH20 0xFFFFFFFFFFFFFFFFFFFFFFFFFFFFFFFFFFFFFFFF AND CALLER PUSH20 0xFFFFFFFFFFFFFFFFFFFFFFFFFFFFFFFFFFFFFFFF AND EQ DUP1 PUSH2 0x1132 JUMPI POP PUSH2 0x1103 PUSH2 0x7CE JUMP JUMPDEST PUSH20 0xFFFFFFFFFFFFFFFFFFFFFFFFFFFFFFFFFFFFFFFF AND CALLER PUSH20 0xFFFFFFFFFFFFFFFFFFFFFFFFFFFFFFFFFFFFFFFF AND EQ JUMPDEST PUSH2 0x1171 JUMPI PUSH1 0x40 MLOAD PUSH32 0x8C379A000000000000000000000000000000000000000000000000000000000 DUP2 MSTORE PUSH1 0x4 ADD PUSH2 0x1168 SWAP1 PUSH2 0x22C2 JUMP JUMPDEST PUSH1 0x40 MLOAD DUP1 SWAP2 SUB SWAP1 REVERT JUMPDEST DUP2 DUP2 PUSH1 0x8 ADD PUSH1 0x14 PUSH2 0x100 EXP DUP2 SLOAD DUP2 PUSH1 0xFF MUL NOT AND SWAP1 DUP4 ISZERO ISZERO MUL OR SWAP1 SSTORE POP DUP3 PUSH32 0x69A1D308F60EA7E097A1AC547A3A0776B9C2E05D34084CE48E044DF8F45E7CB2 DUP4 PUSH1 0x40 MLOAD PUSH2 0x11BD SWAP2 SWAP1 PUSH2 0x1667 JUMP JUMPDEST PUSH1 0x40 MLOAD DUP1 SWAP2 SUB SWAP1 LOG2 POP POP POP JUMP JUMPDEST PUSH2 0x11D2 PUSH2 0x1312 JUMP JUMPDEST PUSH20 0xFFFFFFFFFFFFFFFFFFFFFFFFFFFFFFFFFFFFFFFF AND PUSH2 0x11F0 PUSH2 0x7CE JUMP JUMPDEST PUSH20 0xFFFFFFFFFFFFFFFFFFFFFFFFFFFFFFFFFFFFFFFF AND EQ PUSH2 0x124F JUMPI PUSH2 0x1213 PUSH2 0x1312 JUMP JUMPDEST PUSH1 0x40 MLOAD PUSH32 0x118CDAA700000000000000000000000000000000000000000000000000000000 DUP2 MSTORE PUSH1 0x4 ADD PUSH2 0x1246 SWAP2 SWAP1 PUSH2 0x1851 JUMP JUMPDEST PUSH1 0x40 MLOAD DUP1 SWAP2 SUB SWAP1 REVERT JUMPDEST JUMP JUMPDEST PUSH0 PUSH0 PUSH0 SWAP1 SLOAD SWAP1 PUSH2 0x100 EXP SWAP1 DIV PUSH20 0xFFFFFFFFFFFFFFFFFFFFFFFFFFFFFFFFFFFFFFFF AND SWAP1 POP DUP2 PUSH0 PUSH0 PUSH2 0x100 EXP DUP2 SLOAD DUP2 PUSH20 0xFFFFFFFFFFFFFFFFFFFFFFFFFFFFFFFFFFFFFFFF MUL NOT AND SWAP1 DUP4 PUSH20 0xFFFFFFFFFFFFFFFFFFFFFFFFFFFFFFFFFFFFFFFF AND MUL OR SWAP1 SSTORE POP DUP2 PUSH20 0xFFFFFFFFFFFFFFFFFFFFFFFFFFFFFFFFFFFFFFFF AND DUP2 PUSH20 0xFFFFFFFFFFFFFFFFFFFFFFFFFFFFFFFFFFFFFFFF AND PUSH32 0x8BE0079C531659141344CD1FD0A4F28419497F9722A3DAAFE3B4186F6B6457E0 PUSH1 0x40 MLOAD PUSH1 0x40 MLOAD DUP1 SWAP2 SUB SWAP1 LOG3 POP POP JUMP JUMPDEST PUSH0 CALLER SWAP1 POP SWAP1 JUMP JUMPDEST PUSH1 0x40 MLOAD DUP1 PUSH2 0x180 ADD PUSH1 0x40 MSTORE DUP1 PUSH0 DUP2 MSTORE PUSH1 0x20 ADD PUSH1 0x60 DUP2 MSTORE PUSH1 0x20 ADD PUSH0 DUP2 MSTORE PUSH1 0x20 ADD PUSH1 0x60 DUP2 MSTORE PUSH1 0x20 ADD PUSH0 DUP2 MSTORE PUSH1 0x20 ADD PUSH0 PUSH1 0xFF AND DUP2 MSTORE PUSH1 0x20 ADD PUSH0 DUP2 MSTORE PUSH1 0x20 ADD PUSH1 0x60 DUP2 MSTORE PUSH1 0x20 ADD PUSH0 PUSH20 0xFFFFFFFFFFFFFFFFFFFFFFFFFFFFFFFFFFFFFFFF AND DUP2 MSTORE PUSH1 0x20 ADD PUSH0 ISZERO ISZERO DUP2 MSTORE PUSH1 0x20 ADD PUSH0 PUSH2 0xFFFF AND DUP2 MSTORE PUSH1 0x20 ADD PUSH0 PUSH4 0xFFFFFFFF AND DUP2 MSTORE POP SWAP1 JUMP JUMPDEST PUSH0 PUSH1 0x40 MLOAD SWAP1 POP SWAP1 JUMP JUMPDEST PUSH0 PUSH0 REVERT JUMPDEST PUSH0 PUSH0 REVERT JUMPDEST PUSH0 DUP2 SWAP1 POP SWAP2 SWAP1 POP JUMP JUMPDEST PUSH2 0x13B9 DUP2 PUSH2 0x13A7 JUMP JUMPDEST DUP2 EQ PUSH2 0x13C3 JUMPI PUSH0 PUSH0 REVERT JUMPDEST POP JUMP JUMPDEST PUSH0 DUP2 CALLDATALOAD SWAP1 POP PUSH2 0x13D4 DUP2 PUSH2 0x13B0 JUMP JUMPDEST SWAP3 SWAP2 POP POP JUMP JUMPDEST PUSH0 PUSH1 0x20 DUP3 DUP5 SUB SLT ISZERO PUSH2 0x13EF JUMPI PUSH2 0x13EE PUSH2 0x139F JUMP JUMPDEST JUMPDEST PUSH0 PUSH2 0x13FC DUP5 DUP3 DUP6 ADD PUSH2 0x13C6 JUMP JUMPDEST SWAP2 POP POP SWAP3 SWAP2 POP POP JUMP JUMPDEST PUSH2 0x140E DUP2 PUSH2 0x13A7 JUMP JUMPDEST DUP3 MSTORE POP POP JUMP JUMPDEST PUSH0 DUP2 MLOAD SWAP1 POP SWAP2 SWAP1 POP JUMP JUMPDEST PUSH0 DUP3 DUP3 MSTORE PUSH1 0x20 DUP3 ADD SWAP1 POP SWAP3 SWAP2 POP POP JUMP JUMPDEST DUP3 DUP2 DUP4 MCOPY PUSH0 DUP4 DUP4 ADD MSTORE POP POP POP JUMP JUMPDEST PUSH0 PUSH1 0x1F NOT PUSH1 0x1F DUP4 ADD AND SWAP1 POP SWAP2 SWAP1 POP JUMP JUMPDEST PUSH0 PUSH2 0x1456 DUP3 PUSH2 0x1414 JUMP JUMPDEST PUSH2 0x1460 DUP2 DUP6 PUSH2 0x141E JUMP JUMPDEST SWAP4 POP PUSH2 0x1470 DUP2 DUP6 PUSH1 0x20 DUP7 ADD PUSH2 0x142E JUMP JUMPDEST PUSH2 0x1479 DUP2 PUSH2 0x143C JUMP JUMPDEST DUP5 ADD SWAP2 POP POP SWAP3 SWAP2 POP POP JUMP JUMPDEST PUSH0 PUSH1 0xFF DUP3 AND SWAP1 POP SWAP2 SWAP1 POP JUMP JUMPDEST PUSH2 0x1499 DUP2 PUSH2 0x1484 JUMP JUMPDEST DUP3 MSTORE POP POP JUMP JUMPDEST PUSH0 PUSH20 0xFFFFFFFFFFFFFFFFFFFFFFFFFFFFFFFFFFFFFFFF DUP3 AND SWAP1 POP SWAP2 SWAP1 POP JUMP JUMPDEST PUSH0 PUSH2 0x14C8 DUP3 PUSH2 0x149F JUMP JUMPDEST SWAP1 POP SWAP2 SWAP1 POP JUMP JUMPDEST PUSH2 0x14D8 DUP2 PUSH2 0x14BE JUMP JUMPDEST DUP3 MSTORE POP POP JUMP JUMPDEST PUSH0 DUP2 ISZERO ISZERO SWAP1 POP SWAP2 SWAP1 POP JUMP JUMPDEST PUSH2 0x14F2 DUP2 PUSH2 0x14DE JUMP JUMPDEST DUP3 MSTORE POP POP JUMP JUMPDEST PUSH0 PUSH2 0xFFFF DUP3 AND SWAP1 POP SWAP2 SWAP1 POP JUMP JUMPDEST PUSH2 0x150E DUP2 PUSH2 0x14F8 JUMP JUMPDEST DUP3 MSTORE POP POP JUMP JUMPDEST PUSH0 PUSH4 0xFFFFFFFF DUP3 AND SWAP1 POP SWAP2 SWAP1 POP JUMP JUMPDEST PUSH2 0x152C DUP2 PUSH2 0x1514 JUMP JUMPDEST DUP3 MSTORE POP POP JUMP JUMPDEST PUSH0 PUSH2 0x180 DUP3 ADD SWAP1 POP PUSH2 0x1546 PUSH0 DUP4 ADD DUP16 PUSH2 0x1405 JUMP JUMPDEST DUP2 DUP2 SUB PUSH1 0x20 DUP4 ADD MSTORE PUSH2 0x1558 DUP2 DUP15 PUSH2 0x144C JUMP JUMPDEST SWAP1 POP PUSH2 0x1567 PUSH1 0x40 DUP4 ADD DUP14 PUSH2 0x1405 JUMP JUMPDEST DUP2 DUP2 SUB PUSH1 0x60 DUP4 ADD MSTORE PUSH2 0x1579 DUP2 DUP13 PUSH2 0x144C JUMP JUMPDEST SWAP1 POP PUSH2 0x1588 PUSH1 0x80 DUP4 ADD DUP12 PUSH2 0x1405 JUMP JUMPDEST PUSH2 0x1595 PUSH1 0xA0 DUP4 ADD DUP11 PUSH2 0x1490 JUMP JUMPDEST PUSH2 0x15A2 PUSH1 0xC0 DUP4 ADD DUP10 PUSH2 0x1405 JUMP JUMPDEST DUP2 DUP2 SUB PUSH1 0xE0 DUP4 ADD MSTORE PUSH2 0x15B4 DUP2 DUP9 PUSH2 0x144C JUMP JUMPDEST SWAP1 POP PUSH2 0x15C4 PUSH2 0x100 DUP4 ADD DUP8 PUSH2 0x14CF JUMP JUMPDEST PUSH2 0x15D2 PUSH2 0x120 DUP4 ADD DUP7 PUSH2 0x14E9 JUMP JUMPDEST PUSH2 0x15E0 PUSH2 0x140 DUP4 ADD DUP6 PUSH2 0x1505 JUMP JUMPDEST PUSH2 0x15EE PUSH2 0x160 DUP4 ADD DUP5 PUSH2 0x1523 JUMP JUMPDEST SWAP14 SWAP13 POP POP POP POP POP POP POP POP POP POP POP POP POP JUMP JUMPDEST PUSH2 0x1608 DUP2 PUSH2 0x14BE JUMP JUMPDEST DUP2 EQ PUSH2 0x1612 JUMPI PUSH0 PUSH0 REVERT JUMPDEST POP JUMP JUMPDEST PUSH0 DUP2 CALLDATALOAD SWAP1 POP PUSH2 0x1623 DUP2 PUSH2 0x15FF JUMP JUMPDEST SWAP3 SWAP2 POP POP JUMP JUMPDEST PUSH0 PUSH0 PUSH1 0x40 DUP4 DUP6 SUB SLT ISZERO PUSH2 0x163F JUMPI PUSH2 0x163E PUSH2 0x139F JUMP JUMPDEST JUMPDEST PUSH0 PUSH2 0x164C DUP6 DUP3 DUP7 ADD PUSH2 0x13C6 JUMP JUMPDEST SWAP3 POP POP PUSH1 0x20 PUSH2 0x165D DUP6 DUP3 DUP7 ADD PUSH2 0x1615 JUMP JUMPDEST SWAP2 POP POP SWAP3 POP SWAP3 SWAP1 POP JUMP JUMPDEST PUSH0 PUSH1 0x20 DUP3 ADD SWAP1 POP PUSH2 0x167A PUSH0 DUP4 ADD DUP5 PUSH2 0x14E9 JUMP JUMPDEST SWAP3 SWAP2 POP POP JUMP JUMPDEST PUSH2 0x1689 DUP2 PUSH2 0x13A7 JUMP JUMPDEST DUP3 MSTORE POP POP JUMP JUMPDEST PUSH0 DUP3 DUP3 MSTORE PUSH1 0x20 DUP3 ADD SWAP1 POP SWAP3 SWAP2 POP POP JUMP JUMPDEST PUSH0 PUSH2 0x16A9 DUP3 PUSH2 0x1414 JUMP JUMPDEST PUSH2 0x16B3 DUP2 DUP6 PUSH2 0x168F JUMP JUMPDEST SWAP4 POP PUSH2 0x16C3 DUP2 DUP6 PUSH1 0x20 DUP7 ADD PUSH2 0x142E JUMP JUMPDEST PUSH2 0x16CC DUP2 PUSH2 0x143C JUMP JUMPDEST DUP5 ADD SWAP2 POP POP SWAP3 SWAP2 POP POP JUMP JUMPDEST PUSH2 0x16E0 DUP2 PUSH2 0x1484 JUMP JUMPDEST DUP3 MSTORE POP POP JUMP JUMPDEST PUSH2 0x16EF DUP2 PUSH2 0x14BE JUMP JUMPDEST DUP3 MSTORE POP POP JUMP JUMPDEST PUSH2 0x16FE DUP2 PUSH2 0x14DE JUMP JUMPDEST DUP3 MSTORE POP POP JUMP JUMPDEST PUSH2 0x170D DUP2 PUSH2 0x14F8 JUMP JUMPDEST DUP3 MSTORE POP POP JUMP JUMPDEST PUSH2 0x171C DUP2 PUSH2 0x1514 JUMP JUMPDEST DUP3 MSTORE POP POP JUMP JUMPDEST PUSH0 PUSH2 0x180 DUP4 ADD PUSH0 DUP4 ADD MLOAD PUSH2 0x1738 PUSH0 DUP7 ADD DUP3 PUSH2 0x1680 JUMP JUMPDEST POP PUSH1 0x20 DUP4 ADD MLOAD DUP5 DUP3 SUB PUSH1 0x20 DUP7 ADD MSTORE PUSH2 0x1750 DUP3 DUP3 PUSH2 0x169F JUMP JUMPDEST SWAP2 POP POP PUSH1 0x40 DUP4 ADD MLOAD PUSH2 0x1765 PUSH1 0x40 DUP7 ADD DUP3 PUSH2 0x1680 JUMP JUMPDEST POP PUSH1 0x60 DUP4 ADD MLOAD DUP5 DUP3 SUB PUSH1 0x60 DUP7 ADD MSTORE PUSH2 0x177D DUP3 DUP3 PUSH2 0x169F JUMP JUMPDEST SWAP2 POP POP PUSH1 0x80 DUP4 ADD MLOAD PUSH2 0x1792 PUSH1 0x80 DUP7 ADD DUP3 PUSH2 0x1680 JUMP JUMPDEST POP PUSH1 0xA0 DUP4 ADD MLOAD PUSH2 0x17A5 PUSH1 0xA0 DUP7 ADD DUP3 PUSH2 0x16D7 JUMP JUMPDEST POP PUSH1 0xC0 DUP4 ADD MLOAD PUSH2 0x17B8 PUSH1 0xC0 DUP7 ADD DUP3 PUSH2 0x1680 JUMP JUMPDEST POP PUSH1 0xE0 DUP4 ADD MLOAD DUP5 DUP3 SUB PUSH1 0xE0 DUP7 ADD MSTORE PUSH2 0x17D0 DUP3 DUP3 PUSH2 0x169F JUMP JUMPDEST SWAP2 POP POP PUSH2 0x100 DUP4 ADD MLOAD PUSH2 0x17E7 PUSH2 0x100 DUP7 ADD DUP3 PUSH2 0x16E6 JUMP JUMPDEST POP PUSH2 0x120 DUP4 ADD MLOAD PUSH2 0x17FC PUSH2 0x120 DUP7 ADD DUP3 PUSH2 0x16F5 JUMP JUMPDEST POP PUSH2 0x140 DUP4 ADD MLOAD PUSH2 0x1811 PUSH2 0x140 DUP7 ADD DUP3 PUSH2 0x1704 JUMP JUMPDEST POP PUSH2 0x160 DUP4 ADD MLOAD PUSH2 0x1826 PUSH2 0x160 DUP7 ADD DUP3 PUSH2 0x1713 JUMP JUMPDEST POP DUP1 SWAP2 POP POP SWAP3 SWAP2 POP POP JUMP JUMPDEST PUSH0 PUSH1 0x20 DUP3 ADD SWAP1 POP DUP2 DUP2 SUB PUSH0 DUP4 ADD MSTORE PUSH2 0x1849 DUP2 DUP5 PUSH2 0x1722 JUMP JUMPDEST SWAP1 POP SWAP3 SWAP2 POP POP JUMP JUMPDEST PUSH0 PUSH1 0x20 DUP3 ADD SWAP1 POP PUSH2 0x1864 PUSH0 DUP4 ADD DUP5 PUSH2 0x14CF JUMP JUMPDEST SWAP3 SWAP2 POP POP JUMP JUMPDEST PUSH0 PUSH0 REVERT JUMPDEST PUSH0 PUSH0 REVERT JUMPDEST PUSH32 0x4E487B7100000000000000000000000000000000000000000000000000000000 PUSH0 MSTORE PUSH1 0x41 PUSH1 0x4 MSTORE PUSH1 0x24 PUSH0 REVERT JUMPDEST PUSH2 0x18A8 DUP3 PUSH2 0x143C JUMP JUMPDEST DUP2 ADD DUP2 DUP2 LT PUSH8 0xFFFFFFFFFFFFFFFF DUP3 GT OR ISZERO PUSH2 0x18C7 JUMPI PUSH2 0x18C6 PUSH2 0x1872 JUMP JUMPDEST JUMPDEST DUP1 PUSH1 0x40 MSTORE POP POP POP JUMP JUMPDEST PUSH0 PUSH2 0x18D9 PUSH2 0x1396 JUMP JUMPDEST SWAP1 POP PUSH2 0x18E5 DUP3 DUP3 PUSH2 0x189F JUMP JUMPDEST SWAP2 SWAP1 POP JUMP JUMPDEST PUSH0 PUSH8 0xFFFFFFFFFFFFFFFF DUP3 GT ISZERO PUSH2 0x1904 JUMPI PUSH2 0x1903 PUSH2 0x1872 JUMP JUMPDEST JUMPDEST PUSH2 0x190D DUP3 PUSH2 0x143C JUMP JUMPDEST SWAP1 POP PUSH1 0x20 DUP2 ADD SWAP1 POP SWAP2 SWAP1 POP JUMP JUMPDEST DUP3 DUP2 DUP4 CALLDATACOPY PUSH0 DUP4 DUP4 ADD MSTORE POP POP POP JUMP JUMPDEST PUSH0 PUSH2 0x193A PUSH2 0x1935 DUP5 PUSH2 0x18EA JUMP JUMPDEST PUSH2 0x18D0 JUMP JUMPDEST SWAP1 POP DUP3 DUP2 MSTORE PUSH1 0x20 DUP2 ADD DUP5 DUP5 DUP5 ADD GT ISZERO PUSH2 0x1956 JUMPI PUSH2 0x1955 PUSH2 0x186E JUMP JUMPDEST JUMPDEST PUSH2 0x1961 DUP5 DUP3 DUP6 PUSH2 0x191A JUMP JUMPDEST POP SWAP4 SWAP3 POP POP POP JUMP JUMPDEST PUSH0 DUP3 PUSH1 0x1F DUP4 ADD SLT PUSH2 0x197D JUMPI PUSH2 0x197C PUSH2 0x186A JUMP JUMPDEST JUMPDEST DUP2 CALLDATALOAD PUSH2 0x198D DUP5 DUP3 PUSH1 0x20 DUP7 ADD PUSH2 0x1928 JUMP JUMPDEST SWAP2 POP POP SWAP3 SWAP2 POP POP JUMP JUMPDEST PUSH2 0x199F DUP2 PUSH2 0x1484 JUMP JUMPDEST DUP2 EQ PUSH2 0x19A9 JUMPI PUSH0 PUSH0 REVERT JUMPDEST POP JUMP JUMPDEST PUSH0 DUP2 CALLDATALOAD SWAP1 POP PUSH2 0x19BA DUP2 PUSH2 0x1996 JUMP JUMPDEST SWAP3 SWAP2 POP POP JUMP JUMPDEST PUSH2 0x19C9 DUP2 PUSH2 0x14F8 JUMP JUMPDEST DUP2 EQ PUSH2 0x19D3 JUMPI PUSH0 PUSH0 REVERT JUMPDEST POP JUMP JUMPDEST PUSH0 DUP2 CALLDATALOAD SWAP1 POP PUSH2 0x19E4 DUP2 PUSH2 0x19C0 JUMP JUMPDEST SWAP3 SWAP2 POP POP JUMP JUMPDEST PUSH2 0x19F3 DUP2 PUSH2 0x1514 JUMP JUMPDEST DUP2 EQ PUSH2 0x19FD JUMPI PUSH0 PUSH0 REVERT JUMPDEST POP JUMP JUMPDEST PUSH0 DUP2 CALLDATALOAD SWAP1 POP PUSH2 0x1A0E DUP2 PUSH2 0x19EA JUMP JUMPDEST SWAP3 SWAP2 POP POP JUMP JUMPDEST PUSH0 PUSH0 PUSH0 PUSH0 PUSH0 PUSH0 PUSH0 PUSH0 PUSH0 PUSH2 0x120 DUP11 DUP13 SUB SLT ISZERO PUSH2 0x1A32 JUMPI PUSH2 0x1A31 PUSH2 0x139F JUMP JUMPDEST JUMPDEST PUSH0 DUP11 ADD CALLDATALOAD PUSH8 0xFFFFFFFFFFFFFFFF DUP2 GT ISZERO PUSH2 0x1A4F JUMPI PUSH2 0x1A4E PUSH2 0x13A3 JUMP JUMPDEST JUMPDEST PUSH2 0x1A5B DUP13 DUP3 DUP14 ADD PUSH2 0x1969 JUMP JUMPDEST SWAP10 POP POP PUSH1 0x20 PUSH2 0x1A6C DUP13 DUP3 DUP14 ADD PUSH2 0x13C6 JUMP JUMPDEST SWAP9 POP POP PUSH1 0x40 DUP11 ADD CALLDATALOAD PUSH8 0xFFFFFFFFFFFFFFFF DUP2 GT ISZERO PUSH2 0x1A8D JUMPI PUSH2 0x1A8C PUSH2 0x13A3 JUMP JUMPDEST JUMPDEST PUSH2 0x1A99 DUP13 DUP3 DUP14 ADD PUSH2 0x1969 JUMP JUMPDEST SWAP8 POP POP PUSH1 0x60 PUSH2 0x1AAA DUP13 DUP3 DUP14 ADD PUSH2 0x13C6 JUMP JUMPDEST SWAP7 POP POP PUSH1 0x80 PUSH2 0x1ABB DUP13 DUP3 DUP14 ADD PUSH2 0x19AC JUMP JUMPDEST SWAP6 POP POP PUSH1 0xA0 PUSH2 0x1ACC DUP13 DUP3 DUP14 ADD PUSH2 0x13C6 JUMP JUMPDEST SWAP5 POP POP PUSH1 0xC0 DUP11 ADD CALLDATALOAD PUSH8 0xFFFFFFFFFFFFFFFF DUP2 GT ISZERO PUSH2 0x1AED JUMPI PUSH2 0x1AEC PUSH2 0x13A3 JUMP JUMPDEST JUMPDEST PUSH2 0x1AF9 DUP13 DUP3 DUP14 ADD PUSH2 0x1969 JUMP JUMPDEST SWAP4 POP POP PUSH1 0xE0 PUSH2 0x1B0A DUP13 DUP3 DUP14 ADD PUSH2 0x19D6 JUMP JUMPDEST SWAP3 POP POP PUSH2 0x100 PUSH2 0x1B1C DUP13 DUP3 DUP14 ADD PUSH2 0x1A00 JUMP JUMPDEST SWAP2 POP POP SWAP3 SWAP6 SWAP9 POP SWAP3 SWAP6 SWAP9 POP SWAP3 SWAP6 SWAP9 JUMP JUMPDEST PUSH0 PUSH1 0x20 DUP3 ADD SWAP1 POP PUSH2 0x1B3F PUSH0 DUP4 ADD DUP5 PUSH2 0x1405 JUMP JUMPDEST SWAP3 SWAP2 POP POP JUMP JUMPDEST PUSH2 0x1B4E DUP2 PUSH2 0x14DE JUMP JUMPDEST DUP2 EQ PUSH2 0x1B58 JUMPI PUSH0 PUSH0 REVERT JUMPDEST POP JUMP JUMPDEST PUSH0 DUP2 CALLDATALOAD SWAP1 POP PUSH2 0x1B69 DUP2 PUSH2 0x1B45 JUMP JUMPDEST SWAP3 SWAP2 POP POP JUMP JUMPDEST PUSH0 PUSH0 PUSH0 PUSH1 0x60 DUP5 DUP7 SUB SLT ISZERO PUSH2 0x1B86 JUMPI PUSH2 0x1B85 PUSH2 0x139F JUMP JUMPDEST JUMPDEST PUSH0 PUSH2 0x1B93 DUP7 DUP3 DUP8 ADD PUSH2 0x13C6 JUMP JUMPDEST SWAP4 POP POP PUSH1 0x20 PUSH2 0x1BA4 DUP7 DUP3 DUP8 ADD PUSH2 0x1615 JUMP JUMPDEST SWAP3 POP POP PUSH1 0x40 PUSH2 0x1BB5 DUP7 DUP3 DUP8 ADD PUSH2 0x1B5B JUMP JUMPDEST SWAP2 POP POP SWAP3 POP SWAP3 POP SWAP3 JUMP JUMPDEST PUSH0 PUSH1 0x20 DUP3 DUP5 SUB SLT ISZERO PUSH2 0x1BD4 JUMPI PUSH2 0x1BD3 PUSH2 0x139F JUMP JUMPDEST JUMPDEST PUSH0 PUSH2 0x1BE1 DUP5 DUP3 DUP6 ADD PUSH2 0x1615 JUMP JUMPDEST SWAP2 POP POP SWAP3 SWAP2 POP POP JUMP JUMPDEST PUSH0 PUSH0 PUSH1 0x40 DUP4 DUP6 SUB SLT ISZERO PUSH2 0x1C00 JUMPI PUSH2 0x1BFF PUSH2 0x139F JUMP JUMPDEST JUMPDEST PUSH0 PUSH2 0x1C0D DUP6 DUP3 DUP7 ADD PUSH2 0x13C6 JUMP JUMPDEST SWAP3 POP POP PUSH1 0x20 PUSH2 0x1C1E DUP6 DUP3 DUP7 ADD PUSH2 0x1B5B JUMP JUMPDEST SWAP2 POP POP SWAP3 POP SWAP3 SWAP1 POP JUMP JUMPDEST PUSH32 0x4E487B7100000000000000000000000000000000000000000000000000000000 PUSH0 MSTORE PUSH1 0x22 PUSH1 0x4 MSTORE PUSH1 0x24 PUSH0 REVERT JUMPDEST PUSH0 PUSH1 0x2 DUP3 DIV SWAP1 POP PUSH1 0x1 DUP3 AND DUP1 PUSH2 0x1C6C JUMPI PUSH1 0x7F DUP3 AND SWAP2 POP JUMPDEST PUSH1 0x20 DUP3 LT DUP2 SUB PUSH2 0x1C7F JUMPI PUSH2 0x1C7E PUSH2 0x1C28 JUMP JUMPDEST JUMPDEST POP SWAP2 SWAP1 POP JUMP JUMPDEST PUSH32 0x4E6F6D627265206F626C696761746F72696F0000000000000000000000000000 PUSH0 DUP3 ADD MSTORE POP JUMP JUMPDEST PUSH0 PUSH2 0x1CB9 PUSH1 0x12 DUP4 PUSH2 0x141E JUMP JUMPDEST SWAP2 POP PUSH2 0x1CC4 DUP3 PUSH2 0x1C85 JUMP JUMPDEST PUSH1 0x20 DUP3 ADD SWAP1 POP SWAP2 SWAP1 POP JUMP JUMPDEST PUSH0 PUSH1 0x20 DUP3 ADD SWAP1 POP DUP2 DUP2 SUB PUSH0 DUP4 ADD MSTORE PUSH2 0x1CE6 DUP2 PUSH2 0x1CAD JUMP JUMPDEST SWAP1 POP SWAP2 SWAP1 POP JUMP JUMPDEST PUSH32 0x50726563696F2062617365203E20300000000000000000000000000000000000 PUSH0 DUP3 ADD MSTORE POP JUMP JUMPDEST PUSH0 PUSH2 0x1D21 PUSH1 0xF DUP4 PUSH2 0x141E JUMP JUMPDEST SWAP2 POP PUSH2 0x1D2C DUP3 PUSH2 0x1CED JUMP JUMPDEST PUSH1 0x20 DUP3 ADD SWAP1 POP SWAP2 SWAP1 POP JUMP JUMPDEST PUSH0 PUSH1 0x20 DUP3 ADD SWAP1 POP DUP2 DUP2 SUB PUSH0 DUP4 ADD MSTORE PUSH2 0x1D4E DUP2 PUSH2 0x1D15 JUMP JUMPDEST SWAP1 POP SWAP2 SWAP1 POP JUMP JUMPDEST PUSH32 0x546F74616C207469636B657473203E2030000000000000000000000000000000 PUSH0 DUP3 ADD MSTORE POP JUMP JUMPDEST PUSH0 PUSH2 0x1D89 PUSH1 0x11 DUP4 PUSH2 0x141E JUMP JUMPDEST SWAP2 POP PUSH2 0x1D94 DUP3 PUSH2 0x1D55 JUMP JUMPDEST PUSH1 0x20 DUP3 ADD SWAP1 POP SWAP2 SWAP1 POP JUMP JUMPDEST PUSH0 PUSH1 0x20 DUP3 ADD SWAP1 POP DUP2 DUP2 SUB PUSH0 DUP4 ADD MSTORE PUSH2 0x1DB6 DUP2 PUSH2 0x1D7D JUMP JUMPDEST SWAP1 POP SWAP2 SWAP1 POP JUMP JUMPDEST PUSH32 0x466163746F7220646520726576656E7461206D696E696D6F2031303025000000 PUSH0 DUP3 ADD MSTORE POP JUMP JUMPDEST PUSH0 PUSH2 0x1DF1 PUSH1 0x1D DUP4 PUSH2 0x141E JUMP JUMPDEST SWAP2 POP PUSH2 0x1DFC DUP3 PUSH2 0x1DBD JUMP JUMPDEST PUSH1 0x20 DUP3 ADD SWAP1 POP SWAP2 SWAP1 POP JUMP JUMPDEST PUSH0 PUSH1 0x20 DUP3 ADD SWAP1 POP DUP2 DUP2 SUB PUSH0 DUP4 ADD MSTORE PUSH2 0x1E1E DUP2 PUSH2 0x1DE5 JUMP JUMPDEST SWAP1 POP SWAP2 SWAP1 POP JUMP JUMPDEST PUSH32 0x4C696D69746520706F722063617274657261203E20746F74616C000000000000 PUSH0 DUP3 ADD MSTORE POP JUMP JUMPDEST PUSH0 PUSH2 0x1E59 PUSH1 0x1A DUP4 PUSH2 0x141E JUMP JUMPDEST SWAP2 POP PUSH2 0x1E64 DUP3 PUSH2 0x1E25 JUMP JUMPDEST PUSH1 0x20 DUP3 ADD SWAP1 POP SWAP2 SWAP1 POP JUMP JUMPDEST PUSH0 PUSH1 0x20 DUP3 ADD SWAP1 POP DUP2 DUP2 SUB PUSH0 DUP4 ADD MSTORE PUSH2 0x1E86 DUP2 PUSH2 0x1E4D JUMP JUMPDEST SWAP1 POP SWAP2 SWAP1 POP JUMP JUMPDEST PUSH32 0x4E487B7100000000000000000000000000000000000000000000000000000000 PUSH0 MSTORE PUSH1 0x11 PUSH1 0x4 MSTORE PUSH1 0x24 PUSH0 REVERT JUMPDEST PUSH0 PUSH2 0x1EC4 DUP3 PUSH2 0x13A7 JUMP JUMPDEST SWAP2 POP PUSH32 0xFFFFFFFFFFFFFFFFFFFFFFFFFFFFFFFFFFFFFFFFFFFFFFFFFFFFFFFFFFFFFFFF DUP3 SUB PUSH2 0x1EF6 JUMPI PUSH2 0x1EF5 PUSH2 0x1E8D JUMP JUMPDEST JUMPDEST PUSH1 0x1 DUP3 ADD SWAP1 POP SWAP2 SWAP1 POP JUMP JUMPDEST PUSH0 DUP2 SWAP1 POP DUP2 PUSH0 MSTORE PUSH1 0x20 PUSH0 KECCAK256 SWAP1 POP SWAP2 SWAP1 POP JUMP JUMPDEST PUSH0 PUSH1 0x20 PUSH1 0x1F DUP4 ADD DIV SWAP1 POP SWAP2 SWAP1 POP JUMP JUMPDEST PUSH0 DUP3 DUP3 SHL SWAP1 POP SWAP3 SWAP2 POP POP JUMP JUMPDEST PUSH0 PUSH1 0x8 DUP4 MUL PUSH2 0x1F5D PUSH32 0xFFFFFFFFFFFFFFFFFFFFFFFFFFFFFFFFFFFFFFFFFFFFFFFFFFFFFFFFFFFFFFFF DUP3 PUSH2 0x1F22 JUMP JUMPDEST PUSH2 0x1F67 DUP7 DUP4 PUSH2 0x1F22 JUMP JUMPDEST SWAP6 POP DUP1 NOT DUP5 AND SWAP4 POP DUP1 DUP7 AND DUP5 OR SWAP3 POP POP POP SWAP4 SWAP3 POP POP POP JUMP JUMPDEST PUSH0 DUP2 SWAP1 POP SWAP2 SWAP1 POP JUMP JUMPDEST PUSH0 PUSH2 0x1FA2 PUSH2 0x1F9D PUSH2 0x1F98 DUP5 PUSH2 0x13A7 JUMP JUMPDEST PUSH2 0x1F7F JUMP JUMPDEST PUSH2 0x13A7 JUMP JUMPDEST SWAP1 POP SWAP2 SWAP1 POP JUMP JUMPDEST PUSH0 DUP2 SWAP1 POP SWAP2 SWAP1 POP JUMP JUMPDEST PUSH2 0x1FBB DUP4 PUSH2 0x1F88 JUMP JUMPDEST PUSH2 0x1FCF PUSH2 0x1FC7 DUP3 PUSH2 0x1FA9 JUMP JUMPDEST DUP5 DUP5 SLOAD PUSH2 0x1F2E JUMP JUMPDEST DUP3 SSTORE POP POP POP POP JUMP JUMPDEST PUSH0 PUSH0 SWAP1 POP SWAP1 JUMP JUMPDEST PUSH2 0x1FE6 PUSH2 0x1FD7 JUMP JUMPDEST PUSH2 0x1FF1 DUP2 DUP5 DUP5 PUSH2 0x1FB2 JUMP JUMPDEST POP POP POP JUMP JUMPDEST JUMPDEST DUP2 DUP2 LT ISZERO PUSH2 0x2014 JUMPI PUSH2 0x2009 PUSH0 DUP3 PUSH2 0x1FDE JUMP JUMPDEST PUSH1 0x1 DUP2 ADD SWAP1 POP PUSH2 0x1FF7 JUMP JUMPDEST POP POP JUMP JUMPDEST PUSH1 0x1F DUP3 GT ISZERO PUSH2 0x2059 JUMPI PUSH2 0x202A DUP2 PUSH2 0x1F01 JUMP JUMPDEST PUSH2 0x2033 DUP5 PUSH2 0x1F13 JUMP JUMPDEST DUP2 ADD PUSH1 0x20 DUP6 LT ISZERO PUSH2 0x2042 JUMPI DUP2 SWAP1 POP JUMPDEST PUSH2 0x2056 PUSH2 0x204E DUP6 PUSH2 0x1F13 JUMP JUMPDEST DUP4 ADD DUP3 PUSH2 0x1FF6 JUMP JUMPDEST POP POP JUMPDEST POP POP POP JUMP JUMPDEST PUSH0 DUP3 DUP3 SHR SWAP1 POP SWAP3 SWAP2 POP POP JUMP JUMPDEST PUSH0 PUSH2 0x2079 PUSH0 NOT DUP5 PUSH1 0x8 MUL PUSH2 0x205E JUMP JUMPDEST NOT DUP1 DUP4 AND SWAP2 POP POP SWAP3 SWAP2 POP POP JUMP JUMPDEST PUSH0 PUSH2 0x2091 DUP4 DUP4 PUSH2 0x206A JUMP JUMPDEST SWAP2 POP DUP3 PUSH1 0x2 MUL DUP3 OR SWAP1 POP SWAP3 SWAP2 POP POP JUMP JUMPDEST PUSH2 0x20AA DUP3 PUSH2 0x1414 JUMP JUMPDEST PUSH8 0xFFFFFFFFFFFFFFFF DUP2 GT ISZERO PUSH2 0x20C3 JUMPI PUSH2 0x20C2 PUSH2 0x1872 JUMP JUMPDEST JUMPDEST PUSH2 0x20CD DUP3 SLOAD PUSH2 0x1C55 JUMP JUMPDEST PUSH2 0x20D8 DUP3 DUP3 DUP6 PUSH2 0x2018 JUMP JUMPDEST PUSH0 PUSH1 0x20 SWAP1 POP PUSH1 0x1F DUP4 GT PUSH1 0x1 DUP2 EQ PUSH2 0x2109 JUMPI PUSH0 DUP5 ISZERO PUSH2 0x20F7 JUMPI DUP3 DUP8 ADD MLOAD SWAP1 POP JUMPDEST PUSH2 0x2101 DUP6 DUP3 PUSH2 0x2086 JUMP JUMPDEST DUP7 SSTORE POP PUSH2 0x2168 JUMP JUMPDEST PUSH1 0x1F NOT DUP5 AND PUSH2 0x2117 DUP7 PUSH2 0x1F01 JUMP JUMPDEST PUSH0 JUMPDEST DUP3 DUP2 LT ISZERO PUSH2 0x213E JUMPI DUP5 DUP10 ADD MLOAD DUP3 SSTORE PUSH1 0x1 DUP3 ADD SWAP2 POP PUSH1 0x20 DUP6 ADD SWAP5 POP PUSH1 0x20 DUP2 ADD SWAP1 POP PUSH2 0x2119 JUMP JUMPDEST DUP7 DUP4 LT ISZERO PUSH2 0x215B JUMPI DUP5 DUP10 ADD MLOAD PUSH2 0x2157 PUSH1 0x1F DUP10 AND DUP3 PUSH2 0x206A JUMP JUMPDEST DUP4 SSTORE POP JUMPDEST PUSH1 0x1 PUSH1 0x2 DUP9 MUL ADD DUP9 SSTORE POP POP POP JUMPDEST POP POP POP POP POP POP JUMP JUMPDEST PUSH0 PUSH2 0x120 DUP3 ADD SWAP1 POP DUP2 DUP2 SUB PUSH0 DUP4 ADD MSTORE PUSH2 0x2189 DUP2 DUP13 PUSH2 0x144C JUMP JUMPDEST SWAP1 POP PUSH2 0x2198 PUSH1 0x20 DUP4 ADD DUP12 PUSH2 0x1405 JUMP JUMPDEST DUP2 DUP2 SUB PUSH1 0x40 DUP4 ADD MSTORE PUSH2 0x21AA DUP2 DUP11 PUSH2 0x144C JUMP JUMPDEST SWAP1 POP PUSH2 0x21B9 PUSH1 0x60 DUP4 ADD DUP10 PUSH2 0x1405 JUMP JUMPDEST PUSH2 0x21C6 PUSH1 0x80 DUP4 ADD DUP9 PUSH2 0x1490 JUMP JUMPDEST PUSH2 0x21D3 PUSH1 0xA0 DUP4 ADD DUP8 PUSH2 0x1405 JUMP JUMPDEST DUP2 DUP2 SUB PUSH1 0xC0 DUP4 ADD MSTORE PUSH2 0x21E5 DUP2 DUP7 PUSH2 0x144C JUMP JUMPDEST SWAP1 POP PUSH2 0x21F4 PUSH1 0xE0 DUP4 ADD DUP6 PUSH2 0x1505 JUMP JUMPDEST PUSH2 0x2202 PUSH2 0x100 DUP4 ADD DUP5 PUSH2 0x1523 JUMP JUMPDEST SWAP11 SWAP10 POP POP POP POP POP POP POP POP POP POP JUMP JUMPDEST PUSH32 0x4576656E746F20696E6578697374656E74650000000000000000000000000000 PUSH0 DUP3 ADD MSTORE POP JUMP JUMPDEST PUSH0 PUSH2 0x2244 PUSH1 0x12 DUP4 PUSH2 0x141E JUMP JUMPDEST SWAP2 POP PUSH2 0x224F DUP3 PUSH2 0x2210 JUMP JUMPDEST PUSH1 0x20 DUP3 ADD SWAP1 POP SWAP2 SWAP1 POP JUMP JUMPDEST PUSH0 PUSH1 0x20 DUP3 ADD SWAP1 POP DUP2 DUP2 SUB PUSH0 DUP4 ADD MSTORE PUSH2 0x2271 DUP2 PUSH2 0x2238 JUMP JUMPDEST SWAP1 POP SWAP2 SWAP1 POP JUMP JUMPDEST PUSH32 0x536F6C6F206F7267616E697A65722075206F776E657200000000000000000000 PUSH0 DUP3 ADD MSTORE POP JUMP JUMPDEST PUSH0 PUSH2 0x22AC PUSH1 0x16 DUP4 PUSH2 0x141E JUMP JUMPDEST SWAP2 POP PUSH2 0x22B7 DUP3 PUSH2 0x2278 JUMP JUMPDEST PUSH1 0x20 DUP3 ADD SWAP1 POP SWAP2 SWAP1 POP JUMP JUMPDEST PUSH0 PUSH1 0x20 DUP3 ADD SWAP1 POP DUP2 DUP2 SUB PUSH0 DUP4 ADD MSTORE PUSH2 0x22D9 DUP2 PUSH2 0x22A0 JUMP JUMPDEST SWAP1 POP SWAP2 SWAP1 POP JUMP JUMPDEST PUSH32 0x56616C696461646F72206E6F2076616C69646F00000000000000000000000000 PUSH0 DUP3 ADD MSTORE POP JUMP JUMPDEST PUSH0 PUSH2 0x2314 PUSH1 0x13 DUP4 PUSH2 0x141E JUMP JUMPDEST SWAP2 POP PUSH2 0x231F DUP3 PUSH2 0x22E0 JUMP JUMPDEST PUSH1 0x20 DUP3 ADD SWAP1 POP SWAP2 SWAP1 POP JUMP JUMPDEST PUSH0 PUSH1 0x20 DUP3 ADD SWAP1 POP DUP2 DUP2 SUB PUSH0 DUP4 ADD MSTORE PUSH2 0x2341 DUP2 PUSH2 0x2308 JUMP JUMPDEST SWAP1 POP SWAP2 SWAP1 POP JUMP INVALID LOG2 PUSH5 0x6970667358 0x22 SLT KECCAK256 PUSH11 0xCA354E1ECE1ED65926422 SWAP9 DUP9 DUP2 0x25 CALL SAR 0xDC CALLER PUSH31 0x3B27C4B1A64B30C85013CE64736F6C634300081E0033000000000000000000 "
		},
		"gasEstimates": {
			"creation": {
				"codeDepositCost": "1817200",
				"executionCost": "infinite",
				"totalCost": "infinite"
			},
			"external": {
				"createEvent(string,uint256,string,uint256,uint8,uint256,string,uint16,uint32)": "infinite",
				"events(uint256)": "infinite",
				"getEvent(uint256)": "infinite",
				"isOrganizerOrValidator(uint256,address)": "7556",
				"isValidator(uint256,address)": "3139",
				"nextEventId()": "2469",
				"owner()": "2603",
				"renounceOwnership()": "infinite",
				"setEventActive(uint256,bool)": "infinite",
				"setValidator(uint256,address,bool)": "infinite",
				"transferOwnership(address)": "infinite"
			}
		},
		"methodIdentifiers": {
			"createEvent(string,uint256,string,uint256,uint8,uint256,string,uint16,uint32)": "995d1c04",
			"events(uint256)": "0b791430",
			"getEvent(uint256)": "6d1884e0",
			"isOrganizerOrValidator(uint256,address)": "98e4920e",
			"isValidator(uint256,address)": "23f2a73f",
			"nextEventId()": "9f9d903a",
			"owner()": "8da5cb5b",
			"renounceOwnership()": "715018a6",
			"setEventActive(uint256,bool)": "fabe5a14",
			"setValidator(uint256,address,bool)": "cf347e17",
			"transferOwnership(address)": "f2fde38b"
		}
	},
	"abi": [
		{
			"inputs": [
				{
					"internalType": "address",
					"name": "initialOwner",
					"type": "address"
				}
			],
			"stateMutability": "nonpayable",
			"type": "constructor"
		},
		{
			"inputs": [
				{
					"internalType": "address",
					"name": "owner",
					"type": "address"
				}
			],
			"name": "OwnableInvalidOwner",
			"type": "error"
		},
		{
			"inputs": [
				{
					"internalType": "address",
					"name": "account",
					"type": "address"
				}
			],
			"name": "OwnableUnauthorizedAccount",
			"type": "error"
		},
		{
			"anonymous": false,
			"inputs": [
				{
					"indexed": true,
					"internalType": "uint256",
					"name": "eventId",
					"type": "uint256"
				},
				{
					"indexed": true,
					"internalType": "address",
					"name": "organizer",
					"type": "address"
				},
				{
					"indexed": false,
					"internalType": "string",
					"name": "name",
					"type": "string"
				},
				{
					"indexed": false,
					"internalType": "uint256",
					"name": "date",
					"type": "uint256"
				},
				{
					"indexed": false,
					"internalType": "string",
					"name": "location",
					"type": "string"
				},
				{
					"indexed": false,
					"internalType": "uint256",
					"name": "basePriceWei",
					"type": "uint256"
				},
				{
					"indexed": false,
					"internalType": "uint8",
					"name": "maxResaleFactor",
					"type": "uint8"
				},
				{
					"indexed": false,
					"internalType": "uint256",
					"name": "totalTickets",
					"type": "uint256"
				},
				{
					"indexed": false,
					"internalType": "string",
					"name": "metadataCid",
					"type": "string"
				},
				{
					"indexed": false,
					"internalType": "uint16",
					"name": "maxTicketsPerWallet",
					"type": "uint16"
				},
				{
					"indexed": false,
					"internalType": "uint32",
					"name": "walletCooldown",
					"type": "uint32"
				}
			],
			"name": "EventCreated",
			"type": "event"
		},
		{
			"anonymous": false,
			"inputs": [
				{
					"indexed": true,
					"internalType": "uint256",
					"name": "eventId",
					"type": "uint256"
				},
				{
					"indexed": false,
					"internalType": "bool",
					"name": "active",
					"type": "bool"
				}
			],
			"name": "EventStatusChanged",
			"type": "event"
		},
		{
			"anonymous": false,
			"inputs": [
				{
					"indexed": true,
					"internalType": "address",
					"name": "previousOwner",
					"type": "address"
				},
				{
					"indexed": true,
					"internalType": "address",
					"name": "newOwner",
					"type": "address"
				}
			],
			"name": "OwnershipTransferred",
			"type": "event"
		},
		{
			"anonymous": false,
			"inputs": [
				{
					"indexed": true,
					"internalType": "uint256",
					"name": "eventId",
					"type": "uint256"
				},
				{
					"indexed": true,
					"internalType": "address",
					"name": "validator",
					"type": "address"
				},
				{
					"indexed": false,
					"internalType": "bool",
					"name": "active",
					"type": "bool"
				}
			],
			"name": "ValidatorSet",
			"type": "event"
		},
		{
			"inputs": [
				{
					"internalType": "string",
					"name": "name",
					"type": "string"
				},
				{
					"internalType": "uint256",
					"name": "date",
					"type": "uint256"
				},
				{
					"internalType": "string",
					"name": "location",
					"type": "string"
				},
				{
					"internalType": "uint256",
					"name": "basePriceWei",
					"type": "uint256"
				},
				{
					"internalType": "uint8",
					"name": "maxResaleFactor",
					"type": "uint8"
				},
				{
					"internalType": "uint256",
					"name": "totalTickets",
					"type": "uint256"
				},
				{
					"internalType": "string",
					"name": "metadataCid",
					"type": "string"
				},
				{
					"internalType": "uint16",
					"name": "maxTicketsPerWallet",
					"type": "uint16"
				},
				{
					"internalType": "uint32",
					"name": "walletCooldown",
					"type": "uint32"
				}
			],
			"name": "createEvent",
			"outputs": [
				{
					"internalType": "uint256",
					"name": "eventId",
					"type": "uint256"
				}
			],
			"stateMutability": "nonpayable",
			"type": "function"
		},
		{
			"inputs": [
				{
					"internalType": "uint256",
					"name": "",
					"type": "uint256"
				}
			],
			"name": "events",
			"outputs": [
				{
					"internalType": "uint256",
					"name": "id",
					"type": "uint256"
				},
				{
					"internalType": "string",
					"name": "name",
					"type": "string"
				},
				{
					"internalType": "uint256",
					"name": "date",
					"type": "uint256"
				},
				{
					"internalType": "string",
					"name": "location",
					"type": "string"
				},
				{
					"internalType": "uint256",
					"name": "basePriceWei",
					"type": "uint256"
				},
				{
					"internalType": "uint8",
					"name": "maxResaleFactor",
					"type": "uint8"
				},
				{
					"internalType": "uint256",
					"name": "totalTickets",
					"type": "uint256"
				},
				{
					"internalType": "string",
					"name": "metadataCid",
					"type": "string"
				},
				{
					"internalType": "address",
					"name": "organizer",
					"type": "address"
				},
				{
					"internalType": "bool",
					"name": "active",
					"type": "bool"
				},
				{
					"internalType": "uint16",
					"name": "maxTicketsPerWallet",
					"type": "uint16"
				},
				{
					"internalType": "uint32",
					"name": "walletCooldown",
					"type": "uint32"
				}
			],
			"stateMutability": "view",
			"type": "function"
		},
		{
			"inputs": [
				{
					"internalType": "uint256",
					"name": "eventId",
					"type": "uint256"
				}
			],
			"name": "getEvent",
			"outputs": [
				{
					"components": [
						{
							"internalType": "uint256",
							"name": "id",
							"type": "uint256"
						},
						{
							"internalType": "string",
							"name": "name",
							"type": "string"
						},
						{
							"internalType": "uint256",
							"name": "date",
							"type": "uint256"
						},
						{
							"internalType": "string",
							"name": "location",
							"type": "string"
						},
						{
							"internalType": "uint256",
							"name": "basePriceWei",
							"type": "uint256"
						},
						{
							"internalType": "uint8",
							"name": "maxResaleFactor",
							"type": "uint8"
						},
						{
							"internalType": "uint256",
							"name": "totalTickets",
							"type": "uint256"
						},
						{
							"internalType": "string",
							"name": "metadataCid",
							"type": "string"
						},
						{
							"internalType": "address",
							"name": "organizer",
							"type": "address"
						},
						{
							"internalType": "bool",
							"name": "active",
							"type": "bool"
						},
						{
							"internalType": "uint16",
							"name": "maxTicketsPerWallet",
							"type": "uint16"
						},
						{
							"internalType": "uint32",
							"name": "walletCooldown",
							"type": "uint32"
						}
					],
					"internalType": "struct EventRegistry.EventData",
					"name": "",
					"type": "tuple"
				}
			],
			"stateMutability": "view",
			"type": "function"
		},
		{
			"inputs": [
				{
					"internalType": "uint256",
					"name": "eventId",
					"type": "uint256"
				},
				{
					"internalType": "address",
					"name": "account",
					"type": "address"
				}
			],
			"name": "isOrganizerOrValidator",
			"outputs": [
				{
					"internalType": "bool",
					"name": "",
					"type": "bool"
				}
			],
			"stateMutability": "view",
			"type": "function"
		},
		{
			"inputs": [
				{
					"internalType": "uint256",
					"name": "eventId",
					"type": "uint256"
				},
				{
					"internalType": "address",
					"name": "account",
					"type": "address"
				}
			],
			"name": "isValidator",
			"outputs": [
				{
					"internalType": "bool",
					"name": "",
					"type": "bool"
				}
			],
			"stateMutability": "view",
			"type": "function"
		},
		{
			"inputs": [],
			"name": "nextEventId",
			"outputs": [
				{
					"internalType": "uint256",
					"name": "",
					"type": "uint256"
				}
			],
			"stateMutability": "view",
			"type": "function"
		},
		{
			"inputs": [],
			"name": "owner",
			"outputs": [
				{
					"internalType": "address",
					"name": "",
					"type": "address"
				}
			],
			"stateMutability": "view",
			"type": "function"
		},
		{
			"inputs": [],
			"name": "renounceOwnership",
			"outputs": [],
			"stateMutability": "nonpayable",
			"type": "function"
		},
		{
			"inputs": [
				{
					"internalType": "uint256",
					"name": "eventId",
					"type": "uint256"
				},
				{
					"internalType": "bool",
					"name": "active",
					"type": "bool"
				}
			],
			"name": "setEventActive",
			"outputs": [],
			"stateMutability": "nonpayable",
			"type": "function"
		},
		{
			"inputs": [
				{
					"internalType": "uint256",
					"name": "eventId",
					"type": "uint256"
				},
				{
					"internalType": "address",
					"name": "validator",
					"type": "address"
				},
				{
					"internalType": "bool",
					"name": "isActive",
					"type": "bool"
				}
			],
			"name": "setValidator",
			"outputs": [],
			"stateMutability": "nonpayable",
			"type": "function"
		},
		{
			"inputs": [
				{
					"internalType": "address",
					"name": "newOwner",
					"type": "address"
				}
			],
			"name": "transferOwnership",
			"outputs": [],
			"stateMutability": "nonpayable",
			"type": "function"
		}
	]
}