{
	"data": {
		"bytecode": {
			"linkReferences": {},
			"object": "608060405234801561000f575f5ffd5b5060405161304d38038061304d8339818101604052810190610031919061033c565b805f73ffffffffffffffffffffffffffffffffffffffff168173ffffffffffffffffffffffffffffffffffffffff16036100a2575f6040517f1e4fbdf7000000000000000000000000000000000000000000000000000000008152600401610099919061039b565b60405180910390fd5b6100b18161021d60201b60201c565b50600180819055505f73ffffffffffffffffffffffffffffffffffffffff168373ffffffffffffffffffffffffffffffffffffffff1603610127576040517f08c379a000000000000000000000000000000000000000000000000000000000815260040161011e9061040e565b60405180910390fd5b5f73ffffffffffffffffffffffffffffffffffffffff168273ffffffffffffffffffffffffffffffffffffffff1603610195576040517f08c379a000000000000000000000000000000000000000000000000000000000815260040161018c90610476565b60405180910390fd5b8260025f6101000a81548173ffffffffffffffffffffffffffffffffffffffff021916908373ffffffffffffffffffffffffffffffffffffffff1602179055508160035f6101000a81548173ffffffffffffffffffffffffffffffffffffffff021916908373ffffffffffffffffffffffffffffffffffffffff160217905550505050610494565b5f5f5f9054906101000a900473ffffffffffffffffffffffffffffffffffffffff169050815f5f6101000a81548173ffffffffffffffffffffffffffffffffffffffff021916908373ffffffffffffffffffffffffffffffffffffffff1602179055508173ffffffffffffffffffffffffffffffffffffffff168173ffffffffffffffffffffffffffffffffffffffff167f8be0079c531659141344cd1fd0a4f28419497f9722a3daafe3b4186f6b6457e060405160405180910390a35050565b5f5ffd5b5f73ffffffffffffffffffffffffffffffffffffffff82169050919050565b5f61030b826102e2565b9050919050565b61031b81610301565b8114610325575f5ffd5b50565b5f8151905061033681610312565b92915050565b5f5f5f60608486031215610353576103526102de565b5b5f61036086828701610328565b935050602061037186828701610328565b925050604061038286828701610328565b9150509250925092565b61039581610301565b82525050565b5f6020820190506103ae5f83018461038c565b92915050565b5f82825260208201905092915050565b7f4576656e745265676973747279206365726f00000000000000000000000000005f82015250565b5f6103f86012836103b4565b9150610403826103c4565b602082019050919050565b5f6020820190508181035f830152610425816103ec565b9050919050565b7f5469636b65744e4654206365726f0000000000000000000000000000000000005f82015250565b5f610460600e836103b4565b915061046b8261042c565b602082019050919050565b5f6020820190508181035f83015261048d81610454565b9050919050565b612bac806104a15f395ff3fe6080604052600436106100c1575f3560e01c8063aaccf1ec1161007e578063de74e57b11610058578063de74e57b1461022c578063df55e97f1461026b578063dffc3fac146102a7578063f2fde38b146102c3576100c1565b8063aaccf1ec146101ae578063acaacad5146101d8578063b393391b14610202576100c1565b80631f7d863c146100c55780636047c5a4146100ed5780636c27c1381461012a578063715018a6146101525780637fab0621146101685780638da5cb5b14610184575b5f5ffd5b3480156100d0575f5ffd5b506100eb60048036038101906100e69190611b3e565b6102eb565b005b3480156100f8575f5ffd5b50610113600480360381019061010e9190611bd6565b6109a5565b604051610121929190611c45565b60405180910390f35b348015610135575f5ffd5b50610150600480360381019061014b9190611c6c565b6109e3565b005b34801561015d575f5ffd5b50610166610dc9565b005b610182600480360381019061017d9190611c6c565b610ddc565b005b34801561018f575f5ffd5b506101986112fc565b6040516101a59190611ca6565b60405180910390f35b3480156101b9575f5ffd5b506101c2611323565b6040516101cf9190611cbf565b60405180910390f35b3480156101e3575f5ffd5b506101ec611329565b6040516101f99190611d33565b60405180910390f35b34801561020d575f5ffd5b5061021661134e565b6040516102239190611d6c565b60405180910390f35b348015610237575f5ffd5b50610252600480360381019061024d9190611c6c565b611373565b6040516102629493929190611d9f565b60405180910390f35b348015610276575f5ffd5b50610291600480360381019061028c9190611c6c565b6113ca565b60405161029e9190611cbf565b60405180910390f35b6102c160048036038101906102bc9190611c6c565b6113df565b005b3480156102ce575f5ffd5b506102e960048036038101906102e49190611de2565b6118cf565b005b6102f3611953565b3373ffffffffffffffffffffffffffffffffffffffff1660035f9054906101000a900473ffffffffffffffffffffffffffffffffffffffff1673ffffffffffffffffffffffffffffffffffffffff16636352211e846040518263ffffffff1660e01b81526004016103649190611cbf565b602060405180830381865afa15801561037f573d5f5f3e3d5ffd5b505050506040513d601f19601f820116820180604052508101906103a39190611e21565b73ffffffffffffffffffffffffffffffffffffffff16146103f9576040517f08c379a00000000000000000000000000000000000000000000000000000000081526004016103f090611ea6565b60405180910390fd5b6001600381111561040d5761040c611ec4565b5b60035f9054906101000a900473ffffffffffffffffffffffffffffffffffffffff1673ffffffffffffffffffffffffffffffffffffffff1663a1d891bb846040518263ffffffff1660e01b81526004016104679190611cbf565b602060405180830381865afa158015610482573d5f5f3e3d5ffd5b505050506040513d601f19601f820116820180604052508101906104a69190611f14565b60038111156104b8576104b7611ec4565b5b146104f8576040517f08c379a00000000000000000000000000000000000000000000000000000000081526004016104ef90611f89565b60405180910390fd5b5f811161053a576040517f08c379a000000000000000000000000000000000000000000000000000000000815260040161053190611ff1565b60405180910390fd5b5f60035f9054906101000a900473ffffffffffffffffffffffffffffffffffffffff1673ffffffffffffffffffffffffffffffffffffffff1663c20b324d846040518263ffffffff1660e01b81526004016105959190611cbf565b602060405180830381865afa1580156105b0573d5f5f3e3d5ffd5b505050506040513d601f19601f820116820180604052508101906105d49190612023565b90505f60025f9054906101000a900473ffffffffffffffffffffffffffffffffffffffff1673ffffffffffffffffffffffffffffffffffffffff16636d1884e0836040518263ffffffff1660e01b81526004016106319190611cbf565b5f60405180830381865afa15801561064b573d5f5f3e3d5ffd5b505050506040513d5f823e3d601f19601f8201168201806040525081019061067391906123d5565b90505f73ffffffffffffffffffffffffffffffffffffffff1681610100015173ffffffffffffffffffffffffffffffffffffffff16036106e8576040517f08c379a00000000000000000000000000000000000000000000000000000000081526004016106df90612466565b60405180910390fd5b80610120015161072d576040517f08c379a0000000000000000000000000000000000000000000000000000000008152600401610724906124ce565b60405180910390fd5b80604001514210610773576040517f08c379a000000000000000000000000000000000000000000000000000000000815260040161076a90612536565b60405180910390fd5b5f60648260a0015160ff16836080015161078d9190612581565b61079791906125ef565b9050808411156107dc576040517f08c379a00000000000000000000000000000000000000000000000000000000081526004016107d390612669565b60405180910390fd5b60035f9054906101000a900473ffffffffffffffffffffffffffffffffffffffff1673ffffffffffffffffffffffffffffffffffffffff166323b872dd3330886040518463ffffffff1660e01b815260040161083a93929190612687565b5f604051808303815f87803b158015610851575f5ffd5b505af1158015610863573d5f5f3e3d5ffd5b505050505f60045f81548092919061087a906126bc565b91905055905060405180608001604052808781526020013373ffffffffffffffffffffffffffffffffffffffff1681526020018681526020016001151581525060055f8381526020019081526020015f205f820151815f01556020820151816001015f6101000a81548173ffffffffffffffffffffffffffffffffffffffff021916908373ffffffffffffffffffffffffffffffffffffffff160217905550604082015181600201556060820151816003015f6101000a81548160ff0219169083151502179055509050503373ffffffffffffffffffffffffffffffffffffffff1686827f8b84647ec667515d9ce59e74ab9bb64476ec404345ebb9dfc3ea275bb6d8ee9b8860405161098d9190611cbf565b60405180910390a4505050506109a16119a2565b5050565b6007602052815f5260405f20602052805f5260405f205f9150915050805f015490806001015f9054906101000a900467ffffffffffffffff16905082565b6109eb611953565b5f60035f9054906101000a900473ffffffffffffffffffffffffffffffffffffffff1673ffffffffffffffffffffffffffffffffffffffff1663c20b324d836040518263ffffffff1660e01b8152600401610a469190611cbf565b602060405180830381865afa158015610a61573d5f5f3e3d5ffd5b505050506040513d601f19601f82011682018060405250810190610a859190612023565b90505f60025f9054906101000a900473ffffffffffffffffffffffffffffffffffffffff1673ffffffffffffffffffffffffffffffffffffffff16636d1884e0836040518263ffffffff1660e01b8152600401610ae29190611cbf565b5f60405180830381865afa158015610afc573d5f5f3e3d5ffd5b505050506040513d5f823e3d601f19601f82011682018060405250810190610b2491906123d5565b90505f73ffffffffffffffffffffffffffffffffffffffff1681610100015173ffffffffffffffffffffffffffffffffffffffff1603610b99576040517f08c379a0000000000000000000000000000000000000000000000000000000008152600401610b9090612466565b60405180910390fd5b5f81610100015173ffffffffffffffffffffffffffffffffffffffff163373ffffffffffffffffffffffffffffffffffffffff161480610c70575060025f9054906101000a900473ffffffffffffffffffffffffffffffffffffffff1673ffffffffffffffffffffffffffffffffffffffff166323f2a73f84336040518363ffffffff1660e01b8152600401610c30929190612703565b602060405180830381865afa158015610c4b573d5f5f3e3d5ffd5b505050506040513d601f19601f82011682018060405250810190610c6f919061272a565b5b80610cad5750610c7e6112fc565b73ffffffffffffffffffffffffffffffffffffffff163373ffffffffffffffffffffffffffffffffffffffff16145b905080610cef576040517f08c379a0000000000000000000000000000000000000000000000000000000008152600401610ce69061279f565b60405180910390fd5b60035f9054906101000a900473ffffffffffffffffffffffffffffffffffffffff1673ffffffffffffffffffffffffffffffffffffffff166327401ca5856040518263ffffffff1660e01b8152600401610d499190611cbf565b5f604051808303815f87803b158015610d60575f5ffd5b505af1158015610d72573d5f5f3e3d5ffd5b505050503373ffffffffffffffffffffffffffffffffffffffff1683857fb35ebdfb9515b145e406c5c5a0846ec436db0b9560927af3af7a754d90c4f6ff60405160405180910390a4505050610dc66119a2565b50565b610dd16119ab565b610dda5f611a32565b565b610de4611953565b5f60025f9054906101000a900473ffffffffffffffffffffffffffffffffffffffff1673ffffffffffffffffffffffffffffffffffffffff16636d1884e0836040518263ffffffff1660e01b8152600401610e3f9190611cbf565b5f60405180830381865afa158015610e59573d5f5f3e3d5ffd5b505050506040513d5f823e3d601f19601f82011682018060405250810190610e8191906123d5565b90505f73ffffffffffffffffffffffffffffffffffffffff1681610100015173ffffffffffffffffffffffffffffffffffffffff1603610ef6576040517f08c379a0000000000000000000000000000000000000000000000000000000008152600401610eed90612466565b60405180910390fd5b806101200151610f3b576040517f08c379a0000000000000000000000000000000000000000000000000000000008152600401610f32906124ce565b60405180910390fd5b80604001514210610f81576040517f08c379a0000000000000000000000000000000000000000000000000000000008152600401610f7890612536565b60405180910390fd5b80608001513414610fc7576040517f08c379a0000000000000000000000000000000000000000000000000000000008152600401610fbe90612807565b60405180910390fd5b8060c0015160065f8481526020019081526020015f20541061101e576040517f08c379a00000000000000000000000000000000000000000000000000000000081526004016110159061286f565b60405180910390fd5b5f60075f8481526020019081526020015f205f3373ffffffffffffffffffffffffffffffffffffffff1673ffffffffffffffffffffffffffffffffffffffff1681526020019081526020015f2090505f82610140015161ffff1611156110da5781610140015161ffff166001825f0154611098919061288d565b11156110d9576040517f08c379a00000000000000000000000000000000000000000000000000000000081526004016110d090612930565b60405180910390fd5b5b5f82610160015163ffffffff1611801561111557505f816001015f9054906101000a900467ffffffffffffffff1667ffffffffffffffff1614155b156111955781610160015163ffffffff16816001015f9054906101000a900467ffffffffffffffff16611148919061294e565b67ffffffffffffffff16421015611194576040517f08c379a000000000000000000000000000000000000000000000000000000000815260040161118b906129f9565b60405180910390fd5b5b60065f8481526020019081526020015f205f8154809291906111b6906126bc565b91905055505f60035f9054906101000a900473ffffffffffffffffffffffffffffffffffffffff1673ffffffffffffffffffffffffffffffffffffffff1663a5f7f46633866040518363ffffffff1660e01b8152600401611218929190612a17565b6020604051808303815f875af1158015611234573d5f5f3e3d5ffd5b505050506040513d601f19601f820116820180604052508101906112589190612023565b90506001825f015f82825461126d919061288d565b9250508190555042826001015f6101000a81548167ffffffffffffffff021916908367ffffffffffffffff1602179055503373ffffffffffffffffffffffffffffffffffffffff1684827f8f235db28b288d80e5b92369043b0b2c986c6d020ee099c23e86d7949acfd90c346040516112e69190611cbf565b60405180910390a45050506112f96119a2565b50565b5f5f5f9054906101000a900473ffffffffffffffffffffffffffffffffffffffff16905090565b60045481565b60025f9054906101000a900473ffffffffffffffffffffffffffffffffffffffff1681565b60035f9054906101000a900473ffffffffffffffffffffffffffffffffffffffff1681565b6005602052805f5260405f205f91509050805f015490806001015f9054906101000a900473ffffffffffffffffffffffffffffffffffffffff1690806002015490806003015f9054906101000a900460ff16905084565b6006602052805f5260405f205f915090505481565b6113e7611953565b5f60055f8381526020019081526020015f209050806003015f9054906101000a900460ff1661144b576040517f08c379a000000000000000000000000000000000000000000000000000000000815260040161144290612a88565b60405180910390fd5b5f73ffffffffffffffffffffffffffffffffffffffff16816001015f9054906101000a900473ffffffffffffffffffffffffffffffffffffffff1673ffffffffffffffffffffffffffffffffffffffff16036114dc576040517f08c379a00000000000000000000000000000000000000000000000000000000081526004016114d390612af0565b60405180910390fd5b80600201543414611522576040517f08c379a000000000000000000000000000000000000000000000000000000000815260040161151990612807565b60405180910390fd5b5f60035f9054906101000a900473ffffffffffffffffffffffffffffffffffffffff1673ffffffffffffffffffffffffffffffffffffffff1663c20b324d835f01546040518263ffffffff1660e01b81526004016115809190611cbf565b602060405180830381865afa15801561159b573d5f5f3e3d5ffd5b505050506040513d601f19601f820116820180604052508101906115bf9190612023565b90505f60025f9054906101000a900473ffffffffffffffffffffffffffffffffffffffff1673ffffffffffffffffffffffffffffffffffffffff16636d1884e0836040518263ffffffff1660e01b815260040161161c9190611cbf565b5f60405180830381865afa158015611636573d5f5f3e3d5ffd5b505050506040513d5f823e3d601f19601f8201168201806040525081019061165e91906123d5565b90505f73ffffffffffffffffffffffffffffffffffffffff1681610100015173ffffffffffffffffffffffffffffffffffffffff16036116d3576040517f08c379a00000000000000000000000000000000000000000000000000000000081526004016116ca90612466565b60405180910390fd5b806101200151611718576040517f08c379a000000000000000000000000000000000000000000000000000000000815260040161170f906124ce565b60405180910390fd5b8060400151421061175e576040517f08c379a000000000000000000000000000000000000000000000000000000000815260040161175590612536565b60405180910390fd5b5f836003015f6101000a81548160ff021916908315150217905550826001015f9054906101000a900473ffffffffffffffffffffffffffffffffffffffff1673ffffffffffffffffffffffffffffffffffffffff166108fc3490811502906040515f60405180830381858888f193505050501580156117df573d5f5f3e3d5ffd5b5060035f9054906101000a900473ffffffffffffffffffffffffffffffffffffffff1673ffffffffffffffffffffffffffffffffffffffff166323b872dd3033865f01546040518463ffffffff1660e01b815260040161184193929190612687565b5f604051808303815f87803b158015611858575f5ffd5b505af115801561186a573d5f5f3e3d5ffd5b505050503373ffffffffffffffffffffffffffffffffffffffff16835f0154857f54db02055a7cb812edef460e36b83b96e36907eee3adb434ebab305b1e51402d346040516118b99190611cbf565b60405180910390a45050506118cc6119a2565b50565b6118d76119ab565b5f73ffffffffffffffffffffffffffffffffffffffff168173ffffffffffffffffffffffffffffffffffffffff1603611947575f6040517f1e4fbdf700000000000000000000000000000000000000000000000000000000815260040161193e9190611ca6565b60405180910390fd5b61195081611a32565b50565b600260015403611998576040517f08c379a000000000000000000000000000000000000000000000000000000000815260040161198f90612b58565b60405180910390fd5b6002600181905550565b60018081905550565b6119b3611af3565b73ffffffffffffffffffffffffffffffffffffffff166119d16112fc565b73ffffffffffffffffffffffffffffffffffffffff1614611a30576119f4611af3565b6040517f118cdaa7000000000000000000000000000000000000000000000000000000008152600401611a279190611ca6565b60405180910390fd5b565b5f5f5f9054906101000a900473ffffffffffffffffffffffffffffffffffffffff169050815f5f6101000a81548173ffffffffffffffffffffffffffffffffffffffff021916908373ffffffffffffffffffffffffffffffffffffffff1602179055508173ffffffffffffffffffffffffffffffffffffffff168173ffffffffffffffffffffffffffffffffffffffff167f8be0079c531659141344cd1fd0a4f28419497f9722a3daafe3b4186f6b6457e060405160405180910390a35050565b5f33905090565b5f604051905090565b5f5ffd5b5f5ffd5b5f819050919050565b611b1d81611b0b565b8114611b27575f5ffd5b50565b5f81359050611b3881611b14565b92915050565b5f5f60408385031215611b5457611b53611b03565b5b5f611b6185828601611b2a565b9250506020611b7285828601611b2a565b9150509250929050565b5f73ffffffffffffffffffffffffffffffffffffffff82169050919050565b5f611ba582611b7c565b9050919050565b611bb581611b9b565b8114611bbf575f5ffd5b50565b5f81359050611bd081611bac565b92915050565b5f5f60408385031215611bec57611beb611b03565b5b5f611bf985828601611b2a565b9250506020611c0a85828601611bc2565b9150509250929050565b611c1d81611b0b565b82525050565b5f67ffffffffffffffff82169050919050565b611c3f81611c23565b82525050565b5f604082019050611c585f830185611c14565b611c656020830184611c36565b9392505050565b5f60208284031215611c8157611c80611b03565b5b5f611c8e84828501611b2a565b91505092915050565b611ca081611b9b565b82525050565b5f602082019050611cb95f830184611c97565b92915050565b5f602082019050611cd25f830184611c14565b92915050565b5f819050919050565b5f611cfb611cf6611cf184611b7c565b611cd8565b611b7c565b9050919050565b5f611d0c82611ce1565b9050919050565b5f611d1d82611d02565b9050919050565b611d2d81611d13565b82525050565b5f602082019050611d465f830184611d24565b92915050565b5f611d5682611d02565b9050919050565b611d6681611d4c565b82525050565b5f602082019050611d7f5f830184611d5d565b92915050565b5f8115159050919050565b611d9981611d85565b82525050565b5f608082019050611db25f830187611c14565b611dbf6020830186611c97565b611dcc6040830185611c14565b611dd96060830184611d90565b95945050505050565b5f60208284031215611df757611df6611b03565b5b5f611e0484828501611bc2565b91505092915050565b5f81519050611e1b81611bac565b92915050565b5f60208284031215611e3657611e35611b03565b5b5f611e4384828501611e0d565b91505092915050565b5f82825260208201905092915050565b7f4e6f206572657320656c206475656e6f2064656c207469636b657400000000005f82015250565b5f611e90601b83611e4c565b9150611e9b82611e5c565b602082019050919050565b5f6020820190508181035f830152611ebd81611e84565b9050919050565b7f4e487b71000000000000000000000000000000000000000000000000000000005f52602160045260245ffd5b60048110611efd575f5ffd5b50565b5f81519050611f0e81611ef1565b92915050565b5f60208284031215611f2957611f28611b03565b5b5f611f3684828501611f00565b91505092915050565b7f5469636b6574206e6f2076616c69646f000000000000000000000000000000005f82015250565b5f611f73601083611e4c565b9150611f7e82611f3f565b602082019050919050565b5f6020820190508181035f830152611fa081611f67565b9050919050565b7f50726563696f206465626520736572203e2030000000000000000000000000005f82015250565b5f611fdb601383611e4c565b9150611fe682611fa7565b602082019050919050565b5f6020820190508181035f83015261200881611fcf565b9050919050565b5f8151905061201d81611b14565b92915050565b5f6020828403121561203857612037611b03565b5b5f6120458482850161200f565b91505092915050565b5f5ffd5b5f601f19601f8301169050919050565b7f4e487b71000000000000000000000000000000000000000000000000000000005f52604160045260245ffd5b61209882612052565b810181811067ffffffffffffffff821117156120b7576120b6612062565b5b80604052505050565b5f6120c9611afa565b90506120d5828261208f565b919050565b5f5ffd5b5f5ffd5b5f5ffd5b5f67ffffffffffffffff821115612100576120ff612062565b5b61210982612052565b9050602081019050919050565b8281835e5f83830152505050565b5f612136612131846120e6565b6120c0565b905082815260208101848484011115612152576121516120e2565b5b61215d848285612116565b509392505050565b5f82601f830112612179576121786120de565b5b8151612189848260208601612124565b91505092915050565b5f60ff82169050919050565b6121a781612192565b81146121b1575f5ffd5b50565b5f815190506121c28161219e565b92915050565b6121d181611d85565b81146121db575f5ffd5b50565b5f815190506121ec816121c8565b92915050565b5f61ffff82169050919050565b612208816121f2565b8114612212575f5ffd5b50565b5f81519050612223816121ff565b92915050565b5f63ffffffff82169050919050565b61224181612229565b811461224b575f5ffd5b50565b5f8151905061225c81612238565b92915050565b5f61018082840312156122785761227761204e565b5b6122836101806120c0565b90505f6122928482850161200f565b5f83015250602082015167ffffffffffffffff8111156122b5576122b46120da565b5b6122c184828501612165565b60208301525060406122d58482850161200f565b604083015250606082015167ffffffffffffffff8111156122f9576122f86120da565b5b61230584828501612165565b60608301525060806123198482850161200f565b60808301525060a061232d848285016121b4565b60a08301525060c06123418482850161200f565b60c08301525060e082015167ffffffffffffffff811115612365576123646120da565b5b61237184828501612165565b60e08301525061010061238684828501611e0d565b6101008301525061012061239c848285016121de565b610120830152506101406123b284828501612215565b610140830152506101606123c88482850161224e565b6101608301525092915050565b5f602082840312156123ea576123e9611b03565b5b5f82015167ffffffffffffffff81111561240757612406611b07565b5b61241384828501612262565b91505092915050565b7f4576656e746f20696e6578697374656e746500000000000000000000000000005f82015250565b5f612450601283611e4c565b915061245b8261241c565b602082019050919050565b5f6020820190508181035f83015261247d81612444565b9050919050565b7f4576656e746f20696e61637469766f00000000000000000000000000000000005f82015250565b5f6124b8600f83611e4c565b91506124c382612484565b602082019050919050565b5f6020820190508181035f8301526124e5816124ac565b9050919050565b7f4576656e746f207961207061736f0000000000000000000000000000000000005f82015250565b5f612520600e83611e4c565b915061252b826124ec565b602082019050919050565b5f6020820190508181035f83015261254d81612514565b9050919050565b7f4e487b71000000000000000000000000000000000000000000000000000000005f52601160045260245ffd5b5f61258b82611b0b565b915061259683611b0b565b92508282026125a481611b0b565b915082820484148315176125bb576125ba612554565b5b5092915050565b7f4e487b71000000000000000000000000000000000000000000000000000000005f52601260045260245ffd5b5f6125f982611b0b565b915061260483611b0b565b925082612614576126136125c2565b5b828204905092915050565b7f536f6272657061736120656c206d6178696d6f20646520726576656e746100005f82015250565b5f612653601e83611e4c565b915061265e8261261f565b602082019050919050565b5f6020820190508181035f83015261268081612647565b9050919050565b5f60608201905061269a5f830186611c97565b6126a76020830185611c97565b6126b46040830184611c14565b949350505050565b5f6126c682611b0b565b91507fffffffffffffffffffffffffffffffffffffffffffffffffffffffffffffffff82036126f8576126f7612554565b5b600182019050919050565b5f6040820190506127165f830185611c14565b6127236020830184611c97565b9392505050565b5f6020828403121561273f5761273e611b03565b5b5f61274c848285016121de565b91505092915050565b7f4e6f206175746f72697a61646f20706172612076616c696461720000000000005f82015250565b5f612789601a83611e4c565b915061279482612755565b602082019050919050565b5f6020820190508181035f8301526127b68161277d565b9050919050565b7f50726563696f20696e636f72726563746f0000000000000000000000000000005f82015250565b5f6127f1601183611e4c565b91506127fc826127bd565b602082019050919050565b5f6020820190508181035f83015261281e816127e5565b9050919050565b7f4e6f2071756564616e207469636b65747320646973706f6e69626c65730000005f82015250565b5f612859601d83611e4c565b915061286482612825565b602082019050919050565b5f6020820190508181035f8301526128868161284d565b9050919050565b5f61289782611b0b565b91506128a283611b0b565b92508282019050808211156128ba576128b9612554565b5b92915050565b7f4c696d697465206465207469636b65747320706f72206361727465726120616c5f8201527f63616e7a61646f00000000000000000000000000000000000000000000000000602082015250565b5f61291a602783611e4c565b9150612925826128c0565b604082019050919050565b5f6020820190508181035f8301526129478161290e565b9050919050565b5f61295882611c23565b915061296383611c23565b9250828201905067ffffffffffffffff81111561298357612982612554565b5b92915050565b7f4465626573206573706572617220616e74657320646520766f6c7665722061205f8201527f636f6d7072617200000000000000000000000000000000000000000000000000602082015250565b5f6129e3602783611e4c565b91506129ee82612989565b604082019050919050565b5f6020820190508181035f830152612a10816129d7565b9050919050565b5f604082019050612a2a5f830185611c97565b612a376020830184611c14565b9392505050565b7f4c697374696e6720696e616374697661000000000000000000000000000000005f82015250565b5f612a72601083611e4c565b9150612a7d82612a3e565b602082019050919050565b5f6020820190508181035f830152612a9f81612a66565b9050919050565b7f4c697374696e6720696e6578697374656e7465000000000000000000000000005f82015250565b5f612ada601383611e4c565b9150612ae582612aa6565b602082019050919050565b5f6020820190508181035f830152612b0781612ace565b9050919050565b7f5265656e7472616e637947756172643a207265656e7472616e742063616c6c005f82015250565b5f612b42601f83611e4c565b9150612b4d82612b0e565b602082019050919050565b5f6020820190508181035f830152612b6f81612b36565b905091905056fea26469706673582212202976da5d0063656aef5afe791c23b2969f10e2a5886fe38feb065204130d3e0964736f6c634300081e0033",
			"opcodes": "PUSH1 0x80 PUSH1 0x40 MSTORE CALLVALUE DUP1 ISZERO PUSH2 0xF JUMPI PUSH0 PUSH0 REVERT JUMPDEST POP PUSH1 0x40 MLOAD PUSH2 0x304D CODESIZE SUB DUP1 PUSH2 0x304D DUP4 CODECOPY DUP2 DUP2 ADD PUSH1 0x40 MSTORE DUP2 ADD SWAP1 PUSH2 0x31 SWAP2 SWAP1 PUSH2 0x33C JUMP JUMPDEST DUP1 PUSH0 PUSH20 0xFFFFFFFFFFFFFFFFFFFFFFFFFFFFFFFFFFFFFFFF AND DUP2 PUSH20 0xFFFFFFFFFFFFFFFFFFFFFFFFFFFFFFFFFFFFFFFF AND SUB PUSH2 0xA2 JUMPI PUSH0 PUSH1 0x40 MLOAD PUSH32 0x1E4FBDF700000000000000000000000000000000000000000000000000000000 DUP2 MSTORE PUSH1 0x4 ADD PUSH2 0x99 SWAP2 SWAP1 PUSH2 0x39B JUMP JUMPDEST PUSH1 0x40 MLOAD DUP1 SWAP2 SUB SWAP1 REVERT JUMPDEST PUSH2 0xB1 DUP2 PUSH2 0x21D PUSH1 0x20 SHL PUSH1 0x20 SHR JUMP JUMPDEST POP PUSH1 0x1 DUP1 DUP2 SWAP1 SSTORE POP PUSH0 PUSH20 0xFFFFFFFFFFFFFFFFFFFFFFFFFFFFFFFFFFFFFFFF AND DUP4 PUSH20 0xFFFFFFFFFFFFFFFFFFFFFFFFFFFFFFFFFFFFFFFF AND SUB PUSH2 0x127 JUMPI PUSH1 0x40 MLOAD PUSH32 0x8C379A000000000000000000000000000000000000000000000000000000000 DUP2 MSTORE PUSH1 0x4 ADD PUSH2 0x11E SWAP1 PUSH2 0x40E JUMP JUMPDEST PUSH1 0x40 MLOAD DUP1 SWAP2 SUB SWAP1 REVERT JUMPDEST PUSH0 PUSH20 0xFFFFFFFFFFFFFFFFFFFFFFFFFFFFFFFFFFFFFFFF AND DUP3 PUSH20 0xFFFFFFFFFFFFFFFFFFFFFFFFFFFFFFFFFFFFFFFF AND SUB PUSH2 0x195 JUMPI PUSH1 0x40 MLOAD PUSH32 0x8C379A000000000000000000000000000000000000000000000000000000000 DUP2 MSTORE PUSH1 0x4 ADD PUSH2 0x18C SWAP1 PUSH2 0x476 JUMP JUMPDEST PUSH1 0x40 MLOAD DUP1 SWAP2 SUB SWAP1 REVERT JUMPDEST DUP3 PUSH1 0x2 PUSH0 PUSH2 0x100 EXP DUP2 SLOAD DUP2 PUSH20 0xFFFFFFFFFFFFFFFFFFFFFFFFFFFFFFFFFFFFFFFF MUL NOT AND SWAP1 DUP4 PUSH20 0xFFFFFFFFFFFFFFFFFFFFFFFFFFFFFFFFFFFFFFFF AND MUL OR SWAP1 SSTORE POP DUP2 PUSH1 0x3 PUSH0 PUSH2 0x100 EXP DUP2 SLOAD DUP2 PUSH20 0xFFFFFFFFFFFFFFFFFFFFFFFFFFFFFFFFFFFFFFFF MUL NOT AND SWAP1 DUP4 PUSH20 0xFFFFFFFFFFFFFFFFFFFFFFFFFFFFFFFFFFFFFFFF AND MUL OR SWAP1 SSTORE POP POP POP POP PUSH2 0x494 JUMP JUMPDEST PUSH0 PUSH0 PUSH0 SWAP1 SLOAD SWAP1 PUSH2 0x100 EXP SWAP1 DIV PUSH20 0xFFFFFFFFFFFFFFFFFFFFFFFFFFFFFFFFFFFFFFFF AND SWAP1 POP DUP2 PUSH0 PUSH0 PUSH2 0x100 EXP DUP2 SLOAD DUP2 PUSH20 0xFFFFFFFFFFFFFFFFFFFFFFFFFFFFFFFFFFFFFFFF MUL NOT AND SWAP1 DUP4 PUSH20 0xFFFFFFFFFFFFFFFFFFFFFFFFFFFFFFFFFFFFFFFF AND MUL OR SWAP1 SSTORE POP DUP2 PUSH20 0xFFFFFFFFFFFFFFFFFFFFFFFFFFFFFFFFFFFFFFFF AND DUP2 PUSH20 0xFFFFFFFFFFFFFFFFFFFFFFFFFFFFFFFFFFFFFFFF AND PUSH32 0x8BE0079C531659141344CD1FD0A4F28419497F9722A3DAAFE3B4186F6B6457E0 PUSH1 0x40 MLOAD PUSH1 0x40 MLOAD DUP1 SWAP2 SUB SWAP1 LOG3 POP POP JUMP JUMPDEST PUSH0 PUSH0 REVERT JUMPDEST PUSH0 PUSH20 0xFFFFFFFFFFFFFFFFFFFFFFFFFFFFFFFFFFFFFFFF DUP3 AND SWAP1 POP SWAP2 SWAP1 POP JUMP JUMPDEST PUSH0 PUSH2 0x30B DUP3 PUSH2 0x2E2 JUMP JUMPDEST SWAP1 POP SWAP2 SWAP1 POP JUMP JUMPDEST PUSH2 0x31B DUP2 PUSH2 0x301 JUMP JUMPDEST DUP2 EQ PUSH2 0x325 JUMPI PUSH0 PUSH0 REVERT JUMPDEST POP JUMP JUMPDEST PUSH0 DUP2 MLOAD SWAP1 POP PUSH2 0x336 DUP2 PUSH2 0x312 JUMP JUMPDEST SWAP3 SWAP2 POP POP JUMP JUMPDEST PUSH0 PUSH0 PUSH0 PUSH1 0x60 DUP5 DUP7 SUB SLT ISZERO PUSH2 0x353 JUMPI PUSH2 0x352 PUSH2 0x2DE JUMP JUMPDEST JUMPDEST PUSH0 PUSH2 0x360 DUP7 DUP3 DUP8 ADD PUSH2 0x328 JUMP JUMPDEST SWAP4 POP POP PUSH1 0x20 PUSH2 0x371 DUP7 DUP3 DUP8 ADD PUSH2 0x328 JUMP JUMPDEST SWAP3 POP POP PUSH1 0x40 PUSH2 0x382 DUP7 DUP3 DUP8 ADD PUSH2 0x328 JUMP JUMPDEST SWAP2 POP POP SWAP3 POP SWAP3 POP SWAP3 JUMP JUMPDEST PUSH2 0x395 DUP2 PUSH2 0x301 JUMP JUMPDEST DUP3 MSTORE POP POP JUMP JUMPDEST PUSH0 PUSH1 0x20 DUP3 ADD SWAP1 POP PUSH2 0x3AE PUSH0 DUP4 ADD DUP5 PUSH2 0x38C JUMP JUMPDEST SWAP3 SWAP2 POP POP JUMP JUMPDEST PUSH0 DUP3 DUP3 MSTORE PUSH1 0x20 DUP3 ADD SWAP1 POP SWAP3 SWAP2 POP POP JUMP JUMPDEST PUSH32 0x4576656E745265676973747279206365726F0000000000000000000000000000 PUSH0 DUP3 ADD MSTORE POP JUMP JUMPDEST PUSH0 PUSH2 0x3F8 PUSH1 0x12 DUP4 PUSH2 0x3B4 JUMP JUMPDEST SWAP2 POP PUSH2 0x403 DUP3 PUSH2 0x3C4 JUMP JUMPDEST PUSH1 0x20 DUP3 ADD SWAP1 POP SWAP2 SWAP1 POP JUMP JUMPDEST PUSH0 PUSH1 0x20 DUP3 ADD SWAP1 POP DUP2 DUP2 SUB PUSH0 DUP4 ADD MSTORE PUSH2 0x425 DUP2 PUSH2 0x3EC JUMP JUMPDEST SWAP1 POP SWAP2 SWAP1 POP JUMP JUMPDEST PUSH32 0x5469636B65744E4654206365726F000000000000000000000000000000000000 PUSH0 DUP3 ADD MSTORE POP JUMP JUMPDEST PUSH0 PUSH2 0x460 PUSH1 0xE DUP4 PUSH2 0x3B4 JUMP JUMPDEST SWAP2 POP PUSH2 0x46B DUP3 PUSH2 0x42C JUMP JUMPDEST PUSH1 0x20 DUP3 ADD SWAP1 POP SWAP2 SWAP1 POP JUMP JUMPDEST PUSH0 PUSH1 0x20 DUP3 ADD SWAP1 POP DUP2 DUP2 SUB PUSH0 DUP4 ADD MSTORE PUSH2 0x48D DUP2 PUSH2 0x454 JUMP JUMPDEST SWAP1 POP SWAP2 SWAP1 POP JUMP JUMPDEST PUSH2 0x2BAC DUP1 PUSH2 0x4A1 PUSH0 CODECOPY PUSH0 RETURN INVALID PUSH1 0x80 PUSH1 0x40 MSTORE PUSH1 0x4 CALLDATASIZE LT PUSH2 0xC1 JUMPI PUSH0 CALLDATALOAD PUSH1 0xE0 SHR DUP1 PUSH4 0xAACCF1EC GT PUSH2 0x7E JUMPI DUP1 PUSH4 0xDE74E57B GT PUSH2 0x58 JUMPI DUP1 PUSH4 0xDE74E57B EQ PUSH2 0x22C JUMPI DUP1 PUSH4 0xDF55E97F EQ PUSH2 0x26B JUMPI DUP1 PUSH4 0xDFFC3FAC EQ PUSH2 0x2A7 JUMPI DUP1 PUSH4 0xF2FDE38B EQ PUSH2 0x2C3 JUMPI PUSH2 0xC1 JUMP JUMPDEST DUP1 PUSH4 0xAACCF1EC EQ PUSH2 0x1AE JUMPI DUP1 PUSH4 0xACAACAD5 EQ PUSH2 0x1D8 JUMPI DUP1 PUSH4 0xB393391B EQ PUSH2 0x202 JUMPI PUSH2 0xC1 JUMP JUMPDEST DUP1 PUSH4 0x1F7D863C EQ PUSH2 0xC5 JUMPI DUP1 PUSH4 0x6047C5A4 EQ PUSH2 0xED JUMPI DUP1 PUSH4 0x6C27C138 EQ PUSH2 0x12A JUMPI DUP1 PUSH4 0x715018A6 EQ PUSH2 0x152 JUMPI DUP1 PUSH4 0x7FAB0621 EQ PUSH2 0x168 JUMPI DUP1 PUSH4 0x8DA5CB5B EQ PUSH2 0x184 JUMPI JUMPDEST PUSH0 PUSH0 REVERT JUMPDEST CALLVALUE DUP1 ISZERO PUSH2 0xD0 JUMPI PUSH0 PUSH0 REVERT JUMPDEST POP PUSH2 0xEB PUSH1 0x4 DUP1 CALLDATASIZE SUB DUP2 ADD SWAP1 PUSH2 0xE6 SWAP2 SWAP1 PUSH2 0x1B3E JUMP JUMPDEST PUSH2 0x2EB JUMP JUMPDEST STOP JUMPDEST CALLVALUE DUP1 ISZERO PUSH2 0xF8 JUMPI PUSH0 PUSH0 REVERT JUMPDEST POP PUSH2 0x113 PUSH1 0x4 DUP1 CALLDATASIZE SUB DUP2 ADD SWAP1 PUSH2 0x10E SWAP2 SWAP1 PUSH2 0x1BD6 JUMP JUMPDEST PUSH2 0x9A5 JUMP JUMPDEST PUSH1 0x40 MLOAD PUSH2 0x121 SWAP3 SWAP2 SWAP1 PUSH2 0x1C45 JUMP JUMPDEST PUSH1 0x40 MLOAD DUP1 SWAP2 SUB SWAP1 RETURN JUMPDEST CALLVALUE DUP1 ISZERO PUSH2 0x135 JUMPI PUSH0 PUSH0 REVERT JUMPDEST POP PUSH2 0x150 PUSH1 0x4 DUP1 CALLDATASIZE SUB DUP2 ADD SWAP1 PUSH2 0x14B SWAP2 SWAP1 PUSH2 0x1C6C JUMP JUMPDEST PUSH2 0x9E3 JUMP JUMPDEST STOP JUMPDEST CALLVALUE DUP1 ISZERO PUSH2 0x15D JUMPI PUSH0 PUSH0 REVERT JUMPDEST POP PUSH2 0x166 PUSH2 0xDC9 JUMP JUMPDEST STOP JUMPDEST PUSH2 0x182 PUSH1 0x4 DUP1 CALLDATASIZE SUB DUP2 ADD SWAP1 PUSH2 0x17D SWAP2 SWAP1 PUSH2 0x1C6C JUMP JUMPDEST PUSH2 0xDDC JUMP JUMPDEST STOP JUMPDEST CALLVALUE DUP1 ISZERO PUSH2 0x18F JUMPI PUSH0 PUSH0 REVERT JUMPDEST POP PUSH2 0x198 PUSH2 0x12FC JUMP JUMPDEST PUSH1 0x40 MLOAD PUSH2 0x1A5 SWAP2 SWAP1 PUSH2 0x1CA6 JUMP JUMPDEST PUSH1 0x40 MLOAD DUP1 SWAP2 SUB SWAP1 RETURN JUMPDEST CALLVALUE DUP1 ISZERO PUSH2 0x1B9 JUMPI PUSH0 PUSH0 REVERT JUMPDEST POP PUSH2 0x1C2 PUSH2 0x1323 JUMP JUMPDEST PUSH1 0x40 MLOAD PUSH2 0x1CF SWAP2 SWAP1 PUSH2 0x1CBF JUMP JUMPDEST PUSH1 0x40 MLOAD DUP1 SWAP2 SUB SWAP1 RETURN JUMPDEST CALLVALUE DUP1 ISZERO PUSH2 0x1E3 JUMPI PUSH0 PUSH0 REVERT JUMPDEST POP PUSH2 0x1EC PUSH2 0x1329 JUMP JUMPDEST PUSH1 0x40 MLOAD PUSH2 0x1F9 SWAP2 SWAP1 PUSH2 0x1D33 JUMP JUMPDEST PUSH1 0x40 MLOAD DUP1 SWAP2 SUB SWAP1 RETURN JUMPDEST CALLVALUE DUP1 ISZERO PUSH2 0x20D JUMPI PUSH0 PUSH0 REVERT JUMPDEST POP PUSH2 0x216 PUSH2 0x134E JUMP JUMPDEST PUSH1 0x40 MLOAD PUSH2 0x223 SWAP2 SWAP1 PUSH2 0x1D6C JUMP JUMPDEST PUSH1 0x40 MLOAD DUP1 SWAP2 SUB SWAP1 RETURN JUMPDEST CALLVALUE DUP1 ISZERO PUSH2 0x237 JUMPI PUSH0 PUSH0 REVERT JUMPDEST POP PUSH2 0x252 PUSH1 0x4 DUP1 CALLDATASIZE SUB DUP2 ADD SWAP1 PUSH2 0x24D SWAP2 SWAP1 PUSH2 0x1C6C JUMP JUMPDEST PUSH2 0x1373 JUMP JUMPDEST PUSH1 0x40 MLOAD PUSH2 0x262 SWAP5 SWAP4 SWAP3 SWAP2 SWAP1 PUSH2 0x1D9F JUMP JUMPDEST PUSH1 0x40 MLOAD DUP1 SWAP2 SUB SWAP1 RETURN JUMPDEST CALLVALUE DUP1 ISZERO PUSH2 0x276 JUMPI PUSH0 PUSH0 REVERT JUMPDEST POP PUSH2 0x291 PUSH1 0x4 DUP1 CALLDATASIZE SUB DUP2 ADD SWAP1 PUSH2 0x28C SWAP2 SWAP1 PUSH2 0x1C6C JUMP JUMPDEST PUSH2 0x13CA JUMP JUMPDEST PUSH1 0x40 MLOAD PUSH2 0x29E SWAP2 SWAP1 PUSH2 0x1CBF JUMP JUMPDEST PUSH1 0x40 MLOAD DUP1 SWAP2 SUB SWAP1 RETURN JUMPDEST PUSH2 0x2C1 PUSH1 0x4 DUP1 CALLDATASIZE SUB DUP2 ADD SWAP1 PUSH2 0x2BC SWAP2 SWAP1 PUSH2 0x1C6C JUMP JUMPDEST PUSH2 0x13DF JUMP JUMPDEST STOP JUMPDEST CALLVALUE DUP1 ISZERO PUSH2 0x2CE JUMPI PUSH0 PUSH0 REVERT JUMPDEST POP PUSH2 0x2E9 PUSH1 0x4 DUP1 CALLDATASIZE SUB DUP2 ADD SWAP1 PUSH2 0x2E4 SWAP2 SWAP1 PUSH2 0x1DE2 JUMP JUMPDEST PUSH2 0x18CF JUMP JUMPDEST STOP JUMPDEST PUSH2 0x2F3 PUSH2 0x1953 JUMP JUMPDEST CALLER PUSH20 0xFFFFFFFFFFFFFFFFFFFFFFFFFFFFFFFFFFFFFFFF AND PUSH1 0x3 PUSH0 SWAP1 SLOAD SWAP1 PUSH2 0x100 EXP SWAP1 DIV PUSH20 0xFFFFFFFFFFFFFFFFFFFFFFFFFFFFFFFFFFFFFFFF AND PUSH20 0xFFFFFFFFFFFFFFFFFFFFFFFFFFFFFFFFFFFFFFFF AND PUSH4 0x6352211E DUP5 PUSH1 0x40 MLOAD DUP3 PUSH4 0xFFFFFFFF AND PUSH1 0xE0 SHL DUP2 MSTORE PUSH1 0x4 ADD PUSH2 0x364 SWAP2 SWAP1 PUSH2 0x1CBF JUMP JUMPDEST PUSH1 0x20 PUSH1 0x40 MLOAD DUP1 DUP4 SUB DUP2 DUP7 GAS STATICCALL ISZERO DUP1 ISZERO PUSH2 0x37F JUMPI RETURNDATASIZE PUSH0 PUSH0 RETURNDATACOPY RETURNDATASIZE PUSH0 REVERT JUMPDEST POP POP POP POP PUSH1 0x40 MLOAD RETURNDATASIZE PUSH1 0x1F NOT PUSH1 0x1F DUP3 ADD AND DUP3 ADD DUP1 PUSH1 0x40 MSTORE POP DUP2 ADD SWAP1 PUSH2 0x3A3 SWAP2 SWAP1 PUSH2 0x1E21 JUMP JUMPDEST PUSH20 0xFFFFFFFFFFFFFFFFFFFFFFFFFFFFFFFFFFFFFFFF AND EQ PUSH2 0x3F9 JUMPI PUSH1 0x40 MLOAD PUSH32 0x8C379A000000000000000000000000000000000000000000000000000000000 DUP2 MSTORE PUSH1 0x4 ADD PUSH2 0x3F0 SWAP1 PUSH2 0x1EA6 JUMP JUMPDEST PUSH1 0x40 MLOAD DUP1 SWAP2 SUB SWAP1 REVERT JUMPDEST PUSH1 0x1 PUSH1 0x3 DUP2 GT ISZERO PUSH2 0x40D JUMPI PUSH2 0x40C PUSH2 0x1EC4 JUMP JUMPDEST JUMPDEST PUSH1 0x3 PUSH0 SWAP1 SLOAD SWAP1 PUSH2 0x100 EXP SWAP1 DIV PUSH20 0xFFFFFFFFFFFFFFFFFFFFFFFFFFFFFFFFFFFFFFFF AND PUSH20 0xFFFFFFFFFFFFFFFFFFFFFFFFFFFFFFFFFFFFFFFF AND PUSH4 0xA1D891BB DUP5 PUSH1 0x40 MLOAD DUP3 PUSH4 0xFFFFFFFF AND PUSH1 0xE0 SHL DUP2 MSTORE PUSH1 0x4 ADD PUSH2 0x467 SWAP2 SWAP1 PUSH2 0x1CBF JUMP JUMPDEST PUSH1 0x20 PUSH1 0x40 MLOAD DUP1 DUP4 SUB DUP2 DUP7 GAS STATICCALL ISZERO DUP1 ISZERO PUSH2 0x482 JUMPI RETURNDATASIZE PUSH0 PUSH0 RETURNDATACOPY RETURNDATASIZE PUSH0 REVERT JUMPDEST POP POP POP POP PUSH1 0x40 MLOAD RETURNDATASIZE PUSH1 0x1F NOT PUSH1 0x1F DUP3 ADD AND DUP3 ADD DUP1 PUSH1 0x40 MSTORE POP DUP2 ADD SWAP1 PUSH2 0x4A6 SWAP2 SWAP1 PUSH2 0x1F14 JUMP JUMPDEST PUSH1 0x3 DUP2 GT ISZERO PUSH2 0x4B8 JUMPI PUSH2 0x4B7 PUSH2 0x1EC4 JUMP JUMPDEST JUMPDEST EQ PUSH2 0x4F8 JUMPI PUSH1 0x40 MLOAD PUSH32 0x8C379A000000000000000000000000000000000000000000000000000000000 DUP2 MSTORE PUSH1 0x4 ADD PUSH2 0x4EF SWAP1 PUSH2 0x1F89 JUMP JUMPDEST PUSH1 0x40 MLOAD DUP1 SWAP2 SUB SWAP1 REVERT JUMPDEST PUSH0 DUP2 GT PUSH2 0x53A JUMPI PUSH1 0x40 MLOAD PUSH32 0x8C379A000000000000000000000000000000000000000000000000000000000 DUP2 MSTORE PUSH1 0x4 ADD PUSH2 0x531 SWAP1 PUSH2 0x1FF1 JUMP JUMPDEST PUSH1 0x40 MLOAD DUP1 SWAP2 SUB SWAP1 REVERT JUMPDEST PUSH0 PUSH1 0x3 PUSH0 SWAP1 SLOAD SWAP1 PUSH2 0x100 EXP SWAP1 DIV PUSH20 0xFFFFFFFFFFFFFFFFFFFFFFFFFFFFFFFFFFFFFFFF AND PUSH20 0xFFFFFFFFFFFFFFFFFFFFFFFFFFFFFFFFFFFFFFFF AND PUSH4 0xC20B324D DUP5 PUSH1 0x40 MLOAD DUP3 PUSH4 0xFFFFFFFF AND PUSH1 0xE0 SHL DUP2 MSTORE PUSH1 0x4 ADD PUSH2 0x595 SWAP2 SWAP1 PUSH2 0x1CBF JUMP JUMPDEST PUSH1 0x20 PUSH1 0x40 MLOAD DUP1 DUP4 SUB DUP2 DUP7 GAS STATICCALL ISZERO DUP1 ISZERO PUSH2 0x5B0 JUMPI RETURNDATASIZE PUSH0 PUSH0 RETURNDATACOPY RETURNDATASIZE PUSH0 REVERT JUMPDEST POP POP POP POP PUSH1 0x40 MLOAD RETURNDATASIZE PUSH1 0x1F NOT PUSH1 0x1F DUP3 ADD AND DUP3 ADD DUP1 PUSH1 0x40 MSTORE POP DUP2 ADD SWAP1 PUSH2 0x5D4 SWAP2 SWAP1 PUSH2 0x2023 JUMP JUMPDEST SWAP1 POP PUSH0 PUSH1 0x2 PUSH0 SWAP1 SLOAD SWAP1 PUSH2 0x100 EXP SWAP1 DIV PUSH20 0xFFFFFFFFFFFFFFFFFFFFFFFFFFFFFFFFFFFFFFFF AND PUSH20 0xFFFFFFFFFFFFFFFFFFFFFFFFFFFFFFFFFFFFFFFF AND PUSH4 0x6D1884E0 DUP4 PUSH1 0x40 MLOAD DUP3 PUSH4 0xFFFFFFFF AND PUSH1 0xE0 SHL DUP2 MSTORE PUSH1 0x4 ADD PUSH2 0x631 SWAP2 SWAP1 PUSH2 0x1CBF JUMP JUMPDEST PUSH0 PUSH1 0x40 MLOAD DUP1 DUP4 SUB DUP2 DUP7 GAS STATICCALL ISZERO DUP1 ISZERO PUSH2 0x64B JUMPI RETURNDATASIZE PUSH0 PUSH0 RETURNDATACOPY RETURNDATASIZE PUSH0 REVERT JUMPDEST POP POP POP POP PUSH1 0x40 MLOAD RETURNDATASIZE PUSH0 DUP3 RETURNDATACOPY RETURNDATASIZE PUSH1 0x1F NOT PUSH1 0x1F DUP3 ADD AND DUP3 ADD DUP1 PUSH1 0x40 MSTORE POP DUP2 ADD SWAP1 PUSH2 0x673 SWAP2 SWAP1 PUSH2 0x23D5 JUMP JUMPDEST SWAP1 POP PUSH0 PUSH20 0xFFFFFFFFFFFFFFFFFFFFFFFFFFFFFFFFFFFFFFFF AND DUP2 PUSH2 0x100 ADD MLOAD PUSH20 0xFFFFFFFFFFFFFFFFFFFFFFFFFFFFFFFFFFFFFFFF AND SUB PUSH2 0x6E8 JUMPI PUSH1 0x40 MLOAD PUSH32 0x8C379A000000000000000000000000000000000000000000000000000000000 DUP2 MSTORE PUSH1 0x4 ADD PUSH2 0x6DF SWAP1 PUSH2 0x2466 JUMP JUMPDEST PUSH1 0x40 MLOAD DUP1 SWAP2 SUB SWAP1 REVERT JUMPDEST DUP1 PUSH2 0x120 ADD MLOAD PUSH2 0x72D JUMPI PUSH1 0x40 MLOAD PUSH32 0x8C379A000000000000000000000000000000000000000000000000000000000 DUP2 MSTORE PUSH1 0x4 ADD PUSH2 0x724 SWAP1 PUSH2 0x24CE JUMP JUMPDEST PUSH1 0x40 MLOAD DUP1 SWAP2 SUB SWAP1 REVERT JUMPDEST DUP1 PUSH1 0x40 ADD MLOAD TIMESTAMP LT PUSH2 0x773 JUMPI PUSH1 0x40 MLOAD PUSH32 0x8C379A000000000000000000000000000000000000000000000000000000000 DUP2 MSTORE PUSH1 0x4 ADD PUSH2 0x76A SWAP1 PUSH2 0x2536 JUMP JUMPDEST PUSH1 0x40 MLOAD DUP1 SWAP2 SUB SWAP1 REVERT JUMPDEST PUSH0 PUSH1 0x64 DUP3 PUSH1 0xA0 ADD MLOAD PUSH1 0xFF AND DUP4 PUSH1 0x80 ADD MLOAD PUSH2 0x78D SWAP2 SWAP1 PUSH2 0x2581 JUMP JUMPDEST PUSH2 0x797 SWAP2 SWAP1 PUSH2 0x25EF JUMP JUMPDEST SWAP1 POP DUP1 DUP5 GT ISZERO PUSH2 0x7DC JUMPI PUSH1 0x40 MLOAD PUSH32 0x8C379A000000000000000000000000000000000000000000000000000000000 DUP2 MSTORE PUSH1 0x4 ADD PUSH2 0x7D3 SWAP1 PUSH2 0x2669 JUMP JUMPDEST PUSH1 0x40 MLOAD DUP1 SWAP2 SUB SWAP1 REVERT JUMPDEST PUSH1 0x3 PUSH0 SWAP1 SLOAD SWAP1 PUSH2 0x100 EXP SWAP1 DIV PUSH20 0xFFFFFFFFFFFFFFFFFFFFFFFFFFFFFFFFFFFFFFFF AND PUSH20 0xFFFFFFFFFFFFFFFFFFFFFFFFFFFFFFFFFFFFFFFF AND PUSH4 0x23B872DD CALLER ADDRESS DUP9 PUSH1 0x40 MLOAD DUP5 PUSH4 0xFFFFFFFF AND PUSH1 0xE0 SHL DUP2 MSTORE PUSH1 0x4 ADD PUSH2 0x83A SWAP4 SWAP3 SWAP2 SWAP1 PUSH2 0x2687 JUMP JUMPDEST PUSH0 PUSH1 0x40 MLOAD DUP1 DUP4 SUB DUP2 PUSH0 DUP8 DUP1 EXTCODESIZE ISZERO DUP1 ISZERO PUSH2 0x851 JUMPI PUSH0 PUSH0 REVERT JUMPDEST POP GAS CALL ISZERO DUP1 ISZERO PUSH2 0x863 JUMPI RETURNDATASIZE PUSH0 PUSH0 RETURNDATACOPY RETURNDATASIZE PUSH0 REVERT JUMPDEST POP POP POP POP PUSH0 PUSH1 0x4 PUSH0 DUP2 SLOAD DUP1 SWAP3 SWAP2 SWAP1 PUSH2 0x87A SWAP1 PUSH2 0x26BC JUMP JUMPDEST SWAP2 SWAP1 POP SSTORE SWAP1 POP PUSH1 0x40 MLOAD DUP1 PUSH1 0x80 ADD PUSH1 0x40 MSTORE DUP1 DUP8 DUP2 MSTORE PUSH1 0x20 ADD CALLER PUSH20 0xFFFFFFFFFFFFFFFFFFFFFFFFFFFFFFFFFFFFFFFF AND DUP2 MSTORE PUSH1 0x20 ADD DUP7 DUP2 MSTORE PUSH1 0x20 ADD PUSH1 0x1 ISZERO ISZERO DUP2 MSTORE POP PUSH1 0x5 PUSH0 DUP4 DUP2 MSTORE PUSH1 0x20 ADD SWAP1 DUP2 MSTORE PUSH1 0x20 ADD PUSH0 KECCAK256 PUSH0 DUP3 ADD MLOAD DUP2 PUSH0 ADD SSTORE PUSH1 0x20 DUP3 ADD MLOAD DUP2 PUSH1 0x1 ADD PUSH0 PUSH2 0x100 EXP DUP2 SLOAD DUP2 PUSH20 0xFFFFFFFFFFFFFFFFFFFFFFFFFFFFFFFFFFFFFFFF MUL NOT AND SWAP1 DUP4 PUSH20 0xFFFFFFFFFFFFFFFFFFFFFFFFFFFFFFFFFFFFFFFF AND MUL OR SWAP1 SSTORE POP PUSH1 0x40 DUP3 ADD MLOAD DUP2 PUSH1 0x2 ADD SSTORE PUSH1 0x60 DUP3 ADD MLOAD DUP2 PUSH1 0x3 ADD PUSH0 PUSH2 0x100 EXP DUP2 SLOAD DUP2 PUSH1 0xFF MUL NOT AND SWAP1 DUP4 ISZERO ISZERO MUL OR SWAP1 SSTORE POP SWAP1 POP POP CALLER PUSH20 0xFFFFFFFFFFFFFFFFFFFFFFFFFFFFFFFFFFFFFFFF AND DUP7 DUP3 PUSH32 0x8B84647EC667515D9CE59E74AB9BB64476EC404345EBB9DFC3EA275BB6D8EE9B DUP9 PUSH1 0x40 MLOAD PUSH2 0x98D SWAP2 SWAP1 PUSH2 0x1CBF JUMP JUMPDEST PUSH1 0x40 MLOAD DUP1 SWAP2 SUB SWAP1 LOG4 POP POP POP POP PUSH2 0x9A1 PUSH2 0x19A2 JUMP JUMPDEST POP POP JUMP JUMPDEST PUSH1 0x7 PUSH1 0x20 MSTORE DUP2 PUSH0 MSTORE PUSH1 0x40 PUSH0 KECCAK256 PUSH1 0x20 MSTORE DUP1 PUSH0 MSTORE PUSH1 0x40 PUSH0 KECCAK256 PUSH0 SWAP2 POP SWAP2 POP POP DUP1 PUSH0 ADD SLOAD SWAP1 DUP1 PUSH1 0x1 ADD PUSH0 SWAP1 SLOAD SWAP1 PUSH2 0x100 EXP SWAP1 DIV PUSH8 0xFFFFFFFFFFFFFFFF AND SWAP1 POP DUP3 JUMP JUMPDEST PUSH2 0x9EB PUSH2 0x1953 JUMP JUMPDEST PUSH0 PUSH1 0x3 PUSH0 SWAP1 SLOAD SWAP1 PUSH2 0x100 EXP SWAP1 DIV PUSH20 0xFFFFFFFFFFFFFFFFFFFFFFFFFFFFFFFFFFFFFFFF AND PUSH20 0xFFFFFFFFFFFFFFFFFFFFFFFFFFFFFFFFFFFFFFFF AND PUSH4 0xC20B324D DUP4 PUSH1 0x40 MLOAD DUP3 PUSH4 0xFFFFFFFF AND PUSH1 0xE0 SHL DUP2 MSTORE PUSH1 0x4 ADD PUSH2 0xA46 SWAP2 SWAP1 PUSH2 0x1CBF JUMP JUMPDEST PUSH1 0x20 PUSH1 0x40 MLOAD DUP1 DUP4 SUB DUP2 DUP7 GAS STATICCALL ISZERO DUP1 ISZERO PUSH2 0xA61 JUMPI RETURNDATASIZE PUSH0 PUSH0 RETURNDATACOPY RETURNDATASIZE PUSH0 REVERT JUMPDEST POP POP POP POP PUSH1 0x40 MLOAD RETURNDATASIZE PUSH1 0x1F NOT PUSH1 0x1F DUP3 ADD AND DUP3 ADD DUP1 PUSH1 0x40 MSTORE POP DUP2 ADD SWAP1 PUSH2 0xA85 SWAP2 SWAP1 PUSH2 0x2023 JUMP JUMPDEST SWAP1 POP PUSH0 PUSH1 0x2 PUSH0 SWAP1 SLOAD SWAP1 PUSH2 0x100 EXP SWAP1 DIV PUSH20 0xFFFFFFFFFFFFFFFFFFFFFFFFFFFFFFFFFFFFFFFF AND PUSH20 0xFFFFFFFFFFFFFFFFFFFFFFFFFFFFFFFFFFFFFFFF AND PUSH4 0x6D1884E0 DUP4 PUSH1 0x40 MLOAD DUP3 PUSH4 0xFFFFFFFF AND PUSH1 0xE0 SHL DUP2 MSTORE PUSH1 0x4 ADD PUSH2 0xAE2 SWAP2 SWAP1 PUSH2 0x1CBF JUMP JUMPDEST PUSH0 PUSH1 0x40 MLOAD DUP1 DUP4 SUB DUP2 DUP7 GAS STATICCALL ISZERO DUP1 ISZERO PUSH2 0xAFC JUMPI RETURNDATASIZE PUSH0 PUSH0 RETURNDATACOPY RETURNDATASIZE PUSH0 REVERT JUMPDEST POP POP POP POP PUSH1 0x40 MLOAD RETURNDATASIZE PUSH0 DUP3 RETURNDATACOPY RETURNDATASIZE PUSH1 0x1F NOT PUSH1 0x1F DUP3 ADD AND DUP3 ADD DUP1 PUSH1 0x40 MSTORE POP DUP2 ADD SWAP1 PUSH2 0xB24 SWAP2 SWAP1 PUSH2 0x23D5 JUMP JUMPDEST SWAP1 POP PUSH0 PUSH20 0xFFFFFFFFFFFFFFFFFFFFFFFFFFFFFFFFFFFFFFFF AND DUP2 PUSH2 0x100 ADD MLOAD PUSH20 0xFFFFFFFFFFFFFFFFFFFFFFFFFFFFFFFFFFFFFFFF AND SUB PUSH2 0xB99 JUMPI PUSH1 0x40 MLOAD PUSH32 0x8C379A000000000000000000000000000000000000000000000000000000000 DUP2 MSTORE PUSH1 0x4 ADD PUSH2 0xB90 SWAP1 PUSH2 0x2466 JUMP JUMPDEST PUSH1 0x40 MLOAD DUP1 SWAP2 SUB SWAP1 REVERT JUMPDEST PUSH0 DUP2 PUSH2 0x100 ADD MLOAD PUSH20 0xFFFFFFFFFFFFFFFFFFFFFFFFFFFFFFFFFFFFFFFF AND CALLER PUSH20 0xFFFFFFFFFFFFFFFFFFFFFFFFFFFFFFFFFFFFFFFF AND EQ DUP1 PUSH2 0xC70 JUMPI POP PUSH1 0x2 PUSH0 SWAP1 SLOAD SWAP1 PUSH2 0x100 EXP SWAP1 DIV PUSH20 0xFFFFFFFFFFFFFFFFFFFFFFFFFFFFFFFFFFFFFFFF AND PUSH20 0xFFFFFFFFFFFFFFFFFFFFFFFFFFFFFFFFFFFFFFFF AND PUSH4 0x23F2A73F DUP5 CALLER PUSH1 0x40 MLOAD DUP4 PUSH4 0xFFFFFFFF AND PUSH1 0xE0 SHL DUP2 MSTORE PUSH1 0x4 ADD PUSH2 0xC30 SWAP3 SWAP2 SWAP1 PUSH2 0x2703 JUMP JUMPDEST PUSH1 0x20 PUSH1 0x40 MLOAD DUP1 DUP4 SUB DUP2 DUP7 GAS STATICCALL ISZERO DUP1 ISZERO PUSH2 0xC4B JUMPI RETURNDATASIZE PUSH0 PUSH0 RETURNDATACOPY RETURNDATASIZE PUSH0 REVERT JUMPDEST POP POP POP POP PUSH1 0x40 MLOAD RETURNDATASIZE PUSH1 0x1F NOT PUSH1 0x1F DUP3 ADD AND DUP3 ADD DUP1 PUSH1 0x40 MSTORE POP DUP2 ADD SWAP1 PUSH2 0xC6F SWAP2 SWAP1 PUSH2 0x272A JUMP JUMPDEST JUMPDEST DUP1 PUSH2 0xCAD JUMPI POP PUSH2 0xC7E PUSH2 0x12FC JUMP JUMPDEST PUSH20 0xFFFFFFFFFFFFFFFFFFFFFFFFFFFFFFFFFFFFFFFF AND CALLER PUSH20 0xFFFFFFFFFFFFFFFFFFFFFFFFFFFFFFFFFFFFFFFF AND EQ JUMPDEST SWAP1 POP DUP1 PUSH2 0xCEF JUMPI PUSH1 0x40 MLOAD PUSH32 0x8C379A000000000000000000000000000000000000000000000000000000000 DUP2 MSTORE PUSH1 0x4 ADD PUSH2 0xCE6 SWAP1 PUSH2 0x279F JUMP JUMPDEST PUSH1 0x40 MLOAD DUP1 SWAP2 SUB SWAP1 REVERT JUMPDEST PUSH1 0x3 PUSH0 SWAP1 SLOAD SWAP1 PUSH2 0x100 EXP SWAP1 DIV PUSH20 0xFFFFFFFFFFFFFFFFFFFFFFFFFFFFFFFFFFFFFFFF AND PUSH20 0xFFFFFFFFFFFFFFFFFFFFFFFFFFFFFFFFFFFFFFFF AND PUSH4 0x27401CA5 DUP6 PUSH1 0x40 MLOAD DUP3 PUSH4 0xFFFFFFFF AND PUSH1 0xE0 SHL DUP2 MSTORE PUSH1 0x4 ADD PUSH2 0xD49 SWAP2 SWAP1 PUSH2 0x1CBF JUMP JUMPDEST PUSH0 PUSH1 0x40 MLOAD DUP1 DUP4 SUB DUP2 PUSH0 DUP8 DUP1 EXTCODESIZE ISZERO DUP1 ISZERO PUSH2 0xD60 JUMPI PUSH0 PUSH0 REVERT JUMPDEST POP GAS CALL ISZERO DUP1 ISZERO PUSH2 0xD72 JUMPI RETURNDATASIZE PUSH0 PUSH0 RETURNDATACOPY RETURNDATASIZE PUSH0 REVERT JUMPDEST POP POP POP POP CALLER PUSH20 0xFFFFFFFFFFFFFFFFFFFFFFFFFFFFFFFFFFFFFFFF AND DUP4 DUP6 PUSH32 0xB35EBDFB9515B145E406C5C5A0846EC436DB0B9560927AF3AF7A754D90C4F6FF PUSH1 0x40 MLOAD PUSH1 0x40 MLOAD DUP1 SWAP2 SUB SWAP1 LOG4 POP POP POP PUSH2 0xDC6 PUSH2 0x19A2 JUMP JUMPDEST POP JUMP JUMPDEST PUSH2 0xDD1 PUSH2 0x19AB JUMP JUMPDEST PUSH2 0xDDA PUSH0 PUSH2 0x1A32 JUMP JUMPDEST JUMP JUMPDEST PUSH2 0xDE4 PUSH2 0x1953 JUMP JUMPDEST PUSH0 PUSH1 0x2 PUSH0 SWAP1 SLOAD SWAP1 PUSH2 0x100 EXP SWAP1 DIV PUSH20 0xFFFFFFFFFFFFFFFFFFFFFFFFFFFFFFFFFFFFFFFF AND PUSH20 0xFFFFFFFFFFFFFFFFFFFFFFFFFFFFFFFFFFFFFFFF AND PUSH4 0x6D1884E0 DUP4 PUSH1 0x40 MLOAD DUP3 PUSH4 0xFFFFFFFF AND PUSH1 0xE0 SHL DUP2 MSTORE PUSH1 0x4 ADD PUSH2 0xE3F SWAP2 SWAP1 PUSH2 0x1CBF JUMP JUMPDEST PUSH0 PUSH1 0x40 MLOAD DUP1 DUP4 SUB DUP2 DUP7 GAS STATICCALL ISZERO DUP1 ISZERO PUSH2 0xE59 JUMPI RETURNDATASIZE PUSH0 PUSH0 RETURNDATACOPY RETURNDATASIZE PUSH0 REVERT JUMPDEST POP POP POP POP PUSH1 0x40 MLOAD RETURNDATASIZE PUSH0 DUP3 RETURNDATACOPY RETURNDATASIZE PUSH1 0x1F NOT PUSH1 0x1F DUP3 ADD AND DUP3 ADD DUP1 PUSH1 0x40 MSTORE POP DUP2 ADD SWAP1 PUSH2 0xE81 SWAP2 SWAP1 PUSH2 0x23D5 JUMP JUMPDEST SWAP1 POP PUSH0 PUSH20 0xFFFFFFFFFFFFFFFFFFFFFFFFFFFFFFFFFFFFFFFF AND DUP2 PUSH2 0x100 ADD MLOAD PUSH20 0xFFFFFFFFFFFFFFFFFFFFFFFFFFFFFFFFFFFFFFFF AND SUB PUSH2 0xEF6 JUMPI PUSH1 0x40 MLOAD PUSH32 0x8C379A000000000000000000000000000000000000000000000000000000000 DUP2 MSTORE PUSH1 0x4 ADD PUSH2 0xEED SWAP1 PUSH2 0x2466 JUMP JUMPDEST PUSH1 0x40 MLOAD DUP1 SWAP2 SUB SWAP1 REVERT JUMPDEST DUP1 PUSH2 0x120 ADD MLOAD PUSH2 0xF3B JUMPI PUSH1 0x40 MLOAD PUSH32 0x8C379A000000000000000000000000000000000000000000000000000000000 DUP2 MSTORE PUSH1 0x4 ADD PUSH2 0xF32 SWAP1 PUSH2 0x24CE JUMP JUMPDEST PUSH1 0x40 MLOAD DUP1 SWAP2 SUB SWAP1 REVERT JUMPDEST DUP1 PUSH1 0x40 ADD MLOAD TIMESTAMP LT PUSH2 0xF81 JUMPI PUSH1 0x40 MLOAD PUSH32 0x8C379A000000000000000000000000000000000000000000000000000000000 DUP2 MSTORE PUSH1 0x4 ADD PUSH2 0xF78 SWAP1 PUSH2 0x2536 JUMP JUMPDEST PUSH1 0x40 MLOAD DUP1 SWAP2 SUB SWAP1 REVERT JUMPDEST DUP1 PUSH1 0x80 ADD MLOAD CALLVALUE EQ PUSH2 0xFC7 JUMPI PUSH1 0x40 MLOAD PUSH32 0x8C379A000000000000000000000000000000000000000000000000000000000 DUP2 MSTORE PUSH1 0x4 ADD PUSH2 0xFBE SWAP1 PUSH2 0x2807 JUMP JUMPDEST PUSH1 0x40 MLOAD DUP1 SWAP2 SUB SWAP1 REVERT JUMPDEST DUP1 PUSH1 0xC0 ADD MLOAD PUSH1 0x6 PUSH0 DUP5 DUP2 MSTORE PUSH1 0x20 ADD SWAP1 DUP2 MSTORE PUSH1 0x20 ADD PUSH0 KECCAK256 SLOAD LT PUSH2 0x101E JUMPI PUSH1 0x40 MLOAD PUSH32 0x8C379A000000000000000000000000000000000000000000000000000000000 DUP2 MSTORE PUSH1 0x4 ADD PUSH2 0x1015 SWAP1 PUSH2 0x286F JUMP JUMPDEST PUSH1 0x40 MLOAD DUP1 SWAP2 SUB SWAP1 REVERT JUMPDEST PUSH0 PUSH1 0x7 PUSH0 DUP5 DUP2 MSTORE PUSH1 0x20 ADD SWAP1 DUP2 MSTORE PUSH1 0x20 ADD PUSH0 KECCAK256 PUSH0 CALLER PUSH20 0xFFFFFFFFFFFFFFFFFFFFFFFFFFFFFFFFFFFFFFFF AND PUSH20 0xFFFFFFFFFFFFFFFFFFFFFFFFFFFFFFFFFFFFFFFF AND DUP2 MSTORE PUSH1 0x20 ADD SWAP1 DUP2 MSTORE PUSH1 0x20 ADD PUSH0 KECCAK256 SWAP1 POP PUSH0 DUP3 PUSH2 0x140 ADD MLOAD PUSH2 0xFFFF AND GT ISZERO PUSH2 0x10DA JUMPI DUP2 PUSH2 0x140 ADD MLOAD PUSH2 0xFFFF AND PUSH1 0x1 DUP3 PUSH0 ADD SLOAD PUSH2 0x1098 SWAP2 SWAP1 PUSH2 0x288D JUMP JUMPDEST GT ISZERO PUSH2 0x10D9 JUMPI PUSH1 0x40 MLOAD PUSH32 0x8C379A000000000000000000000000000000000000000000000000000000000 DUP2 MSTORE PUSH1 0x4 ADD PUSH2 0x10D0 SWAP1 PUSH2 0x2930 JUMP JUMPDEST PUSH1 0x40 MLOAD DUP1 SWAP2 SUB SWAP1 REVERT JUMPDEST JUMPDEST PUSH0 DUP3 PUSH2 0x160 ADD MLOAD PUSH4 0xFFFFFFFF AND GT DUP1 ISZERO PUSH2 0x1115 JUMPI POP PUSH0 DUP2 PUSH1 0x1 ADD PUSH0 SWAP1 SLOAD SWAP1 PUSH2 0x100 EXP SWAP1 DIV PUSH8 0xFFFFFFFFFFFFFFFF AND PUSH8 0xFFFFFFFFFFFFFFFF AND EQ ISZERO JUMPDEST ISZERO PUSH2 0x1195 JUMPI DUP2 PUSH2 0x160 ADD MLOAD PUSH4 0xFFFFFFFF AND DUP2 PUSH1 0x1 ADD PUSH0 SWAP1 SLOAD SWAP1 PUSH2 0x100 EXP SWAP1 DIV PUSH8 0xFFFFFFFFFFFFFFFF AND PUSH2 0x1148 SWAP2 SWAP1 PUSH2 0x294E JUMP JUMPDEST PUSH8 0xFFFFFFFFFFFFFFFF AND TIMESTAMP LT ISZERO PUSH2 0x1194 JUMPI PUSH1 0x40 MLOAD PUSH32 0x8C379A000000000000000000000000000000000000000000000000000000000 DUP2 MSTORE PUSH1 0x4 ADD PUSH2 0x118B SWAP1 PUSH2 0x29F9 JUMP JUMPDEST PUSH1 0x40 MLOAD DUP1 SWAP2 SUB SWAP1 REVERT JUMPDEST JUMPDEST PUSH1 0x6 PUSH0 DUP5 DUP2 MSTORE PUSH1 0x20 ADD SWAP1 DUP2 MSTORE PUSH1 0x20 ADD PUSH0 KECCAK256 PUSH0 DUP2 SLOAD DUP1 SWAP3 SWAP2 SWAP1 PUSH2 0x11B6 SWAP1 PUSH2 0x26BC JUMP JUMPDEST SWAP2 SWAP1 POP SSTORE POP PUSH0 PUSH1 0x3 PUSH0 SWAP1 SLOAD SWAP1 PUSH2 0x100 EXP SWAP1 DIV PUSH20 0xFFFFFFFFFFFFFFFFFFFFFFFFFFFFFFFFFFFFFFFF AND PUSH20 0xFFFFFFFFFFFFFFFFFFFFFFFFFFFFFFFFFFFFFFFF AND PUSH4 0xA5F7F466 CALLER DUP7 PUSH1 0x40 MLOAD DUP4 PUSH4 0xFFFFFFFF AND PUSH1 0xE0 SHL DUP2 MSTORE PUSH1 0x4 ADD PUSH2 0x1218 SWAP3 SWAP2 SWAP1 PUSH2 0x2A17 JUMP JUMPDEST PUSH1 0x20 PUSH1 0x40 MLOAD DUP1 DUP4 SUB DUP2 PUSH0 DUP8 GAS CALL ISZERO DUP1 ISZERO PUSH2 0x1234 JUMPI RETURNDATASIZE PUSH0 PUSH0 RETURNDATACOPY RETURNDATASIZE PUSH0 REVERT JUMPDEST POP POP POP POP PUSH1 0x40 MLOAD RETURNDATASIZE PUSH1 0x1F NOT PUSH1 0x1F DUP3 ADD AND DUP3 ADD DUP1 PUSH1 0x40 MSTORE POP DUP2 ADD SWAP1 PUSH2 0x1258 SWAP2 SWAP1 PUSH2 0x2023 JUMP JUMPDEST SWAP1 POP PUSH1 0x1 DUP3 PUSH0 ADD PUSH0 DUP3 DUP3 SLOAD PUSH2 0x126D SWAP2 SWAP1 PUSH2 0x288D JUMP JUMPDEST SWAP3 POP POP DUP2 SWAP1 SSTORE POP TIMESTAMP DUP3 PUSH1 0x1 ADD PUSH0 PUSH2 0x100 EXP DUP2 SLOAD DUP2 PUSH8 0xFFFFFFFFFFFFFFFF MUL NOT AND SWAP1 DUP4 PUSH8 0xFFFFFFFFFFFFFFFF AND MUL OR SWAP1 SSTORE POP CALLER PUSH20 0xFFFFFFFFFFFFFFFFFFFFFFFFFFFFFFFFFFFFFFFF AND DUP5 DUP3 PUSH32 0x8F235DB28B288D80E5B92369043B0B2C986C6D020EE099C23E86D7949ACFD90C CALLVALUE PUSH1 0x40 MLOAD PUSH2 0x12E6 SWAP2 SWAP1 PUSH2 0x1CBF JUMP JUMPDEST PUSH1 0x40 MLOAD DUP1 SWAP2 SUB SWAP1 LOG4 POP POP POP PUSH2 0x12F9 PUSH2 0x19A2 JUMP JUMPDEST POP JUMP JUMPDEST PUSH0 PUSH0 PUSH0 SWAP1 SLOAD SWAP1 PUSH2 0x100 EXP SWAP1 DIV PUSH20 0xFFFFFFFFFFFFFFFFFFFFFFFFFFFFFFFFFFFFFFFF AND SWAP1 POP SWAP1 JUMP JUMPDEST PUSH1 0x4 SLOAD DUP2 JUMP JUMPDEST PUSH1 0x2 PUSH0 SWAP1 SLOAD SWAP1 PUSH2 0x100 EXP SWAP1 DIV PUSH20 0xFFFFFFFFFFFFFFFFFFFFFFFFFFFFFFFFFFFFFFFF AND DUP2 JUMP JUMPDEST PUSH1 0x3 PUSH0 SWAP1 SLOAD SWAP1 PUSH2 0x100 EXP SWAP1 DIV PUSH20 0xFFFFFFFFFFFFFFFFFFFFFFFFFFFFFFFFFFFFFFFF AND DUP2 JUMP JUMPDEST PUSH1 0x5 PUSH1 0x20 MSTORE DUP1 PUSH0 MSTORE PUSH1 0x40 PUSH0 KECCAK256 PUSH0 SWAP2 POP SWAP1 POP DUP1 PUSH0 ADD SLOAD SWAP1 DUP1 PUSH1 0x1 ADD PUSH0 SWAP1 SLOAD SWAP1 PUSH2 0x100 EXP SWAP1 DIV PUSH20 0xFFFFFFFFFFFFFFFFFFFFFFFFFFFFFFFFFFFFFFFF AND SWAP1 DUP1 PUSH1 0x2 ADD SLOAD SWAP1 DUP1 PUSH1 0x3 ADD PUSH0 SWAP1 SLOAD SWAP1 PUSH2 0x100 EXP SWAP1 DIV PUSH1 0xFF AND SWAP1 POP DUP5 JUMP JUMPDEST PUSH1 0x6 PUSH1 0x20 MSTORE DUP1 PUSH0 MSTORE PUSH1 0x40 PUSH0 KECCAK256 PUSH0 SWAP2 POP SWAP1 POP SLOAD DUP2 JUMP JUMPDEST PUSH2 0x13E7 PUSH2 0x1953 JUMP JUMPDEST PUSH0 PUSH1 0x5 PUSH0 DUP4 DUP2 MSTORE PUSH1 0x20 ADD SWAP1 DUP2 MSTORE PUSH1 0x20 ADD PUSH0 KECCAK256 SWAP1 POP DUP1 PUSH1 0x3 ADD PUSH0 SWAP1 SLOAD SWAP1 PUSH2 0x100 EXP SWAP1 DIV PUSH1 0xFF AND PUSH2 0x144B JUMPI PUSH1 0x40 MLOAD PUSH32 0x8C379A000000000000000000000000000000000000000000000000000000000 DUP2 MSTORE PUSH1 0x4 ADD PUSH2 0x1442 SWAP1 PUSH2 0x2A88 JUMP JUMPDEST PUSH1 0x40 MLOAD DUP1 SWAP2 SUB SWAP1 REVERT JUMPDEST PUSH0 PUSH20 0xFFFFFFFFFFFFFFFFFFFFFFFFFFFFFFFFFFFFFFFF AND DUP2 PUSH1 0x1 ADD PUSH0 SWAP1 SLOAD SWAP1 PUSH2 0x100 EXP SWAP1 DIV PUSH20 0xFFFFFFFFFFFFFFFFFFFFFFFFFFFFFFFFFFFFFFFF AND PUSH20 0xFFFFFFFFFFFFFFFFFFFFFFFFFFFFFFFFFFFFFFFF AND SUB PUSH2 0x14DC JUMPI PUSH1 0x40 MLOAD PUSH32 0x8C379A000000000000000000000000000000000000000000000000000000000 DUP2 MSTORE PUSH1 0x4 ADD PUSH2 0x14D3 SWAP1 PUSH2 0x2AF0 JUMP JUMPDEST PUSH1 0x40 MLOAD DUP1 SWAP2 SUB SWAP1 REVERT JUMPDEST DUP1 PUSH1 0x2 ADD SLOAD CALLVALUE EQ PUSH2 0x1522 JUMPI PUSH1 0x40 MLOAD PUSH32 0x8C379A000000000000000000000000000000000000000000000000000000000 DUP2 MSTORE PUSH1 0x4 ADD PUSH2 0x1519 SWAP1 PUSH2 0x2807 JUMP JUMPDEST PUSH1 0x40 MLOAD DUP1 SWAP2 SUB SWAP1 REVERT JUMPDEST PUSH0 PUSH1 0x3 PUSH0 SWAP1 SLOAD SWAP1 PUSH2 0x100 EXP SWAP1 DIV PUSH20 0xFFFFFFFFFFFFFFFFFFFFFFFFFFFFFFFFFFFFFFFF AND PUSH20 0xFFFFFFFFFFFFFFFFFFFFFFFFFFFFFFFFFFFFFFFF AND PUSH4 0xC20B324D DUP4 PUSH0 ADD SLOAD PUSH1 0x40 MLOAD DUP3 PUSH4 0xFFFFFFFF AND PUSH1 0xE0 SHL DUP2 MSTORE PUSH1 0x4 ADD PUSH2 0x1580 SWAP2 SWAP1 PUSH2 0x1CBF JUMP JUMPDEST PUSH1 0x20 PUSH1 0x40 MLOAD DUP1 DUP4 SUB DUP2 DUP7 GAS STATICCALL ISZERO DUP1 ISZERO PUSH2 0x159B JUMPI RETURNDATASIZE PUSH0 PUSH0 RETURNDATACOPY RETURNDATASIZE PUSH0 REVERT JUMPDEST POP POP POP POP PUSH1 0x40 MLOAD RETURNDATASIZE PUSH1 0x1F NOT PUSH1 0x1F DUP3 ADD AND DUP3 ADD DUP1 PUSH1 0x40 MSTORE POP DUP2 ADD SWAP1 PUSH2 0x15BF SWAP2 SWAP1 PUSH2 0x2023 JUMP JUMPDEST SWAP1 POP PUSH0 PUSH1 0x2 PUSH0 SWAP1 SLOAD SWAP1 PUSH2 0x100 EXP SWAP1 DIV PUSH20 0xFFFFFFFFFFFFFFFFFFFFFFFFFFFFFFFFFFFFFFFF AND PUSH20 0xFFFFFFFFFFFFFFFFFFFFFFFFFFFFFFFFFFFFFFFF AND PUSH4 0x6D1884E0 DUP4 PUSH1 0x40 MLOAD DUP3 PUSH4 0xFFFFFFFF AND PUSH1 0xE0 SHL DUP2 MSTORE PUSH1 0x4 ADD PUSH2 0x161C SWAP2 SWAP1 PUSH2 0x1CBF JUMP JUMPDEST PUSH0 PUSH1 0x40 MLOAD DUP1 DUP4 SUB DUP2 DUP7 GAS STATICCALL ISZERO DUP1 ISZERO PUSH2 0x1636 JUMPI RETURNDATASIZE PUSH0 PUSH0 RETURNDATACOPY RETURNDATASIZE PUSH0 REVERT JUMPDEST POP POP POP POP PUSH1 0x40 MLOAD RETURNDATASIZE PUSH0 DUP3 RETURNDATACOPY RETURNDATASIZE PUSH1 0x1F NOT PUSH1 0x1F DUP3 ADD AND DUP3 ADD DUP1 PUSH1 0x40 MSTORE POP DUP2 ADD SWAP1 PUSH2 0x165E SWAP2 SWAP1 PUSH2 0x23D5 JUMP JUMPDEST SWAP1 POP PUSH0 PUSH20 0xFFFFFFFFFFFFFFFFFFFFFFFFFFFFFFFFFFFFFFFF AND DUP2 PUSH2 0x100 ADD MLOAD PUSH20 0xFFFFFFFFFFFFFFFFFFFFFFFFFFFFFFFFFFFFFFFF AND SUB PUSH2 0x16D3 JUMPI PUSH1 0x40 MLOAD PUSH32 0x8C379A000000000000000000000000000000000000000000000000000000000 DUP2 MSTORE PUSH1 0x4 ADD PUSH2 0x16CA SWAP1 PUSH2 0x2466 JUMP JUMPDEST PUSH1 0x40 MLOAD DUP1 SWAP2 SUB SWAP1 REVERT JUMPDEST DUP1 PUSH2 0x120 ADD MLOAD PUSH2 0x1718 JUMPI PUSH1 0x40 MLOAD PUSH32 0x8C379A000000000000000000000000000000000000000000000000000000000 DUP2 MSTORE PUSH1 0x4 ADD PUSH2 0x170F SWAP1 PUSH2 0x24CE JUMP JUMPDEST PUSH1 0x40 MLOAD DUP1 SWAP2 SUB SWAP1 REVERT JUMPDEST DUP1 PUSH1 0x40 ADD MLOAD TIMESTAMP LT PUSH2 0x175E JUMPI PUSH1 0x40 MLOAD PUSH32 0x8C379A000000000000000000000000000000000000000000000000000000000 DUP2 MSTORE PUSH1 0x4 ADD PUSH2 0x1755 SWAP1 PUSH2 0x2536 JUMP JUMPDEST PUSH1 0x40 MLOAD DUP1 SWAP2 SUB SWAP1 REVERT JUMPDEST PUSH0 DUP4 PUSH1 0x3 ADD PUSH0 PUSH2 0x100 EXP DUP2 SLOAD DUP2 PUSH1 0xFF MUL NOT AND SWAP1 DUP4 ISZERO ISZERO MUL OR SWAP1 SSTORE POP DUP3 PUSH1 0x1 ADD PUSH0 SWAP1 SLOAD SWAP1 PUSH2 0x100 EXP SWAP1 DIV PUSH20 0xFFFFFFFFFFFFFFFFFFFFFFFFFFFFFFFFFFFFFFFF AND PUSH20 0xFFFFFFFFFFFFFFFFFFFFFFFFFFFFFFFFFFFFFFFF AND PUSH2 0x8FC CALLVALUE SWAP1 DUP2 ISZERO MUL SWAP1 PUSH1 0x40 MLOAD PUSH0 PUSH1 0x40 MLOAD DUP1 DUP4 SUB DUP2 DUP6 DUP9 DUP9 CALL SWAP4 POP POP POP POP ISZERO DUP1 ISZERO PUSH2 0x17DF JUMPI RETURNDATASIZE PUSH0 PUSH0 RETURNDATACOPY RETURNDATASIZE PUSH0 REVERT JUMPDEST POP PUSH1 0x3 PUSH0 SWAP1 SLOAD SWAP1 PUSH2 0x100 EXP SWAP1 DIV PUSH20 0xFFFFFFFFFFFFFFFFFFFFFFFFFFFFFFFFFFFFFFFF AND PUSH20 0xFFFFFFFFFFFFFFFFFFFFFFFFFFFFFFFFFFFFFFFF AND PUSH4 0x23B872DD ADDRESS CALLER DUP7 PUSH0 ADD SLOAD PUSH1 0x40 MLOAD DUP5 PUSH4 0xFFFFFFFF AND PUSH1 0xE0 SHL DUP2 MSTORE PUSH1 0x4 ADD PUSH2 0x1841 SWAP4 SWAP3 SWAP2 SWAP1 PUSH2 0x2687 JUMP JUMPDEST PUSH0 PUSH1 0x40 MLOAD DUP1 DUP4 SUB DUP2 PUSH0 DUP8 DUP1 EXTCODESIZE ISZERO DUP1 ISZERO PUSH2 0x1858 JUMPI PUSH0 PUSH0 REVERT JUMPDEST POP GAS CALL ISZERO DUP1 ISZERO PUSH2 0x186A JUMPI RETURNDATASIZE PUSH0 PUSH0 RETURNDATACOPY RETURNDATASIZE PUSH0 REVERT JUMPDEST POP POP POP POP CALLER PUSH20 0xFFFFFFFFFFFFFFFFFFFFFFFFFFFFFFFFFFFFFFFF AND DUP4 PUSH0 ADD SLOAD DUP6 PUSH32 0x54DB02055A7CB812EDEF460E36B83B96E36907EEE3ADB434EBAB305B1E51402D CALLVALUE PUSH1 0x40 MLOAD PUSH2 0x18B9 SWAP2 SWAP1 PUSH2 0x1CBF JUMP JUMPDEST PUSH1 0x40 MLOAD DUP1 SWAP2 SUB SWAP1 LOG4 POP POP POP PUSH2 0x18CC PUSH2 0x19A2 JUMP JUMPDEST POP JUMP JUMPDEST PUSH2 0x18D7 PUSH2 0x19AB JUMP JUMPDEST PUSH0 PUSH20 0xFFFFFFFFFFFFFFFFFFFFFFFFFFFFFFFFFFFFFFFF AND DUP2 PUSH20 0xFFFFFFFFFFFFFFFFFFFFFFFFFFFFFFFFFFFFFFFF AND SUB PUSH2 0x1947 JUMPI PUSH0 PUSH1 0x40 MLOAD PUSH32 0x1E4FBDF700000000000000000000000000000000000000000000000000000000 DUP2 MSTORE PUSH1 0x4 ADD PUSH2 0x193E SWAP2 SWAP1 PUSH2 0x1CA6 JUMP JUMPDEST PUSH1 0x40 MLOAD DUP1 SWAP2 SUB SWAP1 REVERT JUMPDEST PUSH2 0x1950 DUP2 PUSH2 0x1A32 JUMP JUMPDEST POP JUMP JUMPDEST PUSH1 0x2 PUSH1 0x1 SLOAD SUB PUSH2 0x1998 JUMPI PUSH1 0x40 MLOAD PUSH32 0x8C379A000000000000000000000000000000000000000000000000000000000 DUP2 MSTORE PUSH1 0x4 ADD PUSH2 0x198F SWAP1 PUSH2 0x2B58 JUMP JUMPDEST PUSH1 0x40 MLOAD DUP1 SWAP2 SUB SWAP1 REVERT JUMPDEST PUSH1 0x2 PUSH1 0x1 DUP2 SWAP1 SSTORE POP JUMP JUMPDEST PUSH1 0x1 DUP1 DUP2 SWAP1 SSTORE POP JUMP JUMPDEST PUSH2 0x19B3 PUSH2 0x1AF3 JUMP JUMPDEST PUSH20 0xFFFFFFFFFFFFFFFFFFFFFFFFFFFFFFFFFFFFFFFF AND PUSH2 0x19D1 PUSH2 0x12FC JUMP JUMPDEST PUSH20 0xFFFFFFFFFFFFFFFFFFFFFFFFFFFFFFFFFFFFFFFF AND EQ PUSH2 0x1A30 JUMPI PUSH2 0x19F4 PUSH2 0x1AF3 JUMP JUMPDEST PUSH1 0x40 MLOAD PUSH32 0x118CDAA700000000000000000000000000000000000000000000000000000000 DUP2 MSTORE PUSH1 0x4 ADD PUSH2 0x1A27 SWAP2 SWAP1 PUSH2 0x1CA6 JUMP JUMPDEST PUSH1 0x40 MLOAD DUP1 SWAP2 SUB SWAP1 REVERT JUMPDEST JUMP JUMPDEST PUSH0 PUSH0 PUSH0 SWAP1 SLOAD SWAP1 PUSH2 0x100 EXP SWAP1 DIV PUSH20 0xFFFFFFFFFFFFFFFFFFFFFFFFFFFFFFFFFFFFFFFF AND SWAP1 POP DUP2 PUSH0 PUSH0 PUSH2 0x100 EXP DUP2 SLOAD DUP2 PUSH20 0xFFFFFFFFFFFFFFFFFFFFFFFFFFFFFFFFFFFFFFFF MUL NOT AND SWAP1 DUP4 PUSH20 0xFFFFFFFFFFFFFFFFFFFFFFFFFFFFFFFFFFFFFFFF AND MUL OR SWAP1 SSTORE POP DUP2 PUSH20 0xFFFFFFFFFFFFFFFFFFFFFFFFFFFFFFFFFFFFFFFF AND DUP2 PUSH20 0xFFFFFFFFFFFFFFFFFFFFFFFFFFFFFFFFFFFFFFFF AND PUSH32 0x8BE0079C531659141344CD1FD0A4F28419497F9722A3DAAFE3B4186F6B6457E0 PUSH1 0x40 MLOAD PUSH1 0x40 MLOAD DUP1 SWAP2 SUB SWAP1 LOG3 POP POP JUMP JUMPDEST PUSH0 CALLER SWAP1 POP SWAP1 JUMP JUMPDEST PUSH0 PUSH1 0x40 MLOAD SWAP1 POP SWAP1 JUMP JUMPDEST PUSH0 PUSH0 REVERT JUMPDEST PUSH0 PUSH0 REVERT JUMPDEST PUSH0 DUP2 SWAP1 POP SWAP2 SWAP1 POP JUMP JUMPDEST PUSH2 0x1B1D DUP2 PUSH2 0x1B0B JUMP JUMPDEST DUP2 EQ PUSH2 0x1B27 JUMPI PUSH0 PUSH0 REVERT JUMPDEST POP JUMP JUMPDEST PUSH0 DUP2 CALLDATALOAD SWAP1 POP PUSH2 0x1B38 DUP2 PUSH2 0x1B14 JUMP JUMPDEST SWAP3 SWAP2 POP POP JUMP JUMPDEST PUSH0 PUSH0 PUSH1 0x40 DUP4 DUP6 SUB SLT ISZERO PUSH2 0x1B54 JUMPI PUSH2 0x1B53 PUSH2 0x1B03 JUMP JUMPDEST JUMPDEST PUSH0 PUSH2 0x1B61 DUP6 DUP3 DUP7 ADD PUSH2 0x1B2A JUMP JUMPDEST SWAP3 POP POP PUSH1 0x20 PUSH2 0x1B72 DUP6 DUP3 DUP7 ADD PUSH2 0x1B2A JUMP JUMPDEST SWAP2 POP POP SWAP3 POP SWAP3 SWAP1 POP JUMP JUMPDEST PUSH0 PUSH20 0xFFFFFFFFFFFFFFFFFFFFFFFFFFFFFFFFFFFFFFFF DUP3 AND SWAP1 POP SWAP2 SWAP1 POP JUMP JUMPDEST PUSH0 PUSH2 0x1BA5 DUP3 PUSH2 0x1B7C JUMP JUMPDEST SWAP1 POP SWAP2 SWAP1 POP JUMP JUMPDEST PUSH2 0x1BB5 DUP2 PUSH2 0x1B9B JUMP JUMPDEST DUP2 EQ PUSH2 0x1BBF JUMPI PUSH0 PUSH0 REVERT JUMPDEST POP JUMP JUMPDEST PUSH0 DUP2 CALLDATALOAD SWAP1 POP PUSH2 0x1BD0 DUP2 PUSH2 0x1BAC JUMP JUMPDEST SWAP3 SWAP2 POP POP JUMP JUMPDEST PUSH0 PUSH0 PUSH1 0x40 DUP4 DUP6 SUB SLT ISZERO PUSH2 0x1BEC JUMPI PUSH2 0x1BEB PUSH2 0x1B03 JUMP JUMPDEST JUMPDEST PUSH0 PUSH2 0x1BF9 DUP6 DUP3 DUP7 ADD PUSH2 0x1B2A JUMP JUMPDEST SWAP3 POP POP PUSH1 0x20 PUSH2 0x1C0A DUP6 DUP3 DUP7 ADD PUSH2 0x1BC2 JUMP JUMPDEST SWAP2 POP POP SWAP3 POP SWAP3 SWAP1 POP JUMP JUMPDEST PUSH2 0x1C1D DUP2 PUSH2 0x1B0B JUMP JUMPDEST DUP3 MSTORE POP POP JUMP JUMPDEST PUSH0 PUSH8 0xFFFFFFFFFFFFFFFF DUP3 AND SWAP1 POP SWAP2 SWAP1 POP JUMP JUMPDEST PUSH2 0x1C3F DUP2 PUSH2 0x1C23 JUMP JUMPDEST DUP3 MSTORE POP POP JUMP JUMPDEST PUSH0 PUSH1 0x40 DUP3 ADD SWAP1 POP PUSH2 0x1C58 PUSH0 DUP4 ADD DUP6 PUSH2 0x1C14 JUMP JUMPDEST PUSH2 0x1C65 PUSH1 0x20 DUP4 ADD DUP5 PUSH2 0x1C36 JUMP JUMPDEST SWAP4 SWAP3 POP POP POP JUMP JUMPDEST PUSH0 PUSH1 0x20 DUP3 DUP5 SUB SLT ISZERO PUSH2 0x1C81 JUMPI PUSH2 0x1C80 PUSH2 0x1B03 JUMP JUMPDEST JUMPDEST PUSH0 PUSH2 0x1C8E DUP5 DUP3 DUP6 ADD PUSH2 0x1B2A JUMP JUMPDEST SWAP2 POP POP SWAP3 SWAP2 POP POP JUMP JUMPDEST PUSH2 0x1CA0 DUP2 PUSH2 0x1B9B JUMP JUMPDEST DUP3 MSTORE POP POP JUMP JUMPDEST PUSH0 PUSH1 0x20 DUP3 ADD SWAP1 POP PUSH2 0x1CB9 PUSH0 DUP4 ADD DUP5 PUSH2 0x1C97 JUMP JUMPDEST SWAP3 SWAP2 POP POP JUMP JUMPDEST PUSH0 PUSH1 0x20 DUP3 ADD SWAP1 POP PUSH2 0x1CD2 PUSH0 DUP4 ADD DUP5 PUSH2 0x1C14 JUMP JUMPDEST SWAP3 SWAP2 POP POP JUMP JUMPDEST PUSH0 DUP2 SWAP1 POP SWAP2 SWAP1 POP JUMP JUMPDEST PUSH0 PUSH2 0x1CFB PUSH2 0x1CF6 PUSH2 0x1CF1 DUP5 PUSH2 0x1B7C JUMP JUMPDEST PUSH2 0x1CD8 JUMP JUMPDEST PUSH2 0x1B7C JUMP JUMPDEST SWAP1 POP SWAP2 SWAP1 POP JUMP JUMPDEST PUSH0 PUSH2 0x1D0C DUP3 PUSH2 0x1CE1 JUMP JUMPDEST SWAP1 POP SWAP2 SWAP1 POP JUMP JUMPDEST PUSH0 PUSH2 0x1D1D DUP3 PUSH2 0x1D02 JUMP JUMPDEST SWAP1 POP SWAP2 SWAP1 POP JUMP JUMPDEST PUSH2 0x1D2D DUP2 PUSH2 0x1D13 JUMP JUMPDEST DUP3 MSTORE POP POP JUMP JUMPDEST PUSH0 PUSH1 0x20 DUP3 ADD SWAP1 POP PUSH2 0x1D46 PUSH0 DUP4 ADD DUP5 PUSH2 0x1D24 JUMP JUMPDEST SWAP3 SWAP2 POP POP JUMP JUMPDEST PUSH0 PUSH2 0x1D56 DUP3 PUSH2 0x1D02 JUMP JUMPDEST SWAP1 POP SWAP2 SWAP1 POP JUMP JUMPDEST PUSH2 0x1D66 DUP2 PUSH2 0x1D4C JUMP JUMPDEST DUP3 MSTORE POP POP JUMP JUMPDEST PUSH0 PUSH1 0x20 DUP3 ADD SWAP1 POP PUSH2 0x1D7F PUSH0 DUP4 ADD DUP5 PUSH2 0x1D5D JUMP JUMPDEST SWAP3 SWAP2 POP POP JUMP JUMPDEST PUSH0 DUP2 ISZERO ISZERO SWAP1 POP SWAP2 SWAP1 POP JUMP JUMPDEST PUSH2 0x1D99 DUP2 PUSH2 0x1D85 JUMP JUMPDEST DUP3 MSTORE POP POP JUMP JUMPDEST PUSH0 PUSH1 0x80 DUP3 ADD SWAP1 POP PUSH2 0x1DB2 PUSH0 DUP4 ADD DUP8 PUSH2 0x1C14 JUMP JUMPDEST PUSH2 0x1DBF PUSH1 0x20 DUP4 ADD DUP7 PUSH2 0x1C97 JUMP JUMPDEST PUSH2 0x1DCC PUSH1 0x40 DUP4 ADD DUP6 PUSH2 0x1C14 JUMP JUMPDEST PUSH2 0x1DD9 PUSH1 0x60 DUP4 ADD DUP5 PUSH2 0x1D90 JUMP JUMPDEST SWAP6 SWAP5 POP POP POP POP POP JUMP JUMPDEST PUSH0 PUSH1 0x20 DUP3 DUP5 SUB SLT ISZERO PUSH2 0x1DF7 JUMPI PUSH2 0x1DF6 PUSH2 0x1B03 JUMP JUMPDEST JUMPDEST PUSH0 PUSH2 0x1E04 DUP5 DUP3 DUP6 ADD PUSH2 0x1BC2 JUMP JUMPDEST SWAP2 POP POP SWAP3 SWAP2 POP POP JUMP JUMPDEST PUSH0 DUP2 MLOAD SWAP1 POP PUSH2 0x1E1B DUP2 PUSH2 0x1BAC JUMP JUMPDEST SWAP3 SWAP2 POP POP JUMP JUMPDEST PUSH0 PUSH1 0x20 DUP3 DUP5 SUB SLT ISZERO PUSH2 0x1E36 JUMPI PUSH2 0x1E35 PUSH2 0x1B03 JUMP JUMPDEST JUMPDEST PUSH0 PUSH2 0x1E43 DUP5 DUP3 DUP6 ADD PUSH2 0x1E0D JUMP JUMPDEST SWAP2 POP POP SWAP3 SWAP2 POP POP JUMP JUMPDEST PUSH0 DUP3 DUP3 MSTORE PUSH1 0x20 DUP3 ADD SWAP1 POP SWAP3 SWAP2 POP POP JUMP JUMPDEST PUSH32 0x4E6F206572657320656C206475656E6F2064656C207469636B65740000000000 PUSH0 DUP3 ADD MSTORE POP JUMP JUMPDEST PUSH0 PUSH2 0x1E90 PUSH1 0x1B DUP4 PUSH2 0x1E4C JUMP JUMPDEST SWAP2 POP PUSH2 0x1E9B DUP3 PUSH2 0x1E5C JUMP JUMPDEST PUSH1 0x20 DUP3 ADD SWAP1 POP SWAP2 SWAP1 POP JUMP JUMPDEST PUSH0 PUSH1 0x20 DUP3 ADD SWAP1 POP DUP2 DUP2 SUB PUSH0 DUP4 ADD MSTORE PUSH2 0x1EBD DUP2 PUSH2 0x1E84 JUMP JUMPDEST SWAP1 POP SWAP2 SWAP1 POP JUMP JUMPDEST PUSH32 0x4E487B7100000000000000000000000000000000000000000000000000000000 PUSH0 MSTORE PUSH1 0x21 PUSH1 0x4 MSTORE PUSH1 0x24 PUSH0 REVERT JUMPDEST PUSH1 0x4 DUP2 LT PUSH2 0x1EFD JUMPI PUSH0 PUSH0 REVERT JUMPDEST POP JUMP JUMPDEST PUSH0 DUP2 MLOAD SWAP1 POP PUSH2 0x1F0E DUP2 PUSH2 0x1EF1 JUMP JUMPDEST SWAP3 SWAP2 POP POP JUMP JUMPDEST PUSH0 PUSH1 0x20 DUP3 DUP5 SUB SLT ISZERO PUSH2 0x1F29 JUMPI PUSH2 0x1F28 PUSH2 0x1B03 JUMP JUMPDEST JUMPDEST PUSH0 PUSH2 0x1F36 DUP5 DUP3 DUP6 ADD PUSH2 0x1F00 JUMP JUMPDEST SWAP2 POP POP SWAP3 SWAP2 POP POP JUMP JUMPDEST PUSH32 0x5469636B6574206E6F2076616C69646F00000000000000000000000000000000 PUSH0 DUP3 ADD MSTORE POP JUMP JUMPDEST PUSH0 PUSH2 0x1F73 PUSH1 0x10 DUP4 PUSH2 0x1E4C JUMP JUMPDEST SWAP2 POP PUSH2 0x1F7E DUP3 PUSH2 0x1F3F JUMP JUMPDEST PUSH1 0x20 DUP3 ADD SWAP1 POP SWAP2 SWAP1 POP JUMP JUMPDEST PUSH0 PUSH1 0x20 DUP3 ADD SWAP1 POP DUP2 DUP2 SUB PUSH0 DUP4 ADD MSTORE PUSH2 0x1FA0 DUP2 PUSH2 0x1F67 JUMP JUMPDEST SWAP1 POP SWAP2 SWAP1 POP JUMP JUMPDEST PUSH32 0x50726563696F206465626520736572203E203000000000000000000000000000 PUSH0 DUP3 ADD MSTORE POP JUMP JUMPDEST PUSH0 PUSH2 0x1FDB PUSH1 0x13 DUP4 PUSH2 0x1E4C JUMP JUMPDEST SWAP2 POP PUSH2 0x1FE6 DUP3 PUSH2 0x1FA7 JUMP JUMPDEST PUSH1 0x20 DUP3 ADD SWAP1 POP SWAP2 SWAP1 POP JUMP JUMPDEST PUSH0 PUSH1 0x20 DUP3 ADD SWAP1 POP DUP2 DUP2 SUB PUSH0 DUP4 ADD MSTORE PUSH2 0x2008 DUP2 PUSH2 0x1FCF JUMP JUMPDEST SWAP1 POP SWAP2 SWAP1 POP JUMP JUMPDEST PUSH0 DUP2 MLOAD SWAP1 POP PUSH2 0x201D DUP2 PUSH2 0x1B14 JUMP JUMPDEST SWAP3 SWAP2 POP POP JUMP JUMPDEST PUSH0 PUSH1 0x20 DUP3 DUP5 SUB SLT ISZERO PUSH2 0x2038 JUMPI PUSH2 0x2037 PUSH2 0x1B03 JUMP JUMPDEST JUMPDEST PUSH0 PUSH2 0x2045 DUP5 DUP3 DUP6 ADD PUSH2 0x200F JUMP JUMPDEST SWAP2 POP POP SWAP3 SWAP2 POP POP JUMP JUMPDEST PUSH0 PUSH0 REVERT JUMPDEST PUSH0 PUSH1 0x1F NOT PUSH1 0x1F DUP4 ADD AND SWAP1 POP SWAP2 SWAP1 POP JUMP JUMPDEST PUSH32 0x4E487B7100000000000000000000000000000000000000000000000000000000 PUSH0 MSTORE PUSH1 0x41 PUSH1 0x4 MSTORE PUSH1 0x24 PUSH0 REVERT JUMPDEST PUSH2 0x2098 DUP3 PUSH2 0x2052 JUMP JUMPDEST DUP2 ADD DUP2 DUP2 LT PUSH8 0xFFFFFFFFFFFFFFFF DUP3 GT OR ISZERO PUSH2 0x20B7 JUMPI PUSH2 0x20B6 PUSH2 0x2062 JUMP JUMPDEST JUMPDEST DUP1 PUSH1 0x40 MSTORE POP POP POP JUMP JUMPDEST PUSH0 PUSH2 0x20C9 PUSH2 0x1AFA JUMP JUMPDEST SWAP1 POP PUSH2 0x20D5 DUP3 DUP3 PUSH2 0x208F JUMP JUMPDEST SWAP2 SWAP1 POP JUMP JUMPDEST PUSH0 PUSH0 REVERT JUMPDEST PUSH0 PUSH0 REVERT JUMPDEST PUSH0 PUSH0 REVERT JUMPDEST PUSH0 PUSH8 0xFFFFFFFFFFFFFFFF DUP3 GT ISZERO PUSH2 0x2100 JUMPI PUSH2 0x20FF PUSH2 0x2062 JUMP JUMPDEST JUMPDEST PUSH2 0x2109 DUP3 PUSH2 0x2052 JUMP JUMPDEST SWAP1 POP PUSH1 0x20 DUP2 ADD SWAP1 POP SWAP2 SWAP1 POP JUMP JUMPDEST DUP3 DUP2 DUP4 MCOPY PUSH0 DUP4 DUP4 ADD MSTORE POP POP POP JUMP JUMPDEST PUSH0 PUSH2 0x2136 PUSH2 0x2131 DUP5 PUSH2 0x20E6 JUMP JUMPDEST PUSH2 0x20C0 JUMP JUMPDEST SWAP1 POP DUP3 DUP2 MSTORE PUSH1 0x20 DUP2 ADD DUP5 DUP5 DUP5 ADD GT ISZERO PUSH2 0x2152 JUMPI PUSH2 0x2151 PUSH2 0x20E2 JUMP JUMPDEST JUMPDEST PUSH2 0x215D DUP5 DUP3 DUP6 PUSH2 0x2116 JUMP JUMPDEST POP SWAP4 SWAP3 POP POP POP JUMP JUMPDEST PUSH0 DUP3 PUSH1 0x1F DUP4 ADD SLT PUSH2 0x2179 JUMPI PUSH2 0x2178 PUSH2 0x20DE JUMP JUMPDEST JUMPDEST DUP2 MLOAD PUSH2 0x2189 DUP5 DUP3 PUSH1 0x20 DUP7 ADD PUSH2 0x2124 JUMP JUMPDEST SWAP2 POP POP SWAP3 SWAP2 POP POP JUMP JUMPDEST PUSH0 PUSH1 0xFF DUP3 AND SWAP1 POP SWAP2 SWAP1 POP JUMP JUMPDEST PUSH2 0x21A7 DUP2 PUSH2 0x2192 JUMP JUMPDEST DUP2 EQ PUSH2 0x21B1 JUMPI PUSH0 PUSH0 REVERT JUMPDEST POP JUMP JUMPDEST PUSH0 DUP2 MLOAD SWAP1 POP PUSH2 0x21C2 DUP2 PUSH2 0x219E JUMP JUMPDEST SWAP3 SWAP2 POP POP JUMP JUMPDEST PUSH2 0x21D1 DUP2 PUSH2 0x1D85 JUMP JUMPDEST DUP2 EQ PUSH2 0x21DB JUMPI PUSH0 PUSH0 REVERT JUMPDEST POP JUMP JUMPDEST PUSH0 DUP2 MLOAD SWAP1 POP PUSH2 0x21EC DUP2 PUSH2 0x21C8 JUMP JUMPDEST SWAP3 SWAP2 POP POP JUMP JUMPDEST PUSH0 PUSH2 0xFFFF DUP3 AND SWAP1 POP SWAP2 SWAP1 POP JUMP JUMPDEST PUSH2 0x2208 DUP2 PUSH2 0x21F2 JUMP JUMPDEST DUP2 EQ PUSH2 0x2212 JUMPI PUSH0 PUSH0 REVERT JUMPDEST POP JUMP JUMPDEST PUSH0 DUP2 MLOAD SWAP1 POP PUSH2 0x2223 DUP2 PUSH2 0x21FF JUMP JUMPDEST SWAP3 SWAP2 POP POP JUMP JUMPDEST PUSH0 PUSH4 0xFFFFFFFF DUP3 AND SWAP1 POP SWAP2 SWAP1 POP JUMP JUMPDEST PUSH2 0x2241 DUP2 PUSH2 0x2229 JUMP JUMPDEST DUP2 EQ PUSH2 0x224B JUMPI PUSH0 PUSH0 REVERT JUMPDEST POP JUMP JUMPDEST PUSH0 DUP2 MLOAD SWAP1 POP PUSH2 0x225C DUP2 PUSH2 0x2238 JUMP JUMPDEST SWAP3 SWAP2 POP POP JUMP JUMPDEST PUSH0 PUSH2 0x180 DUP3 DUP5 SUB SLT ISZERO PUSH2 0x2278 JUMPI PUSH2 0x2277 PUSH2 0x204E JUMP JUMPDEST JUMPDEST PUSH2 0x2283 PUSH2 0x180 PUSH2 0x20C0 JUMP JUMPDEST SWAP1 POP PUSH0 PUSH2 0x2292 DUP5 DUP3 DUP6 ADD PUSH2 0x200F JUMP JUMPDEST PUSH0 DUP4 ADD MSTORE POP PUSH1 0x20 DUP3 ADD MLOAD PUSH8 0xFFFFFFFFFFFFFFFF DUP2 GT ISZERO PUSH2 0x22B5 JUMPI PUSH2 0x22B4 PUSH2 0x20DA JUMP JUMPDEST JUMPDEST PUSH2 0x22C1 DUP5 DUP3 DUP6 ADD PUSH2 0x2165 JUMP JUMPDEST PUSH1 0x20 DUP4 ADD MSTORE POP PUSH1 0x40 PUSH2 0x22D5 DUP5 DUP3 DUP6 ADD PUSH2 0x200F JUMP JUMPDEST PUSH1 0x40 DUP4 ADD MSTORE POP PUSH1 0x60 DUP3 ADD MLOAD PUSH8 0xFFFFFFFFFFFFFFFF DUP2 GT ISZERO PUSH2 0x22F9 JUMPI PUSH2 0x22F8 PUSH2 0x20DA JUMP JUMPDEST JUMPDEST PUSH2 0x2305 DUP5 DUP3 DUP6 ADD PUSH2 0x2165 JUMP JUMPDEST PUSH1 0x60 DUP4 ADD MSTORE POP PUSH1 0x80 PUSH2 0x2319 DUP5 DUP3 DUP6 ADD PUSH2 0x200F JUMP JUMPDEST PUSH1 0x80 DUP4 ADD MSTORE POP PUSH1 0xA0 PUSH2 0x232D DUP5 DUP3 DUP6 ADD PUSH2 0x21B4 JUMP JUMPDEST PUSH1 0xA0 DUP4 ADD MSTORE POP PUSH1 0xC0 PUSH2 0x2341 DUP5 DUP3 DUP6 ADD PUSH2 0x200F JUMP JUMPDEST PUSH1 0xC0 DUP4 ADD MSTORE POP PUSH1 0xE0 DUP3 ADD MLOAD PUSH8 0xFFFFFFFFFFFFFFFF DUP2 GT ISZERO PUSH2 0x2365 JUMPI PUSH2 0x2364 PUSH2 0x20DA JUMP JUMPDEST JUMPDEST PUSH2 0x2371 DUP5 DUP3 DUP6 ADD PUSH2 0x2165 JUMP JUMPDEST PUSH1 0xE0 DUP4 ADD MSTORE POP PUSH2 0x100 PUSH2 0x2386 DUP5 DUP3 DUP6 ADD PUSH2 0x1E0D JUMP JUMPDEST PUSH2 0x100 DUP4 ADD MSTORE POP PUSH2 0x120 PUSH2 0x239C DUP5 DUP3 DUP6 ADD PUSH2 0x21DE JUMP JUMPDEST PUSH2 0x120 DUP4 ADD MSTORE POP PUSH2 0x140 PUSH2 0x23B2 DUP5 DUP3 DUP6 ADD PUSH2 0x2215 JUMP JUMPDEST PUSH2 0x140 DUP4 ADD MSTORE POP PUSH2 0x160 PUSH2 0x23C8 DUP5 DUP3 DUP6 ADD PUSH2 0x224E JUMP JUMPDEST PUSH2 0x160 DUP4 ADD MSTORE POP SWAP3 SWAP2 POP POP JUMP JUMPDEST PUSH0 PUSH1 0x20 DUP3 DUP5 SUB SLT ISZERO PUSH2 0x23EA JUMPI PUSH2 0x23E9 PUSH2 0x1B03 JUMP JUMPDEST JUMPDEST PUSH0 DUP3 ADD MLOAD PUSH8 0xFFFFFFFFFFFFFFFF DUP2 GT ISZERO PUSH2 0x2407 JUMPI PUSH2 0x2406 PUSH2 0x1B07 JUMP JUMPDEST JUMPDEST PUSH2 0x2413 DUP5 DUP3 DUP6 ADD PUSH2 0x2262 JUMP JUMPDEST SWAP2 POP POP SWAP3 SWAP2 POP POP JUMP JUMPDEST PUSH32 0x4576656E746F20696E6578697374656E74650000000000000000000000000000 PUSH0 DUP3 ADD MSTORE POP JUMP JUMPDEST PUSH0 PUSH2 0x2450 PUSH1 0x12 DUP4 PUSH2 0x1E4C JUMP JUMPDEST SWAP2 POP PUSH2 0x245B DUP3 PUSH2 0x241C JUMP JUMPDEST PUSH1 0x20 DUP3 ADD SWAP1 POP SWAP2 SWAP1 POP JUMP JUMPDEST PUSH0 PUSH1 0x20 DUP3 ADD SWAP1 POP DUP2 DUP2 SUB PUSH0 DUP4 ADD MSTORE PUSH2 0x247D DUP2 PUSH2 0x2444 JUMP JUMPDEST SWAP1 POP SWAP2 SWAP1 POP JUMP JUMPDEST PUSH32 0x4576656E746F20696E61637469766F0000000000000000000000000000000000 PUSH0 DUP3 ADD MSTORE POP JUMP JUMPDEST PUSH0 PUSH2 0x24B8 PUSH1 0xF DUP4 PUSH2 0x1E4C JUMP JUMPDEST SWAP2 POP PUSH2 0x24C3 DUP3 PUSH2 0x2484 JUMP JUMPDEST PUSH1 0x20 DUP3 ADD SWAP1 POP SWAP2 SWAP1 POP JUMP JUMPDEST PUSH0 PUSH1 0x20 DUP3 ADD SWAP1 POP DUP2 DUP2 SUB PUSH0 DUP4 ADD MSTORE PUSH2 0x24E5 DUP2 PUSH2 0x24AC JUMP JUMPDEST SWAP1 POP SWAP2 SWAP1 POP JUMP JUMPDEST PUSH32 0x4576656E746F207961207061736F000000000000000000000000000000000000 PUSH0 DUP3 ADD MSTORE POP JUMP JUMPDEST PUSH0 PUSH2 0x2520 PUSH1 0xE DUP4 PUSH2 0x1E4C JUMP JUMPDEST SWAP2 POP PUSH2 0x252B DUP3 PUSH2 0x24EC JUMP JUMPDEST PUSH1 0x20 DUP3 ADD SWAP1 POP SWAP2 SWAP1 POP JUMP JUMPDEST PUSH0 PUSH1 0x20 DUP3 ADD SWAP1 POP DUP2 DUP2 SUB PUSH0 DUP4 ADD MSTORE PUSH2 0x254D DUP2 PUSH2 0x2514 JUMP JUMPDEST SWAP1 POP SWAP2 SWAP1 POP JUMP JUMPDEST PUSH32 0x4E487B7100000000000000000000000000000000000000000000000000000000 PUSH0 MSTORE PUSH1 0x11 PUSH1 0x4 MSTORE PUSH1 0x24 PUSH0 REVERT JUMPDEST PUSH0 PUSH2 0x258B DUP3 PUSH2 0x1B0B JUMP JUMPDEST SWAP2 POP PUSH2 0x2596 DUP4 PUSH2 0x1B0B JUMP JUMPDEST SWAP3 POP DUP3 DUP3 MUL PUSH2 0x25A4 DUP2 PUSH2 0x1B0B JUMP JUMPDEST SWAP2 POP DUP3 DUP3 DIV DUP5 EQ DUP4 ISZERO OR PUSH2 0x25BB JUMPI PUSH2 0x25BA PUSH2 0x2554 JUMP JUMPDEST JUMPDEST POP SWAP3 SWAP2 POP POP JUMP JUMPDEST PUSH32 0x4E487B7100000000000000000000000000000000000000000000000000000000 PUSH0 MSTORE PUSH1 0x12 PUSH1 0x4 MSTORE PUSH1 0x24 PUSH0 REVERT JUMPDEST PUSH0 PUSH2 0x25F9 DUP3 PUSH2 0x1B0B JUMP JUMPDEST SWAP2 POP PUSH2 0x2604 DUP4 PUSH2 0x1B0B JUMP JUMPDEST SWAP3 POP DUP3 PUSH2 0x2614 JUMPI PUSH2 0x2613 PUSH2 0x25C2 JUMP JUMPDEST JUMPDEST DUP3 DUP3 DIV SWAP1 POP SWAP3 SWAP2 POP POP JUMP JUMPDEST PUSH32 0x536F6272657061736120656C206D6178696D6F20646520726576656E74610000 PUSH0 DUP3 ADD MSTORE POP JUMP JUMPDEST PUSH0 PUSH2 0x2653 PUSH1 0x1E DUP4 PUSH2 0x1E4C JUMP JUMPDEST SWAP2 POP PUSH2 0x265E DUP3 PUSH2 0x261F JUMP JUMPDEST PUSH1 0x20 DUP3 ADD SWAP1 POP SWAP2 SWAP1 POP JUMP JUMPDEST PUSH0 PUSH1 0x20 DUP3 ADD SWAP1 POP DUP2 DUP2 SUB PUSH0 DUP4 ADD MSTORE PUSH2 0x2680 DUP2 PUSH2 0x2647 JUMP JUMPDEST SWAP1 POP SWAP2 SWAP1 POP JUMP JUMPDEST PUSH0 PUSH1 0x60 DUP3 ADD SWAP1 POP PUSH2 0x269A PUSH0 DUP4 ADD DUP7 PUSH2 0x1C97 JUMP JUMPDEST PUSH2 0x26A7 PUSH1 0x20 DUP4 ADD DUP6 PUSH2 0x1C97 JUMP JUMPDEST PUSH2 0x26B4 PUSH1 0x40 DUP4 ADD DUP5 PUSH2 0x1C14 JUMP JUMPDEST SWAP5 SWAP4 POP POP POP POP JUMP JUMPDEST PUSH0 PUSH2 0x26C6 DUP3 PUSH2 0x1B0B JUMP JUMPDEST SWAP2 POP PUSH32 0xFFFFFFFFFFFFFFFFFFFFFFFFFFFFFFFFFFFFFFFFFFFFFFFFFFFFFFFFFFFFFFFF DUP3 SUB PUSH2 0x26F8 JUMPI PUSH2 0x26F7 PUSH2 0x2554 JUMP JUMPDEST JUMPDEST PUSH1 0x1 DUP3 ADD SWAP1 POP SWAP2 SWAP1 POP JUMP JUMPDEST PUSH0 PUSH1 0x40 DUP3 ADD SWAP1 POP PUSH2 0x2716 PUSH0 DUP4 ADD DUP6 PUSH2 0x1C14 JUMP JUMPDEST PUSH2 0x2723 PUSH1 0x20 DUP4 ADD DUP5 PUSH2 0x1C97 JUMP JUMPDEST SWAP4 SWAP3 POP POP POP JUMP JUMPDEST PUSH0 PUSH1 0x20 DUP3 DUP5 SUB SLT ISZERO PUSH2 0x273F JUMPI PUSH2 0x273E PUSH2 0x1B03 JUMP JUMPDEST JUMPDEST PUSH0 PUSH2 0x274C DUP5 DUP3 DUP6 ADD PUSH2 0x21DE JUMP JUMPDEST SWAP2 POP POP SWAP3 SWAP2 POP POP JUMP JUMPDEST PUSH32 0x4E6F206175746F72697A61646F20706172612076616C69646172000000000000 PUSH0 DUP3 ADD MSTORE POP JUMP JUMPDEST PUSH0 PUSH2 0x2789 PUSH1 0x1A DUP4 PUSH2 0x1E4C JUMP JUMPDEST SWAP2 POP PUSH2 0x2794 DUP3 PUSH2 0x2755 JUMP JUMPDEST PUSH1 0x20 DUP3 ADD SWAP1 POP SWAP2 SWAP1 POP JUMP JUMPDEST PUSH0 PUSH1 0x20 DUP3 ADD SWAP1 POP DUP2 DUP2 SUB PUSH0 DUP4 ADD MSTORE PUSH2 0x27B6 DUP2 PUSH2 0x277D JUMP JUMPDEST SWAP1 POP SWAP2 SWAP1 POP JUMP JUMPDEST PUSH32 0x50726563696F20696E636F72726563746F000000000000000000000000000000 PUSH0 DUP3 ADD MSTORE POP JUMP JUMPDEST PUSH0 PUSH2 0x27F1 PUSH1 0x11 DUP4 PUSH2 0x1E4C JUMP JUMPDEST SWAP2 POP PUSH2 0x27FC DUP3 PUSH2 0x27BD JUMP JUMPDEST PUSH1 0x20 DUP3 ADD SWAP1 POP SWAP2 SWAP1 POP JUMP JUMPDEST PUSH0 PUSH1 0x20 DUP3 ADD SWAP1 POP DUP2 DUP2 SUB PUSH0 DUP4 ADD MSTORE PUSH2 0x281E DUP2 PUSH2 0x27E5 JUMP JUMPDEST SWAP1 POP SWAP2 SWAP1 POP JUMP JUMPDEST PUSH32 0x4E6F2071756564616E207469636B65747320646973706F6E69626C6573000000 PUSH0 DUP3 ADD MSTORE POP JUMP JUMPDEST PUSH0 PUSH2 0x2859 PUSH1 0x1D DUP4 PUSH2 0x1E4C JUMP JUMPDEST SWAP2 POP PUSH2 0x2864 DUP3 PUSH2 0x2825 JUMP JUMPDEST PUSH1 0x20 DUP3 ADD SWAP1 POP SWAP2 SWAP1 POP JUMP JUMPDEST PUSH0 PUSH1 0x20 DUP3 ADD SWAP1 POP DUP2 DUP2 SUB PUSH0 DUP4 ADD MSTORE PUSH2 0x2886 DUP2 PUSH2 0x284D JUMP JUMPDEST SWAP1 POP SWAP2 SWAP1 POP JUMP JUMPDEST PUSH0 PUSH2 0x2897 DUP3 PUSH2 0x1B0B JUMP JUMPDEST SWAP2 POP PUSH2 0x28A2 DUP4 PUSH2 0x1B0B JUMP JUMPDEST SWAP3 POP DUP3 DUP3 ADD SWAP1 POP DUP1 DUP3 GT ISZERO PUSH2 0x28BA JUMPI PUSH2 0x28B9 PUSH2 0x2554 JUMP JUMPDEST JUMPDEST SWAP3 SWAP2 POP POP JUMP JUMPDEST PUSH32 0x4C696D697465206465207469636B65747320706F72206361727465726120616C PUSH0 DUP3 ADD MSTORE PUSH32 0x63616E7A61646F00000000000000000000000000000000000000000000000000 PUSH1 0x20 DUP3 ADD MSTORE POP JUMP JUMPDEST PUSH0 PUSH2 0x291A PUSH1 0x27 DUP4 PUSH2 0x1E4C JUMP JUMPDEST SWAP2 POP PUSH2 0x2925 DUP3 PUSH2 0x28C0 JUMP JUMPDEST PUSH1 0x40 DUP3 ADD SWAP1 POP SWAP2 SWAP1 POP JUMP JUMPDEST PUSH0 PUSH1 0x20 DUP3 ADD SWAP1 POP DUP2 DUP2 SUB PUSH0 DUP4 ADD MSTORE PUSH2 0x2947 DUP2 PUSH2 0x290E JUMP JUMPDEST SWAP1 POP SWAP2 SWAP1 POP JUMP JUMPDEST PUSH0 PUSH2 0x2958 DUP3 PUSH2 0x1C23 JUMP JUMPDEST SWAP2 POP PUSH2 0x2963 DUP4 PUSH2 0x1C23 JUMP JUMPDEST SWAP3 POP DUP3 DUP3 ADD SWAP1 POP PUSH8 0xFFFFFFFFFFFFFFFF DUP2 GT ISZERO PUSH2 0x2983 JUMPI PUSH2 0x2982 PUSH2 0x2554 JUMP JUMPDEST JUMPDEST SWAP3 SWAP2 POP POP JUMP JUMPDEST PUSH32 0x4465626573206573706572617220616E74657320646520766F6C766572206120 PUSH0 DUP3 ADD MSTORE PUSH32 0x636F6D7072617200000000000000000000000000000000000000000000000000 PUSH1 0x20 DUP3 ADD MSTORE POP JUMP JUMPDEST PUSH0 PUSH2 0x29E3 PUSH1 0x27 DUP4 PUSH2 0x1E4C JUMP JUMPDEST SWAP2 POP PUSH2 0x29EE DUP3 PUSH2 0x2989 JUMP JUMPDEST PUSH1 0x40 DUP3 ADD SWAP1 POP SWAP2 SWAP1 POP JUMP JUMPDEST PUSH0 PUSH1 0x20 DUP3 ADD SWAP1 POP DUP2 DUP2 SUB PUSH0 DUP4 ADD MSTORE PUSH2 0x2A10 DUP2 PUSH2 0x29D7 JUMP JUMPDEST SWAP1 POP SWAP2 SWAP1 POP JUMP JUMPDEST PUSH0 PUSH1 0x40 DUP3 ADD SWAP1 POP PUSH2 0x2A2A PUSH0 DUP4 ADD DUP6 PUSH2 0x1C97 JUMP JUMPDEST PUSH2 0x2A37 PUSH1 0x20 DUP4 ADD DUP5 PUSH2 0x1C14 JUMP JUMPDEST SWAP4 SWAP3 POP POP POP JUMP JUMPDEST PUSH32 0x4C697374696E6720696E61637469766100000000000000000000000000000000 PUSH0 DUP3 ADD MSTORE POP JUMP JUMPDEST PUSH0 PUSH2 0x2A72 PUSH1 0x10 DUP4 PUSH2 0x1E4C JUMP JUMPDEST SWAP2 POP PUSH2 0x2A7D DUP3 PUSH2 0x2A3E JUMP JUMPDEST PUSH1 0x20 DUP3 ADD SWAP1 POP SWAP2 SWAP1 POP JUMP JUMPDEST PUSH0 PUSH1 0x20 DUP3 ADD SWAP1 POP DUP2 DUP2 SUB PUSH0 DUP4 ADD MSTORE PUSH2 0x2A9F DUP2 PUSH2 0x2A66 JUMP JUMPDEST SWAP1 POP SWAP2 SWAP1 POP JUMP JUMPDEST PUSH32 0x4C697374696E6720696E6578697374656E746500000000000000000000000000 PUSH0 DUP3 ADD MSTORE POP JUMP JUMPDEST PUSH0 PUSH2 0x2ADA PUSH1 0x13 DUP4 PUSH2 0x1E4C JUMP JUMPDEST SWAP2 POP PUSH2 0x2AE5 DUP3 PUSH2 0x2AA6 JUMP JUMPDEST PUSH1 0x20 DUP3 ADD SWAP1 POP SWAP2 SWAP1 POP JUMP JUMPDEST PUSH0 PUSH1 0x20 DUP3 ADD SWAP1 POP DUP2 DUP2 SUB PUSH0 DUP4 ADD MSTORE PUSH2 0x2B07 DUP2 PUSH2 0x2ACE JUMP JUMPDEST SWAP1 POP SWAP2 SWAP1 POP JUMP JUMPDEST PUSH32 0x5265656E7472616E637947756172643A207265656E7472616E742063616C6C00 PUSH0 DUP3 ADD MSTORE POP JUMP JUMPDEST PUSH0 PUSH2 0x2B42 PUSH1 0x1F DUP4 PUSH2 0x1E4C JUMP JUMPDEST SWAP2 POP PUSH2 0x2B4D DUP3 PUSH2 0x2B0E JUMP JUMPDEST PUSH1 0x20 DUP3 ADD SWAP1 POP SWAP2 SWAP1 POP JUMP JUMPDEST PUSH0 PUSH1 0x20 DUP3 ADD SWAP1 POP DUP2 DUP2 SUB PUSH0 DUP4 ADD MSTORE PUSH2 0x2B6F DUP2 PUSH2 0x2B36 JUMP JUMPDEST SWAP1 POP SWAP2 SWAP1 POP JUMP INVALID LOG2 PUSH5 0x6970667358 0x22 SLT KECCAK256 0x29 PUSH23 0xDA5D0063656AEF5AFE791C23B2969F10E2A5886FE38FEB MOD MSTORE DIV SGT 0xD RETURNDATACOPY MULMOD PUSH5 0x736F6C6343 STOP ADDMOD 0x1E STOP CALLER "
		},
		"gasEstimates": {
			"creation": {
				"codeDepositCost": "2236000",
				"executionCost": "infinite",
				"totalCost": "infinite"
			},
			"external": {
				"buyFromResale(uint256)": "infinite",
				"buyPrimary(uint256)": "infinite",
				"buyerState(uint256,address)": "infinite",
				"eventRegistry()": "infinite",
				"listForResale(uint256,uint256)": "infinite",
				"listings(uint256)": "infinite",
				"markTicketUsed(uint256)": "infinite",
				"mintedTicketsPerEvent(uint256)": "infinite",
				"nextListingId()": "2448",
				"owner()": "2625",
				"renounceOwnership()": "infinite",
				"ticketNFT()": "infinite",
				"transferOwnership(address)": "infinite"
			}
		},
		"methodIdentifiers": {
			"buyFromResale(uint256)": "dffc3fac",
			"buyPrimary(uint256)": "7fab0621",
			"buyerState(uint256,address)": "6047c5a4",
			"eventRegistry()": "acaacad5",
			"listForResale(uint256,uint256)": "1f7d863c",
			"listings(uint256)": "de74e57b",
			"markTicketUsed(uint256)": "6c27c138",
			"mintedTicketsPerEvent(uint256)": "df55e97f",
			"nextListingId()": "aaccf1ec",
			"owner()": "8da5cb5b",
			"renounceOwnership()": "715018a6",
			"ticketNFT()": "b393391b",
			"transferOwnership(address)": "f2fde38b"
		}
	},
	"abi": [
		{
			"inputs": [
				{
					"internalType": "address",
					"name": "_eventRegistry",
					"type": "address"
				},
				{
					"internalType": "address",
					"name": "_ticketNFT",
					"type": "address"
				},
				{
					"internalType": "address",
					"name": "initialOwner",
					"type": "address"
				}
			],
			"stateMutability": "nonpayable",
			"type": "constructor"
		},
		{
			"inputs": [
				{
					"internalType": "address",
					"name": "owner",
					"type": "address"
				}
			],
			"name": "OwnableInvalidOwner",
			"type": "error"
		},
		{
			"inputs": [
				{
					"internalType": "address",
					"name": "account",
					"type": "address"
				}
			],
			"name": "OwnableUnauthorizedAccount",
			"type": "error"
		},
		{
			"anonymous": false,
			"inputs": [
				{
					"indexed": true,
					"internalType": "address",
					"name": "previousOwner",
					"type": "address"
				},
				{
					"indexed": true,
					"internalType": "address",
					"name": "newOwner",
					"type": "address"
				}
			],
			"name": "OwnershipTransferred",
			"type": "event"
		},
		{
			"anonymous": false,
			"inputs": [
				{
					"indexed": true,
					"internalType": "uint256",
					"name": "tokenId",
					"type": "uint256"
				},
				{
					"indexed": true,
					"internalType": "uint256",
					"name": "eventId",
					"type": "uint256"
				},
				{
					"indexed": true,
					"internalType": "address",
					"name": "buyer",
					"type": "address"
				},
				{
					"indexed": false,
					"internalType": "uint256",
					"name": "priceWei",
					"type": "uint256"
				}
			],
			"name": "PrimaryTicketBought",
			"type": "event"
		},
		{
			"anonymous": false,
			"inputs": [
				{
					"indexed": true,
					"internalType": "uint256",
					"name": "listingId",
					"type": "uint256"
				},
				{
					"indexed": true,
					"internalType": "uint256",
					"name": "tokenId",
					"type": "uint256"
				},
				{
					"indexed": true,
					"internalType": "address",
					"name": "buyer",
					"type": "address"
				},
				{
					"indexed": false,
					"internalType": "uint256",
					"name": "priceWei",
					"type": "uint256"
				}
			],
			"name": "ResaleTicketBought",
			"type": "event"
		},
		{
			"anonymous": false,
			"inputs": [
				{
					"indexed": true,
					"internalType": "uint256",
					"name": "listingId",
					"type": "uint256"
				},
				{
					"indexed": true,
					"internalType": "uint256",
					"name": "tokenId",
					"type": "uint256"
				},
				{
					"indexed": true,
					"internalType": "address",
					"name": "seller",
					"type": "address"
				},
				{
					"indexed": false,
					"internalType": "uint256",
					"name": "priceWei",
					"type": "uint256"
				}
			],
			"name": "TicketListed",
			"type": "event"
		},
		{
			"anonymous": false,
			"inputs": [
				{
					"indexed": true,
					"internalType": "uint256",
					"name": "tokenId",
					"type": "uint256"
				},
				{
					"indexed": true,
					"internalType": "uint256",
					"name": "eventId",
					"type": "uint256"
				},
				{
					"indexed": true,
					"internalType": "address",
					"name": "validator",
					"type": "address"
				}
			],
			"name": "TicketUsed",
			"type": "event"
		},
		{
			"inputs": [
				{
					"internalType": "uint256",
					"name": "listingId",
					"type": "uint256"
				}
			],
			"name": "buyFromResale",
			"outputs": [],
			"stateMutability": "payable",
			"type": "function"
		},
		{
			"inputs": [
				{
					"internalType": "uint256",
					"name": "eventId",
					"type": "uint256"
				}
			],
			"name": "buyPrimary",
			"outputs": [],
			"stateMutability": "payable",
			"type": "function"
		},
		{
			"inputs": [
				{
					"internalType": "uint256",
					"name": "",
					"type": "uint256"
				},
				{
					"internalType": "address",
					"name": "",
					"type": "address"
				}
			],
			"name": "buyerState",
			"outputs": [
				{
					"internalType": "uint256",
					"name": "bought",
					"type": "uint256"
				},
				{
					"internalType": "uint64",
					"name": "lastBuyTs",
					"type": "uint64"
				}
			],
			"stateMutability": "view",
			"type": "function"
		},
		{
			"inputs": [],
			"name": "eventRegistry",
			"outputs": [
				{
					"internalType": "contract EventRegistry",
					"name": "",
					"type": "address"
				}
			],
			"stateMutability": "view",
			"type": "function"
		},
		{
			"inputs": [
				{
					"internalType": "uint256",
					"name": "tokenId",
					"type": "uint256"
				},
				{
					"internalType": "uint256",
					"name": "priceWei",
					"type": "uint256"
				}
			],
			"name": "listForResale",
			"outputs": [],
			"stateMutability": "nonpayable",
			"type": "function"
		},
		{
			"inputs": [
				{
					"internalType": "uint256",
					"name": "",
					"type": "uint256"
				}
			],
			"name": "listings",
			"outputs": [
				{
					"internalType": "uint256",
					"name": "tokenId",
					"type": "uint256"
				},
				{
					"internalType": "address",
					"name": "seller",
					"type": "address"
				},
				{
					"internalType": "uint256",
					"name": "priceWei",
					"type": "uint256"
				},
				{
					"internalType": "bool",
					"name": "active",
					"type": "bool"
				}
			],
			"stateMutability": "view",
			"type": "function"
		},
		{
			"inputs": [
				{
					"internalType": "uint256",
					"name": "tokenId",
					"type": "uint256"
				}
			],
			"name": "markTicketUsed",
			"outputs": [],
			"stateMutability": "nonpayable",
			"type": "function"
		},
		{
			"inputs": [
				{
					"internalType": "uint256",
					"name": "",
					"type": "uint256"
				}
			],
			"name": "mintedTicketsPerEvent",
			"outputs": [
				{
					"internalType": "uint256",
					"name": "",
					"type": "uint256"
				}
			],
			"stateMutability": "view",
			"type": "function"
		},
		{
			"inputs": [],
			"name": "nextListingId",
			"outputs": [
				{
					"internalType": "uint256",
					"name": "",
					"type": "uint256"
				}
			],
			"stateMutability": "view",
			"type": "function"
		},
		{
			"inputs": [],
			"name": "owner",
			"outputs": [
				{
					"internalType": "address",
					"name": "",
					"type": "address"
				}
			],
			"stateMutability": "view",
			"type": "function"
		},
		{
			"inputs": [],
			"name": "renounceOwnership",
			"outputs": [],
			"stateMutability": "nonpayable",
			"type": "function"
		},
		{
			"inputs": [],
			"name": "ticketNFT",
			"outputs": [
				{
					"internalType": "contract TicketNFT",
					"name": "",
					"type": "address"
				}
			],
			"stateMutability": "view",
			"type": "function"
		},
		{
			"inputs": [
				{
					"internalType": "address",
					"name": "newOwner",
					"type": "address"
				}
			],
			"name": "transferOwnership",
			"outputs": [],
			"stateMutability": "nonpayable",
			"type": "function"
		}
	]
}